:020000040800F2
:1000000000000220B9120008B1080008B308000877
:10001000B5080008B7080008B9080008000000008B
:1000200000000000000000000000000009130008AC
:10003000BB0800080000000009130008BD08000804
:100040000913000809130008091300080913000820
:100050000913000809130008091300080913000810
:100060000913000809130008091300080913000800
:1000700009130008091300080913000809130008F0
:1000800009130008091300080913000809130008E0
:1000900009130008091300080913000809130008D0
:1000A00009130008091300080913000809130008C0
:1000B00009130008091300080913000809130008B0
:1000C00009130008091300080913000809130008A0
:1000D0000913000809130008091300080913000890
:1000E000C1080008091300080913000809130008D3
:1000F0000913000809130008091300080913000870
:10010000091300080913000809130008091300085F
:10011000091300080913000809130008091300084F
:10012000091300080913000809130008091300083F
:10013000091300080913000809130008091300082F
:10014000091300080913000809130008091300081F
:10015000091300080913000809130008091300080F
:1001600009130008091300080913000809130008FF
:100170000913000809130008091300080000000013
:10018000091300080913000810B5054C237833B98A
:10019000044B13B10448AFF300800123237010BD5A
:1001A000440200200000000008A70008084B10B51A
:1001B0001BB108480849AFF300800848036803B939
:1001C00010BD074B002BFBD0BDE81040184700BF07
:1001D0000000000008A7000848020020400200209C
:1001E0000000000000B54D4C9BB000F081FB236C7B
:1001F00043F080532364236C03F080530593059BE5
:10020000474B1A6842F480421A601B6803F480432B
:100210000693069B01230E930F934FF480031593CF
:10022000192316934FF4A873022517930EA80723DA
:1002300014951895199300F0EBFC0F2309930023F4
:100240000B934FF4A05305210C9309A84FF480534E
:100250000D930A9500F064FE00F080FB41F201036B
:10026000984208BF2F4A304802BF136843F4807396
:100270001360236B43F002032363236B2B4C03F0C7
:1002800002030793079B4FF4804300250E930EA9AA
:10029000274B0F93109500F0CBFB05212A46282011
:1002A00000F074FB282000F0A1FB4FF0FF3029463E
:1002B0002A4600F06BFB01F09FFF1E4B08936FF086
:1002C0007F43099303F52843C1330E931A4B0193DF
:1002D0001A4B029308A90EAB09AA0095204602F01A
:1002E00013FA204602F040FA94F83130DB0620463B
:1002F00002D502F03FFA01E002F04DFA0B48104936
:1003000002F081FA00F0BEFA084800F025F807482C
:1003100000F036F902F042F8F9E700BF0038024079
:1003200000700040003C02400004024060020020D7
:1003300000002110C0A8000A59060008751700081F
:10034000B5070008B0F5804F02D1024800F012BA9C
:10035000704700BF60020020704700001FB590F892
:100360003130DB06044611D50A4B01936FF07F4311
:10037000029303F52843C133039301A902AA03ABF7
:1003800002F0B4F9204602F0F5F901E002F003FAB8
:1003900004B010BDC0A8000A2DE9F84F254FFE6A31
:1003A0000024D6F808B00D46A0466DB33368002B84
:1003B00001DAF8202DE0B5F80A905B464FF0000A0C
:1003C00009EB040B40F2F452934503EB0400696817
:1003D00011D9C4F5BE6404345144224605F09CFD95
:1003E000F6683368002BE4DBA244A044B368ABF2A8
:1003F000F4590024E4E751444A465C46C8449B460D
:1004000005F08AFD2D68D0E70A48414605F03CFA20
:10041000284641F214023B689958890641BF2021C1
:10042000995041F20402002148BF995040B2BDE802
:10043000F88F00BF681A002030B54A4C236B43F098
:1004400001032363236B91B003F001030193019B2C
:10045000236B43F002032363236B03F00203029335
:10046000029B236B43F004032363236B03F0040319
:100470000393039B236B43F020032363236B03F05D
:1004800020030493049B236B43F040032363236BFB
:1004900003F040030593059B236B43F08003236324
:1004A000236B03F080030693069B236B43F4807356
:1004B0002363236B03F480730793079B86230B93BB
:1004C00003230E9302230C93002305460D93264825
:1004D0000B230BA90F9300F0ABFA4FF49073234852
:1004E0000B930BA900F0A4FA3E2321480B930BA910
:1004F00000F09EFA4FF4D0431E480B930BA900F076
:1005000097FACC231C480B930BA900F091FA4FF4F7
:1005100080631A480B930BA900F08AFA236B43F00F
:1005200000732363236B03F000730893089B236B12
:1005300043F080632363236B03F080630993099B7B
:10054000236B43F000632363236B286A03F000638B
:100550000A930A9B20B94FF48001024600F0E4FDA3
:1005600011B030BD003802400000024000040240DB
:100570000008024000180240001C02400020024017
:100580002DE9F74F334C8146204605F0F5F9064634
:1005900000285BD10320A18FD4F840A0024602F0CE
:1005A000B3F9074618B9226BA16B00232AE0D4F8EF
:1005B00030B08046B8F80A203546002340F2F451A6
:1005C00056198E42D8F804000AEB050111D9C5F579
:1005D000BE6504352A461844019305F09DFCDBF8FE
:1005E0000CB0019BDBF808A02B44A6F2F4520025C6
:1005F000E4E7184405F090FCD8F80080B8F1000F4B
:10060000D8D1D0E78B4205D04FF000401060D268BF
:100610000133F7E741F2140123685858000642BF3E
:100620008020585041F208014FF00002A26348BFF9
:100630005A505FB1D9F8103038464946984728B12A
:10064000384603B0BDE8F04F02F036B903B0BDE85C
:10065000F08F00BF681A002030B5732380F8323065
:10066000742380F833303A4B436185B0394B836152
:100670000222044638488DF80820384A02604FF4B8
:10068000804102AA00234261816001224FF400618F
:1006900001938DF809308DF80A308DF80B308DF804
:1006A0000C308DF80D304260C16003628361C3611C
:1006B000028205F011FA28B994F8313043F01003A2
:1006C00084F831302649274A2348042305F068F886
:1006D0002549264A2048042305F09EF8062384F87D
:1006E0002A30022384F82B3040F2DC53238594F81F
:1006F00031301948002543F0220384F8313084F862
:100700002C5084F82D5084F82E5084F82F5084F803
:10071000305005F0C3FA01AA11210F4805F06BF91A
:10072000019A0D4842F003021121019205F09DF952
:1007300001AA1221084805F05EF9019A064842F024
:1007400020021221019205F090F9284605B030BD33
:100750008516000899030008681A002000800240EE
:10076000B01A0020301B0020003300209802002027
:1007700000F0E0B837B502AC002344F8043D05466C
:1007800022460B48122105F036F9019B9A040DD53B
:1007900007481021224605F02EF9019BDB07284669
:1007A00002D502F005F801E002F021F803B030BDF7
:1007B000681A002073B590F8313000210646D8063B
:1007C000009101913FD5244C636853B34FF480529C
:1007D000204605F04AF900F0ADF800901E4D0121C9
:1007E00001AA284605F007F900F0A4F8009BC01AFA
:1007F000B0F57A7F15D8019B9A06EFD501AA284655
:10080000102105F0F8F8019B13F0040218BF4FF413
:1008100000629B074CBF00234FF48043EA60A36053
:1008200009E0E268A3680C48D20842EA53020021BA
:1008300092B205F01AF90021074805F0ABFA064814
:1008400005F02CFA02E0044805F066FA3046FFF79E
:1008500085FD02B070BD00BF681A002038B508469B
:100860000C4615461946072204F030F92946204661
:1008700004F027F9204604F04FF92846BDE8384037
:1008800002F01AB810B504F052F9044658B1072224
:10089000054904F057F8024628B920460349BDE847
:1008A000104004F041B910BD4CA400085D080008D8
:1008B0007047FEE7FEE7FEE7FEE7704700F032B85C
:1008C0004FF4804000F098B9704710B5044600F02E
:1008D000B3FC4FF47A73B0FBF3F000F093F84FF0F1
:1008E000FF302146002200F051F8002010BD00002A
:1008F00008B50B4B1A6842F400721A601A6842F489
:1009000080621A601A6842F480721A60032000F054
:100910002BF80F20FFF7D9FFFFF7D6FF002008BD07
:10092000003C0240024A136801331360704700BF65
:1009300080330020014B1868704700BF80330020CF
:1009400013B50190FFF7F6FF0446FFF7F3FF019B95
:10095000001B9842F9D302B010BD0000014B18688B
:10096000000C7047002004E0074AD36823F4E063DA
:100970001B041B0C43F0BF6343F4003300F007007B
:1009800043EA0023D360704700ED00E0154BDB68BD
:10099000C3F3022370B5C3F107051C1D042D28BF46
:1009A0000425062C8CBF033B0023012404FA03F624
:1009B000AC40013C013E214099403240002842EACF
:1009C00001024FEA0212AFBF00F1604000F00F00D9
:1009D000054BD2B2A5BF00F56140D2B21A5480F8DF
:1009E000002370BD00ED00E014ED00E0410901239B
:1009F00000F01F00024A834042F82130704700BFD8
:100A000000E100E00138B0F1807F3FBF064B074AAC
:100A10005860F0213FBF82F8231000200722986021
:100A200034BF1A600120704710E000E000ED00E0E4
:100A30002DE9F3410F6800220123934003EA0705E3
:100A40009D4240F0CB804C6824F0100CBCF1020FAA
:100A500014D14FEAD20E00EB8E0E02F00706DEF83C
:100A60002030B6004FF00F0808FA06F823EA08080D
:100A70000B69B34048EA0303CEF820304FEA420E38
:100A80000323066803FA0EF3DB4303EA060804F0C7
:100A9000030606FA0EF60CF1FF3C48EA0606BCF126
:100AA000010F066011D8866803EA060CCE6806FAC4
:100AB0000EF64CEA06068660466826EA050CC4F384
:100AC000001696404CEA06064660C66803EA060C25
:100AD0008B6803FA0EF64CEA0603C360E3007DD58B
:100AE000424B5E6C46F480465E645B6C22F003060B
:100AF00006F1804603F4804306F59C36019302F02C
:100B0000030C019BD6F808E04FEA8C0C0F2303FA84
:100B10000CF32EEA030E364B984222D003F5806385
:100B2000984220D003F5806398421ED003F580637D
:100B300098421CD003F5806398421AD003F5806375
:100B4000984218D003F58063984216D003F580636D
:100B5000984214D003F5806398420CBF0823092300
:100B60000EE000230CE001230AE0022308E0032347
:100B700006E0042304E0052302E0062300E0072347
:100B800003FA0CF343EA0E03DFF868E0B360DEF823
:100B90000030EE4314F4803F14BF2B433340CEF8B3
:100BA0000030DEF80430DFF84CE014F4003F14BFEE
:100BB0002B433340CEF80430DEF8083014F4801FA5
:100BC00014BF2B433340CEF80830DEF80C30A402BB
:100BD00054BF06EA03051D43064BDD600132102AAF
:100BE0007FF42AAF02B0BDE8F08100BF00380240B8
:100BF00000000240003C014008B5044B596908421E
:100C000002D05861FFF79EFB08BD00BF003C0140C9
:100C10000368F7B50446D80703D4236899074CD472
:100C200099E08A4B9A6802F00C02042A07D09A686D
:100C300002F00C02082A0BD15B685A0208D5834BDC
:100C40001B689B03E9D56368002BE6D1012061E1B5
:100C50007F4D00232B70FFF76DFE06467B4B1B6814
:100C60009F0308D5FFF766FE41F28833801B984248
:100C7000F4D903204EE123792B70636873B1FFF739
:100C800059FE0546714B1B689E03C6D4FFF752FE02
:100C900041F28833401B9842F4D9EAE7FFF74AFE55
:100CA00005466A4B1B689803B7D5FFF743FE41F230
:100CB0008833401B9842F4D9DBE7644B9A6812F002
:100CC0000C0F07D09A6802F00C02082A16D15B6854
:100CD000590213D45D4B1A68920702D5E268012AC3
:100CE000B4D11968F82090FAA0F02269B0FA80F027
:100CF00021F0F80182400A431A602CE0E268554B6B
:100D0000DAB101221A60FFF715FE05464F48036865
:100D10009F0705D4FFF70EFE401B6428F6D9A8E70D
:100D20000268F82191FAA1F12369B1FA81F122F068
:100D3000F8028B40134303600DE01A60FFF7FAFDE1
:100D40000546424B1B689E0705D5FFF7F3FD401B88
:100D50006428F6D98DE723681D0703D42368580754
:100D60004BD51FE062693C4B72B101221A60FFF75C
:100D7000E1FD0546354B5B6F9907EFD4FFF7DAFDD0
:100D8000401B6428F6D974E71A60FFF7D3FD0546C7
:100D90002E4B5B6F9A07E1D5FFF7CCFD401B642813
:100DA000F6D966E7294B1A6C42F080521A641B6C24
:100DB0002A4A03F080530193019B136843F4807324
:100DC0001360FFF7B7FD0546244B1B68DB0517D5FD
:100DD000234D00232B70FFF7ADFD06461B4B1B6F09
:100DE0009F0713D4237A2B70A368FBB1FFF7A2FDF2
:100DF0000546164B1B6F9E0710D5A26992BB6EE08D
:100E0000FFF798FD401B6428DED932E7FFF792FD1B
:100E100041F28833801B9842E0D92AE7FFF78AFD28
:100E200041F28833401B9842E3D922E7FFF782FD65
:100E30000546064B1B6F9807DFD5FFF77BFD41F298
:100E40008833401B9842F4D913E700BF00380240B2
:100E50000238024000004742800E474200700040C6
:100E6000703802402C4B9B6803F00C03082B3FF4B6
:100E7000EDAE2A4D0023022A2B603ED1FFF75AFD2A
:100E800006462548036899012BD447F6C07797FAA0
:100E9000A7F74FF44036B7FA87F796FAA6F64FF061
:100EA0007061B6FA86F691FAA1F1E369226AB1FAA5
:100EB00081F11A43636ABB401A43A36A5B08013B92
:100EC000B3401343E26A8A401343436001232B601B
:100ED000FFF730FD0446104B1B689A0107D5002030
:100EE00018E0FFF727FD801B6428CAD9C1E6FFF789
:100EF00021FD001B6428EED9BBE6FFF71BFD04466D
:100F0000054B1B689B01EAD5FFF714FD001B642805
:100F1000F6D9AEE603B0F0BD0038024060004742AB
:100F20007F4B1A6802F00F02914270B504460D46DD
:100F300077D9CAB21A701B6803F00F038B4201D035
:100F4000012070BD01688B0741BF7648836823F09C
:100F5000F002A36844BF13438360CE070BD421681B
:100F60004D0740F1CC806F48836823F4E052E3687A
:100F700013438360C3E063686A4A012B03D112689C
:100F800012F4003F08E0991E0129126802D812F0FD
:100F9000007F01E012F0020FD2D062498A6822F08D
:100FA000030213438B60FFF7C5FC6368012B054602
:100FB0000ED15C4B9B6803F00C03042BCFD0FFF7E2
:100FC000B9FC41F28833401B9842F2D9032070BD2E
:100FD000022B0DD1534B9B6803F00C03082BBED0A2
:100FE000FFF7A8FC41F28833401B9842F2D9EDE7A5
:100FF000032B10D14B4B9B68FFF79CFC41F28833CD
:10100000401B9842F6D9E1E7FFF794FC41F28833A0
:10101000401B9842DAD8434B9B6813F00C0FF3D176
:101020009DE70168880741BF3E48836823F0F002CE
:10103000A36844BF13438360CA0709D4384BEAB29C
:101040001A701B6803F00F03AB427FF479AF86E799
:101050006368344A012B03D1126812F4003F08E0A0
:10106000991E0129126802D812F0007F01E012F0E7
:10107000020F3FF465AF2B498A6822F00302134345
:101080008B60FFF757FC6368012B06460DD1254B9B
:101090009B6803F00C03042BD0D0FFF74BFC41F20C
:1010A0008833801B9842F2D990E7022B0DD11D4B5B
:1010B0009B6803F00C03082BC0D0FFF73BFC41F208
:1010C0008833801B9842F2D980E7032B11D1154B4E
:1010D0009B68FFF72FFC41F28833801B9842F6D9BA
:1010E00074E7FFF727FC41F28833801B98423FF6F4
:1010F0006DAF0C4B9B6813F00C0FF2D19EE70B0702
:1011000041BF084A2169936823F4604344BF43EA1E
:10111000C10393600F20FFF7D8FB002070BD00BF14
:10112000003C02400038024070B5204C88B00D46AB
:101130001646236BD0B943F001032363236B05905C
:1011400003F001030193019B07904FF48073039315
:101150000223049303A9032315480693FFF768FCB1
:10116000A16821F0EC61314329431BE043F0040303
:101170002363236B0F4803F004030293029B4FF495
:1011800000730393022304930323069303A900230C
:1011900005930793FFF74CFCA36845EAC60123F0CB
:1011A00078431943A16008B070BD00BF0038024009
:1011B000000002400008024010B51C4CA36803F078
:1011C0000C03042B2ED0082B2ED1626802F03F03B3
:1011D000626847F6C07112F4800F626891FAA1F15B
:1011E00047F6C07000EA020008BF114AB1FA81F167
:1011F00020FA01F00EBFB2FBF3F20E49B1FBF3F29D
:1012000002FB00F3094A50684FF4403292FAA2F20E
:1012100000F44030B2FA82F2D04001304000B3FB1B
:10122000F0F010BD034810BD014810BD0038024069
:101230000024F40040787D0108B5FFF7BDFF084B9E
:10124000F0229B6892FAA2F203F0F003B2FA82F263
:10125000D340044AD35CD840034B186008BD00BF9C
:1012600000380240F0A30008880100200F49D1F89F
:10127000883043F47003C1F888300D4B1A680020A1
:1012800042F001021A6098601A6822F0847222F417
:1012900080321A60074A5A601A6822F480221A6063
:1012A000D8604FF000638B60704700BF00ED00E036
:1012B0000038024010300024DFF834D0002103E071
:1012C0000C4B5B58435004310B480C4B42189A426C
:1012D000F6D30B4A02E0002342F8043B094B9A4242
:1012E000F9D3FFF7C3FF04F0E1FDFEF77BFF704782
:1012F000000002200CA70008880100204402002002
:1013000044020020D8810020FEE7000070B51426BA
:10131000074D46430446A85918B101F0CDFA002301
:10132000AB51142303FB04540023A37470BD00BF0E
:10133000883300202DE9F74F0A230022334C019116
:1013400007469046944692461E469E4618460A2EEA
:10135000D5B294F8009004D1B9F1000F04D12E4613
:1013600017E0B9F1000F14D03FB139688B4654F83B
:101370000E1C8B4501D1EEB244E0B9F1010F94F897
:1013800001903AD154F8121C91B3C14501D32B46B8
:10139000C84601320A2A04F11404D8D1019A9107EF
:1013A00024D40A2E02D1D20702D41FE0F6B20FE0F5
:1013B000BEF10A0F02D05FFA8EF606E00A2801D0CD
:1013C000C6B202E00A2B11D0DEB23046FFF79EFF14
:1013D0000F4927B1142202FB06123B685360142305
:1013E00003FB06130022DA74F6B20BE0FF2609E0D5
:1013F000D145CED32846CA46CBE7E14524BFAE4609
:10140000CC46C6E770B203B0BDE8F08F9A33002037
:101410008833002030B54C681D6825609B88A38008
:101420001368C4F80630938863810823237300236C
:1014300063738369BDE830401847000038B50E4C2F
:101440000025A27C8AB1E37C0133DBB2EF2BE3748D
:1014500003D8012A05D1012B07D92846FFF756FFEB
:1014600003E0032A04BF0223A37401350A2D04F10B
:101470001404E6D138BD00BF8833002070B5084D94
:1014800006460024AB7C2BB1AB68B34202D12046A8
:10149000FFF73CFF01340A2C05F11405F2D170BDB1
:1014A000883300202DE9F8430022064688460320B1
:1014B0002A2101F029FA0546C8B34468012000F04A
:1014C00039FAA082D6F82730C4F81630B6F82B3097
:1014D0006383194B1A689B88A384184B22621A688D
:1014E0009B882260A380D6F82730C4F80630B6F86F
:1014F0002B3063817368E361D8F80030C4F826307C
:101500000023A3736374012206230421E174E273B0
:10151000A37408222274227363732946B369304688
:1015200098470446284601F0C7F9204600E0FF200E
:1015300040B2BDE8F88300BF06A4000800A400087C
:101540002DE9F041104B0F46142101FB02311446E6
:101550008A7C022A804601F110061D4608D1CB7C08
:10156000E32B05D90431FFF79DFF08B90323B370BE
:10157000142303FB04534046394608F127020C3379
:10158000BDE8F041FFF746BF883300202DE9F04168
:101590000746884608683946144603F079FD002856
:1015A0003FD1D8F8003003F0F002E02A39D0002B08
:1015B00037D040460121FFF7BDFE051E33DB2F4E1D
:1015C000142303FB05621032917809B9012191704F
:1015D00003FB05639B7C012B00D034B938464146A0
:1015E000FFF760FF02460CB944E0FF2214236B436F
:1015F000F118897C01290CD9214A15701F4A13441E
:101600003846214607F127020C33BDE8F041FFF7C9
:1016100001BF0AD1234653B11A7B012A18D11B6896
:10162000F9E7F22026E0284624E0104622E0204692
:1016300001F017FAECB1142303FB05F21F46B05872
:1016400008B101F039F907FB05F03450002011E032
:1016500003201989002201F057F9074648B12146B5
:1016600001F01EFA18B1384601F026F901E03C46B7
:10167000E1E7FF2040B2BDE8F08100BF88330020E1
:1016800084330020F7B504460E4608460E21154661
:1016900001F0E6F8002861D12868214603F0F8FC43
:1016A000002853D12B6803F0F002E02A14D1012363
:1016B0008DF800305E238DF802306B788DF80100D4
:1016C00003F07F038DF80330AB788DF80430EB78AE
:1016D0008DF805306B463AE06268A1685A400A42CC
:1016E00009D09BB24FF6A962934204D0E36804F19B
:1016F0000C05002B34D01C491C480A78142303FB2A
:1017000002038E46987C012803D929685B689942B8
:101710000CD016490023887C0128DAB20BD92F6837
:101720004868874207D1D2B28EF800202046314661
:10173000FFF706FF15E001330A2B01F11401EAD18E
:10174000204629463246FFF721FF0AE0084B204693
:10175000314604F12702FFF75DFE02E0FE2000E0C3
:10176000FC2040B203B0F0BD843300208833002059
:1017700000A400082DE9F04F47890E2F85B00546DB
:101780000E4640F2CC8044682378B4F80C80D80729
:1017900014D5012B08D1637883B9A3785E2B0DD1C2
:1017A0006B7B43F0100308E020466049062204F0FA
:1017B000A3FB18B96B7B43F008036B73B8F1080FF8
:1017C00003D0B8F5C16F12D0A9E096F82D30990674
:1017D00040F1A58028466FF00D0101F041F8002886
:1017E00040F09D802846314603F0FCFA9AE096F8D6
:1017F0002D309A0640F19380292F40F29080E389A2
:10180000B3F5807F40F08B80A37C062B40F087806F
:10181000E37C042B40F08380238A082B7FD1A246EF
:1018200073685AF81C0F0290D4F82600039033B165
:10183000039AD31AD3F1000848EB030800E0984656
:101840000298B8F1000F04F1160714BF4FF0010B16
:101850004FF0020B06F1270970B3314603F018FC74
:10186000019048BB029B03F0F003E02B24D002A8B8
:101870005946FFF75FFD00281EDB2D49DDF804C047
:1018800014234343CA180220907496603868D060CD
:1018900051F803B0B888108282F813C0BBF1000F72
:1018A0000AD041F803C0304659464A463B46FFF746
:1018B000B1FD584601F000F8A38AB3F5807F07D048
:1018C000B3F5007F2BD1304602A900F045FB26E09E
:1018D000B8F1000F23D0022000F02CF8A082DAF833
:1018E0000030C4F826307368E3613B682362BB882C
:1018F000A3843B682360BB88A380D9F80030C4F878
:101900001630B9F80430BB80D9F80030C4F806307E
:10191000B9F804306381B3693046294698472846B0
:1019200000F0CAFF002005B0BDE8F08F00A4000859
:101930008833002040BA80B2704740BA80B2704706
:1019400000BA7047FFF7FCBF037B8B421FBF002329
:101950000173437343837047038B30B544695D1C47
:101960002344058383F8F010038B41695C1C0B440E
:10197000048383F8F02030BD038B426910B55C1CF2
:101980001344048383F8F01010BD038B426910B533
:101990005C1C13440A0A048383F8F020038B426919
:1019A0005C1C1344048383F8F01010BD038B426960
:1019B00010B55C1C13440A0E048383F8F020038BDB
:1019C00042695C1C1344C1F30742048383F8F0208E
:1019D000038B42695C1C1344C1F30722048383F820
:1019E000F020038B42695C1C1344048383F8F010DD
:1019F00010BD00002DE9F0410C46164607460028B0
:101A000000F08D80002900F08C8000204FF49A7146
:101A1000024600F079FF2061002800F08480627B9C
:101A2000434B12B91A6801321A6042681B6823607E
:101A300001236261137062695370636997F82A2009
:101A40009A7063690025DD702068D4F81480FFF770
:101A500077FF6369C8F80400082E1D725D729D72DD
:101A6000DD721D735D739D73DD7307D0042E05D089
:101A7000032E05D1227B043A012A01D87A68DA6064
:101A800000221A745A749A74DA741A755A759A750F
:101A9000DA751A765A769A76DA7697F82A006369B2
:101AA00091B2884288BFB918134402F101028CBF79
:101AB00091F82B100021102A1977EED100236269CA
:101AC000D11801330022402B81F82C20F7D1636913
:101AD000991801320023802A81F86C30F7D16269AD
:101AE0006FF07D00632182F8ED00532082F8EC1046
:101AF00082F8EE0082F8EF10238362691A4482F8BC
:101B0000F0300133442BF8D1204635210122FFF774
:101B100023FF20463146FFF72FFF002004E0F2208C
:101B200002E0FA2000E0FF2040B2BDE8F08100BFF3
:101B30008C01002010B5044630B1006908B100F0F6
:101B4000BBFE00232361636110BD38B5446A0546BE
:101B500008212046FFF7F8FE284604F12401002260
:101B6000FFF714FD637B013363730123638338BD87
:101B700037B50546002855D0446A002C52D0636B17
:101B8000581C0BD03C221E33B3FBF2F34FF6FF720E
:101B9000934228BF134603B90123A383A36B591CA7
:101BA0000BD03C221E33B3FBF2F34FF6FF7293428D
:101BB00028BF134603B90123E383E38BA28B9A4228
:101BC00002D30BB10023A383A37B0BB1A36A0BE069
:101BD00094F824301A0601D4FF2305E0BF2B8CBFF4
:101BE0006FF07F434FF6FF730093E36A01932BB9C5
:101BF000636A009A134043F080730193284604F10E
:101C0000240100F04BFD2846694600F0A9FD01A91A
:101C1000284600F0A1FD284600F0ACFD20460A2130
:101C2000FFF792FE03B030BD80B1038B4269591CAF
:101C300001831344FF2283F8F020038B432B05D844
:101C40004269591C018313440022F4E770470000E5
:101C500073B5446A064604212046FFF775FE3046F8
:101C600021460322FFF7C6FE0546D8B902222046C8
:101C70003921FFF771FE318D2046FFF786FE2046A1
:101C8000FFF7D2FF218B2069F03189B200F0BCFE52
:101C9000009660682169104A432302F09DFE2046A9
:101CA000FFF748FF637B0133DBB2092B98BFC3EB1F
:101CB000431263739DBF03EB8203DB009BB242F2CE
:101CC00010734FF4FA72284603F2F31393FBF2F306
:101CD000638302B070BD00BF48A4000873B5446AB6
:101CE00000230646636220460621FFF72DFE30469C
:101CF00021460122FFF77EFE054680BB02222046D8
:101D00003921FFF729FE2046318DFFF73EFE0422E0
:101D100020463721FFF720FE20460121FFF72CFE49
:101D200020460321FFF728FE20461C21FFF724FE52
:101D300006212046FFF720FE2046FFF775FF218B86
:101D40002069F03189B200F05FFE00966068216979
:101D50000E4A432302F040FE2046FFF7EBFE627B73
:101D60000132D2B2052A9CBF4FF47A73934062735A
:101D700094BF9BB24EF660234FF4FA72284603F2EA
:101D8000F31393FBF2F3638302B070BD48A4000821
:101D900073B5446A064601212046FFF7D5FD30465B
:101DA00021460322FFF726FE0546002848D10222DD
:101DB00020463921FFF7D0FD2046318DFFF7E5FDA4
:101DC000042232212046FFF7C7FD606AFFF7BAFD03
:101DD00001462046FFF7EAFD042236212046FFF7A0
:101DE000BBFD206AFFF7AEFD01462046FFF7DEFD92
:101DF000042220463721FFF7AFFD20460121FFF7DF
:101E0000BBFD20460321FFF7B7FD20461C21FFF74D
:101E1000B3FD06212046FFF7AFFD2046FFF704FF84
:101E2000218B2069F03189B200F0EEFD00966068E8
:101E300021690F4A432302F0CFFD2046FFF77AFEC7
:101E4000627B0132D2B2052A9CBF4FF47A73934071
:101E5000627394BF9BB24EF660234FF4FA72284629
:101E600003F2F31393FBF2F3638302B070BD00BF80
:101E700048A4000873B5446A064603212046FFF7CC
:101E800063FD304621460322FFF7B4FD054640BB03
:101E9000022220463921FFF75FFD20464FF41071E2
:101EA000FFF773FD042232212046FFF755FD606ADB
:101EB000FFF748FD01462046FFF778FD2046FFF773
:101EC000B3FE218B2069F03189B200F09DFD0096B0
:101ED000606821690F4A432302F07EFD2046FFF728
:101EE00029FE637B0133DBB2092B98BFC3EB43129E
:101EF00063739DBF03EB8203DB009BB242F210735E
:101F00004FF4FA72284603F2F31393FBF2F3638360
:101F100002B070BD48A4000838B5456A0446CDB18A
:101F20002B7B0A2B10D8DFE803F0150F0F060606EF
:101F30000F0F0F0F060000F02EFC00236B732046DE
:101F4000BDE83840FFF796BF00236B73BDE838400B
:101F5000FFF7C4BE38BD000037B50546002837D0AE
:101F6000446A002C34D0237B082B31D10A68636A81
:101F70009A422DD120460C21FFF7E6FC2846214647
:101F80000422FFF737FDF0B9042232212046FFF783
:101F9000E3FC606AFFF7D6FC01462046FFF706FD2A
:101FA0002046FFF741FE218B2069F03189B200F015
:101FB0002BFD009560682169064A432302F00CFD61
:101FC0002046FFF7B7FD637B0133637314236383FC
:101FD00003B030BD48A4000873B5446A0646052125
:101FE0002046FFF7B1FC304621460322FFF702FDF1
:101FF0000546E0B9022220463921FFF7ADFC318DBC
:102000002046FFF7C2FC2046FFF70EFE218B206919
:10201000F03189B200F0F8FC00966068216904F1A3
:102020002002432302F0D8FC2046FFF783FD637BA8
:102030000133DBB2092B98BFC3EB431263739DBF1F
:1020400003EB82031B019BB244F620634FF4FA7248
:10205000284603F2F31393FBF2F3638302B070BDDF
:10206000134B10B51C6814B3636AF3B1DA8B511EBD
:10207000012AD9830AD11B7B03F0FB02012A01D07C
:102080000A2B12D12046FFF7E3FD0EE09A8B511E7A
:10209000012A998309D11B7B03F0FB02012A01D09D
:1020A0000A2B02D12046FFF797FF2468DBE710BD1B
:1020B0004081002073B5466A044600213046FFF790
:1020C00043FC002333627362B362F362B3637363EE
:1020D0003363204631460722FFF78CFC054698B94A
:1020E0003046FFF7A1FD318B3069F03189B200F045
:1020F0008BFC00947068316906F12002432302F0E2
:102100006BFC3046FFF716FD737B0133DBB2092B06
:1021100098BFC3EB431273739DBF03EB8203DB00D5
:102120009BB242F210734FF4FA72204603F2F3139B
:1021300093FBF2F3738300F02EFB2046064900F078
:10214000ADFA2046044900F007FB2046024900F0A2
:1021500007FB284602B070BD4CA40008254B10B503
:102160001C68002C45D0636A002B40D05A8B012A92
:1021700002D9013A5A833AE039D100225A831A7BB4
:102180000C2A27D0062A25D0012A06D15B7B052BF5
:1021900020461DD8FFF7FCFD29E0082A09D15B7B0A
:1021A000012B204602D8FFF7D0FC20E0FFF7E0FC2F
:1021B0001DE0052A03D12046FFF70EFF17E0042A91
:1021C0000AD15B7B082B204602D8FFF741FD0EE0C9
:1021D000FFF770FF204608E0032A08D15B7B012B44
:1021E000204602D8FFF746FE01E0FFF777FD24689E
:1021F000B7E710BD4081002008B500F0F7F800F007
:102200000DFA00F049FA02F0EAFA00F005FDBDE827
:10221000084000F063B8000070B5044607200E4681
:10222000154600F01FFA00B31049866000230360D2
:102230000B68C56044602BB15A68A24208D9121BD2
:102240005A600360086070BD54688C4208D8134619
:1022500042685968511A1A684160002AF4D101E0B5
:10226000611A51600260186070BD70BD5834002062
:10227000084B1A6862B9084A126812B9074A12680C
:1022800032B101221A60FA2005490022FFF7C4BFCB
:10229000704700BF5034002060810020688100201A
:1022A000A522000808B500F0A7FF084B1B6813B96A
:1022B000074B1B6833B1FA2006490022BDE80840ED
:1022C000FFF7AABF044A136008BD00BF6081002069
:1022D00068810020A52200085034002008B54FF482
:1022E0007A700D490022FFF797FF41F288300B49C1
:1022F0000022FFF791FF4EF6602009490022FFF708
:102300008BFF4FF4FA7007490022FFF785FFFEF7B5
:102310002FFA054B186008BD8123000865230008CB
:10232000492300082D2300085434002008B5FFF786
:1023300015FF4FF4FA7003490022BDE80840FFF78B
:102340006BBF00BF2D23000808B5FFF789FE4EF6CE
:10235000602003490022BDE80840FFF75DBF00BFD1
:102360004923000808B5FFF769F841F288300349AE
:102370000022BDE80840FFF74FBF00BF65230008FB
:1023800008B502F02FFF4FF47A7003490022BDE830
:102390000840FFF741BF00BF812300082DE9F84343
:1023A000104D2B68E3B1FEF7E3F90F4B1C680746AD
:1023B000041B9846296899B14B68A34210D8E41AC7
:1023C0008E68084B0A68C8F8007007201A60D1F8B8
:1023D0000C9000F057F9002EECD04846B047E9E7E2
:1023E000BDE8F88358340020543400200A4B0B4ACF
:1023F0000B4823F0030313604FF4205100225A804E
:102400001A715A18026001201980118051801071D0
:10241000044A1360704700BF5F340020785C0020DE
:10242000745C0020705C0020F0B500283AD01E4B90
:102430001B68984236D31D4A1668B04232D200213A
:1024400000F8041C1A4930F8085C0C68A0F1080276
:10245000A24203EB050438BF0A60A2420FD02779DD
:102460006FB9B4420BD00E68A64204BF104C226074
:102470005C5B20F8084C5C5B1C44D51A658030F826
:10248000064C1D1995420DD02E795EB9096891420E
:1024900004BF074A156030F8082C1A5330F8082C8E
:1024A00013445C80F0BD00BF785C0020745C0020A9
:1024B000705C002003314FF6FC720A400B2AF0B525
:1024C00003D9B2F5205F01D943E00C22224B1B68EF
:1024D00098423FD32149096888423BD2A0F10804C1
:1024E00030F8085CE41AA4B2A5F10801091B89B20E
:1024F0008A422ED82ED05E1937797FB95F5B184D8E
:1025000004F108010A44296892B2B14203EB0201C6
:1025100008BF296000250D719F5210E002F11406DA
:102520008E4217D80E4E04F108010A44376892B261
:102530009918B94238BF316000260E719D524C8007
:1025400020F8082C995AB1F5205F03D00B445A802B
:10255000F0BD0020F0BD00BF785C0020745C00205E
:10256000705C00202DE9F04100284ED003304FF67A
:10257000FC7303400B2B03D9B3F5205F01D943E073
:102580000C23234C234D276829687A1A92B2C3F58D
:102590002050824238DA881831F802E090F804C0FE
:1025A000BCF1000F2ED1AEF10806B61A9E4229D317
:1025B00003F11408464512D3083313449BB2CE18D6
:1025C00086F804C021F803E07280012203800271C2
:1025D000CA5AB2F5205F04D011444B8001E00123B8
:1025E0000371B8420BD10C4B29681A6803461D7958
:1025F00025B1934202D01B880B44F8E723600830D2
:10260000BDE8F0817246C2E70020BDE8F08100BF5E
:10261000705C0020785C0020745C002070B50D4B6D
:102620000D4823F0030300210C4C002240F8042F36
:1026300034F811404E0095B2A54207D205681D60DE
:10264000074D0360755B01322B44F4E701310A2921
:10265000EAD170BD7F5C0020148100200CA400082A
:1026600020A40008092807D8054A52F820302BB1C9
:10267000196842F8201001E00020704718467047A2
:102680001881002029B1034B53F820200A6043F839
:1026900020107047188100207047000070B5054673
:1026A0000C46E1B10A6843689A4217D00D4B18688E
:1026B00040B102686B68C6689A4201D100F0F8FD2B
:1026C0003046F5E7084B1B6843B11A6822B16968C8
:1026D0008A4204BF22681A60DB68F5E724686C60F0
:1026E00070BD00BF608100205C81002070B5154680
:1026F00006461C46FFF7D2FF05B12D68B56004B150
:102700002468F46070BD0000F8B5114F069E0662A3
:102710003E7880F83460002506F1010E089E456081
:1027200004468560C56080F831504562C561066128
:1027300087F800E0FFF7DAFF2046079B984728B9A3
:10274000044B1A68226020461C60F8BD2846F8BD7C
:10275000488100204081002001B10968C1607047B4
:1027600001B1096881607047014B1860704700BF74
:102770004481002090F83130DA0701460AD443F052
:10278000010203F03003302B80F8312002D10431F4
:10279000FEF788BE704790F83130D90707D523F08F
:1027A00001019B0680F8311001D5FEF767BE704726
:1027B00010B590F83130DA06044617D443F0100310
:1027C00080F83130436A0BB1FFF7A6FB94F8313043
:1027D00003F02103212B03D12046211DFEF762FEC9
:1027E000E3691BB12046BDE81040184710BD90F8C2
:1027F0003130D90606D523F0100380F83130C36993
:1028000003B11847704700B1C161704770B5049EAD
:10281000032823D8DFE800F008020406222404E09D
:102820000E2402E0002400E03624E51CBDF814006C
:1028300025F00304651885424FF000000FDC186096
:1028400016B134445C6000E05E6002201A7301221D
:10285000587319815981DA81184670BD002070BD06
:1028600010B529B338B3002905DA4A42438992B238
:10287000934201D21EE08AB2047B43680CB1032C60
:1028800005D15B1A00F11002934209D212E0013C1B
:10289000012C0FD800290DDA448994420AD35B1A1F
:1028A0004360438989B20B44438103891944018100
:1028B000002010BD012010BD38B5014618B300241A
:1028C000E0B2F9B1CB89013B9BB2CB81DBB94A7B4A
:1028D0000D680B7B920703D50B69084698470EE0FD
:1028E0009BB2032B01D1092003E0013B012B03D84C
:1028F0000820FFF7C7FE02E00846FFF795FD013408
:102900002946DDE738BD38BDF8B50E461746032821
:1029100078D8DFE800F008020406222504E00E253E
:1029200002E0002500E03625032F6BD8DFE807F032
:10293000415959020920FFF795FE0446002861D04D
:1029400003230373002303604319033525F00305B4
:10295000C5F50075133323F00303B542A8BF354610
:102960004360012345810681C381751B0746002D05
:1029700042DD0920FFF776FE0023064620B92046F7
:10298000FFF79AFF3046F8BD032243730360ABB2F2
:102990000273B3F5007F00F11002386003814260DA
:1029A00028BF4FF4007301224381C281ED1A07460C
:1029B000DDE705F11300F31C23F0030320F003000F
:1029C000184480B2FFF7CEFD0446D8B10544133554
:1029D000002325F0030545600681468103600373EB
:1029E0000AE00820FFF73EFE044658B1002343608A
:1029F00006814681036007730123E381002363732B
:102A00002046F8BD0020F8BD38B5038999420D462F
:102A10001ED2CA1A43899D4206D9ED1A038913446E
:102A20000381ADB20068F5E7027B044642B99D42DE
:102A300006D04168091A294489B2FFF73BFD0446D4
:102A400020686581258108B1FFF736FF00232360E8
:102A500038BD03460022D0B201320BB11B68FAE741
:102A6000704710B1C3890133C381704730B568B175
:102A700001B930BD05680C8925B10289A31803810D
:102A80002846F7E7038901602344038130BD10B570
:102A90000C46FFF7EBFF2046BDE81040FFF7E1BF13
:102AA0002DE9F0410C46064608B9F22442E000291F
:102AB000FBD002890B899A42F7D34FF000084746B2
:102AC0006589738961687068C8EB0505DB1BAB42DB
:102AD000B4BF9DB2ADB2384441442A4603F01CFA5B
:102AE0002F44638945441FFA85F84345738998BF8D
:102AF0002468BFB298BF4FF00008BB4203D13668CC
:102B00001EB9BCB1D1E714B907E08CB100276289C6
:102B100023899A4201D1236843B9728933899A4241
:102B200001D1336813B9002CCAD103E0FA2401E0C3
:102B30002746F2E760B2BDE8F0812DE9F843884608
:102B40009146064628B331B300242746B9F1000F59
:102B500024D01EB32BB171898B4202D35B1A9BB276
:102B600015E072897168D21A95B24D4528BF4D465D
:102B700008EB070019442A462C442F44C5EB0905ED
:102B800003F0CAF9A4B2BFB21FFA85F90023366870
:102B9000DCE7BDE8F8830846BDE8F8832046BDE8D9
:102BA000F88300002DE9F8434368184E93F8099024
:102BB0003468804600271CB3237C4B4517D123681B
:102BC0001BB1134A1268934211D165697DB1A069A6
:102BD000104B21464246A84768B157B1E368FB60F5
:102BE0003368E360346001204FF0000803E0002008
:102BF00001E00120B846E368274620B91C46DAE721
:102C00002046BDE8F8830120BDE8F8834C81002010
:102C1000B8810020B4810020704770B5016B868DAB
:102C2000846AC58E731A0246181940F2B4539D4245
:102C300094BF431BC31A002B01DBD68570BD631AFA
:102C4000002B4FF00000D6BF091BD085D18570BD89
:102C5000838D194489B240F66833994210B58CBF10
:102C6000838581850446FFF7D8FF40F2D923984237
:102C700008DDA37F43F00203A3772046BDE81040A0
:102C800001F060BB10BD10B5044648B1406808B102
:102C9000FFF712FE21460420BDE81040FFF7F2BC0A
:102CA00010BD10B520B10468FFF7EDFF2046F9E72D
:102CB00010BD037E012B10B5044615D90A2B13D085
:102CC000406F18B1FFF7F8FD002363674FF6FF73FD
:102CD000A386E06EFFF7E5FF206FFFF7E2FF00231A
:102CE000E3662367A4F86A3010BD00002DE9F74FB2
:102CF000994E336801333360984B1A7801321A7059
:102D00009846974B1C684FF0000A9946002C00F03B
:102D1000038198F8003094F821209A4201D1E768A5
:102D2000D6E0217E84F82130022994F8462001D192
:102D3000062A51D00C2A4FD094F89130CBB1894952
:102D400094F890201944013211F8011CD2B291423A
:102D500084F890203ED8062B4FF0000298BF013334
:102D600084F8902098BF84F89130204601F0EDFC63
:102D700030E0A38E18045CBF0133A386236F4BB3EE
:102D8000B4F93400B4F94430984223DB02290AD064
:102D9000B4F94010B4F9423003EBE10372498A5CA4
:102DA0009340A4F844300023B4F84C20A386B4F830
:102DB0006030934228BF1346E28EA4F84C205B0893
:102DC00051008B42A4F84E302046B8BFA4F84E10F4
:102DD00001F036FC002500E00125227E062A09D1FB
:102DE000A37FDB0606D53368616A5B1A282B84BF94
:102DF0000135EDB2237A03F0080303F0FF0743B374
:102E0000042A01D0072A23D1636A3168C91AD4F889
:102E10008C3003F5242202F6B8424FF4FA70B2FB6C
:102E2000F0F2914203D90135EDB2012711E094F897
:102E300092204E4F07FB0233B3FBF0F3994207D9C0
:102E4000204601F064FC94F89230013384F892300B
:102E50000027237E032B07D13368626A9B1A282B35
:102E600009D90135EDB206E0092B04D13368626A55
:102E70009B1AF02B00D86DB32046FFF71AFFE368CA
:102E8000BAF1000F02D0CAF80C3001E0C9F80030E6
:102E90004FB1638B0093A38B0193206DA16A2246EF
:102EA000231D01F08BFBD4F88850D4F810B0E768EC
:102EB000214602202E4CFFF7E5FB002323701DB1B5
:102EC00058466FF00901A8472378002B7FF419AF0B
:102ED00054461EE0E37F94F82020E7680133DBB21C
:102EE0009A42E37715D8DFF888A0D4F88430E577E4
:102EF0008AF800501BB120692146984700E0284617
:102F00009AF80030002B7FF4FCAE10B9204601F097
:102F100019FAA2463C46F9E6164B1D689846C5B11B
:102F200033686A6A9B1AF02B03D8EF682C463D463B
:102F3000F5E72846FFF7BDFEEB680CB1E36001E062
:102F4000C8F8003029460220EF68FFF79BFB2546B2
:102F5000ECE703B0BDE8F08F5481002064810020CD
:102F60006081002041A4000834A40008F824010076
:102F7000508100206881002003688B4210B50C4608
:102F800002D1CB6803600CE0114A136043B1D968E9
:102F9000A14203D11360E268DA6002E00B46F5E774
:102FA00013600023E3602046FFF783FE237E0A2B95
:102FB0000AD0012B08D0A37FDA0705D543F002031E
:102FC000A377204601F0BEF90023237610BD00BF91
:102FD0006C81002037B5037E044600293BD0042BCA
:102FE00001D0072B37D1626F22B9A18D40F668322C
:102FF000914230D0638B0093A38B01932246231D13
:10300000206DA16A01F0DAFA2046FFF752FE344A39
:103010001368A34201D1E3680BE0324A136043B165
:10302000D968A14203D11360E268DA6002E00B467E
:10303000F5E713602C4B01221A70237E0025042B28
:10304000E56035D10A232376284B1A68E2601C60BC
:10305000FFF70EF940E0072B3ED8DFE803F0041C31
:10306000222E2E3D3D34638B13B3214A1368A342B5
:1030700001D1E3680BE01B4A136043B1D968A14258
:1030800003D11360E268DA6002E00B46F5E71360F3
:103090000023E3600CE017482146FFF76DFF032093
:1030A00007E00F482146FFF767FF0F4B01221A7018
:1030B00002202146FFF7E6FA0EE0204601F0FDF877
:1030C00058B9052304E0204601F0F7F828B9092390
:1030D0002376204601F036F9002040B203B030BD1F
:1030E000608100206C8100205081002068810020D8
:1030F000708100205C810020037E012B1EBF837F36
:1031000043F0100383770121FFF764BF10B5084631
:10311000144632B11189FFF79BFD2046FFF7CCFB27
:1031200004E01BB9BDE81040FFF7E6BF002010BD6A
:10313000F8B5456FC66F6F7B00230446436726B121
:1031400021462A460069B04705E0304621462A4616
:103150003346FFF7DBFF98B9BB0615D5A38DE56FA6
:1031600040F6683293421CBF0133A38565B100224B
:10317000206921461346A8470A3005D1F62004E00D
:1031800040B20A30FAD06567002040B2F8BD0000B6
:10319000F8B5164B1A7801321A701D46144B1C688C
:1031A0002B780CB394F821209A42FAD084F821307D
:1031B000A37FDA0709D543F00203A377204601F085
:1031C000C1F8A37F23F00303A377636FE7680BB90C
:1031D0003C46E5E7074E002320463370FFF7A8FF83
:1031E0003378002BF4D0D9E7F8BD00BF648100200C
:1031F000608100205081002008B5FFF7C9FF064A12
:1032000013780133DBB21370DB0703D5BDE8084048
:10321000FFF76CBD08BD00BF58810020037E0A2B5C
:103220002DE9F743044689460AD121461D48FFF798
:10323000A3FE0220214603B0BDE8F043FFF722BA07
:10324000D0F85080876AD0F8885006691648214621
:10325000FFF792FE154B206F01221A7008B1FFF79D
:1032600020FDE06E08B1FFF71CFDB9F1000F09D099
:10327000638B0093A38B0193404639462246231D5E
:1032800001F09CF902202146FFF7FCF93DB13046E0
:103290006FF009012B4603B0BDE8F043184703B0B7
:1032A000BDE8F0836881002060810020508100200B
:1032B0000121FFF7B3BF0000034A044B18681368ED
:1032C00018441060704700BF900100205481002016
:1032D000F8B505460220FFF7C5F9384E0446002828
:1032E00031D1374B31681B683BB15A6A8A1AA24206
:1032F00024BF18461446DB68F6E708B1FFF7D8FF8D
:103300000220FFF7AFF90446E8B92E4BD6F800E0EB
:103310001B687F2773B1597EA94209D8B94207D8E3
:103320005A6AC2EB0E02A24222BF0F46144618464A
:10333000DB68EFE708B1FFF7BBFF0220FFF792F968
:103340000446002837D000219422204602F0EFFDE9
:1033500041F2D063A4F8663040F66833A385E38574
:10336000FF23A3724FF40673E3860623A4F84430C8
:10337000A4F842304FF6FF736576A386002501233B
:10338000A4F84C30A4F868506572A4F84050FFF7D8
:1033900093FF336863620C4BA0651B7884F821307F
:1033A0000A4BE3670A4B2065A064E065E577C4F843
:1033B0008C3084F892502046F8BD00BF5481002024
:1033C0006881002060810020648100200D310008A8
:1033D00000DD6D0010B50446084601F0E5FC30B193
:1033E000038D23B1283B9BB29C4228BF1C4620463C
:1033F00010BD00002DE9F843784B794E1B7813F08F
:10340000100F044600F06081436D3168B0F86070C1
:10341000826D744D581A00280DDB8B4203D12B6846
:10342000D31A002B07DB2B689A421ED16E4B1B6808
:10343000DB89BB4219D96C4BB4F862E01B68D889B0
:10344000616586452968A165A4F8600038BFA4F8C5
:10345000620094F8911020B939B984F890000123E2
:1034600001E011B1002384F891302968A06C0B1A97
:10347000002B34DC0023A4F864305C4B1B88002B49
:1034800040F0EF81B4F860E0A36D3A447344934296
:1034900040F0E781B4F93430002BC0F2E281884279
:1034A00040F0DF8194F84720531CDBB2934288BF81
:1034B00084F8473094F84730032B0AD9B4F84C20ED
:1034C000E38E13449BB2934240F2D280A4F84C3076
:1034D000CEE040F0CD80204601F0F1F8C8E0226D4A
:1034E0008A1A002A76DCA27FB4F94070A1645007E2
:1034F00041BF22F00402A277B4F84E20A4F84C2079
:10350000B4F8422002EBE702A4F84420B4F86620A5
:103510009BB2A4F864301344A4F86630237E0020E4
:10352000032B84F8460084F8470046D9B4F84C20B1
:10353000B4F84E309342E38E9CBF5B4393FBF2F3AF
:1035400013449BB2934238D9A4F84C3035E01B6940
:103550005868FEF7F7F9236FB3F808801B69074630
:103560009889FEF7EAF92B6810F0030018BF0120D4
:10357000FF1A40443844002822DC276F3B68236749
:103580007868FFF766FAB4F864305BB13B699889F4
:10359000FEF7D3F9C20742BFB4F8643003F1FF333A
:1035A000A4F864307868FFF754FAB4F86830181A51
:1035B000A4F868003846FFF766FB236F002BC6D1DE
:1035C000226F00231AB94FF6FF72A28600E0A3868D
:1035D000E3774DE00023A4F8643049E084810020C3
:1035E0007481002080810020888100207C8100205F
:1035F0001B692F685868FEF7A5F9E36EB3F80880D9
:103600001B6981469889FEF798F910F0030018BFEE
:103610000120C9EB070740443F1A002F2BDB944BD6
:10362000226D1B689B1A002B25DCE76E3B68E36666
:103630000BB9A4F86A307868FFF70BFAB4F8643075
:103640005BB13B699889FEF778F9C30742BFB4F8CC
:10365000643003F1FF33A4F864307868FFF7F9F9B8
:10366000B4F86830181AA4F868003846FFF70BFB66
:10367000E36E002BBCD1A16B31B3E36B2A689B1ABC
:10368000002B21DA7B4AB4F840301268521A43F317
:10369000CC01521A92B291B20804134444BF524270
:1036A00091B2B4F8422042F38D00121A9BB20A4440
:1036B00092B2A4F8403043F3CC031344A4F844304E
:1036C0000023A4F84220A3636B4FA26A3D88002D1B
:1036D00000F0B780237E062B00F2B3803368D11A46
:1036E000012926D4501CC01A401B002821DC634D40
:1036F000686842898A420B460DDA0289521A92B2F0
:103700004189994205DA5B1A0021028141810068F2
:10371000F6E7594200E0494209B2FFF7A1F83168E3
:103720002B89A26A32600B449B1A2B812B695A6049
:1037300006E09B1A002BBEBFA37F43F00203A377D2
:103740003268A16A531A002B76DB531CA08D5B1ADA
:103750001B1A002B70DC91426ED1484D2B69B5F8D5
:1037600008809889FEF7E9F810F0030018BF0120DF
:103770004044A38D80B28342388037D22B69988928
:10378000FEF7DBF8C30710D5D5F81090B9F80C8018
:103790004046FEF7D2F800F03E00FEF7CBF828F4E2
:1037A0007C5840EA0800A9F80C00A38D2B812B69F6
:1037B000DFF8C8809889FEF7C0F8800748BFB8F8DE
:1037C0000830686844BF03F1FF33A8F8083029893E
:1037D000FFF71AF92B69B5F808809889FEF7ADF85C
:1037E00010F0030018BF0120404438803988A38DB1
:1037F00032685B1A0A44A262A3852046FFF70DFADD
:103800006B681A8922B11E4A13601C4B00225A6051
:103810002B699889FEF791F8C10741BF194A1378BF
:1038200043F020031370A37FDA0702D523F00103CE
:1038300012E043F0010311E02046BDE8F84300F038
:103840005EBD3368991A002905DB01339B1AA28DEE
:103850009B1A002B09DDA37F43F00203A377BDE889
:10386000F883002384F8473002E7BDE8F88300BFFF
:1038700080810020548100207C81002090810020E4
:103880008C81002085810020F8B51E4E35680446E5
:10389000A889FEF752F8C0F30F30052831D93368F4
:1038A0009889FEF74AF8000B05388000143580B27D
:1038B0000023834225D2EA5C012A05D021D3022AC3
:1038C00005EB030102D017E0013318E04A78042A1F
:1038D00017D1DA1C824214DA8E78CA7842EA0622BC
:1038E000511E89B240F2B45640F2B357B94288BF74
:1038F00032462280043302E04A7812B113449BB26C
:10390000D7E7F8BD888100202DE9F04F4368A74A2A
:10391000A74D13600E46197801F00F0103EB8103E8
:1039200089008BB0494207462B60FEF799FF0028BB
:1039300040F0A5803B89132B40F2A1809D4C31467D
:10394000206801F0A5FBA346002840F0988023687A
:1039500003F0F003E02B00F092802B689889FDF7CC
:10396000ECFF000BC0EB8030810009B23846FEF757
:1039700077FF8046002840F082802C68DFF864A240
:103980002088DFF85C92FDF7D8FF20802C686088E3
:10399000FDF7D3FF60802C686068FDF7D3FF60609F
:1039A0002C68CAF80000A068FDF7CCFF824BA0602D
:1039B0002C681860E089FDF7C0FF2B68E0819889CA
:1039C000FDF7BBFF7D4BDFF8FCC12E68DCF800E0A3
:1039D000CDF81890C2B202F03F0119703B890793ED
:1039E00012F0030118BF012119448BB204937449EA
:1039F000BDF81030A9F800300B680893DBF80030F0
:103A000005936D4B039340467446D0460991E246B8
:103A1000002C3AD0B4F81CC031888C4516D1B4F8CB
:103A20001AC071888C4511D16168089B99420DD1EB
:103A30002168059B994209D1002800F09780E16830
:103A4000C1606049C4F80CE00C608FE02046E46877
:103A5000DEE7C06800283ED0818B34888C42F8D1E4
:103A6000418BB6F802E08E45F3D14168089B99423C
:103A7000EFD10168059B9942EBD1550708D538462F
:103A80000BB0BDE8F04FFEF717BF4F490868E1E7FC
:103A9000910711D5D8F80010836ACB1A11D4828D02
:103AA0009B1A002B0DDC039BCDF800E001941868F5
:103AB000049B0B44194642E0D20742BF434B1B68AC
:103AC0004362049B002BDAD0837F43F002038377A9
:103AD00000F038FCD3E73E490C68A146B9F1000F6D
:103AE00032D0B9F81A10B6F802E08E4507D1D9F8ED
:103AF00000E0059B9E4506D0BEF1000F03D048466E
:103B0000D9F80C90EAE738B1D9F80C30C3603048E6
:103B1000C9F80C40C0F800905307B0D402F0100070
:103B200000F0FF04002800F08382D8F800300091F4
:103B300032880192039A1068049A1A4411461D4A69
:103B40001F4B00F03BFD9AE7B089FDF7F6FE4007FA
:103B500095D42A68069B50881988D8F800300090C0
:103B600012880192039A19441068E8E71949BDF8D0
:103B70001C300B810E61184B184E4F60002012F064
:103B8000080F0860186030709A46894603D07A7B27
:103B900042F001027A73626FDFF84CB032BB074F1C
:103BA000CBF800403A7851072FD444E078810020C8
:103BB00088810020B881002080810020848100203D
:103BC000B4810020608100206881002054810020A1
:103BD0005C810020908100208C8100208581002064
:103BE0007C81002074810020A48100202046FFF702
:103BF0009FFA0A3000F00E82626F002ACFD09C4AF2
:103C00001288002A40F00682C9E7227E022A06D1E5
:103C1000984B1A68236D9A4240F08E815CE2D8F886
:103C20000030A26A9B1A00F18781A28D9B1A002B9B
:103C300000F3828150E212F0020FA27F07D0217EB2
:103C40000239012903D942F00202A27774E1D206B7
:103C50005EBF894A12686262002284F8922004F1F1
:103C60003600FFF711FE227E023A072A00F2648135
:103C7000DFE812F008007400C000CD000C01C000A5
:103C8000250153013A7802F01202122A56D1039B01
:103C9000216F1A68096904924868FDF753FE049A77
:103CA000013082424AD1B4F86620D8F80030E08E64
:103CB0000132A4F866205A1CA26222636D4A12687F
:103CC000A2642A68013BD28963650423E118A4F841
:103CD0006020A4F862202376FFF77CFB00EB8003D2
:103CE0005B00A4F84E30B4F84C30E086012B04BFE2
:103CF000400080B2B4F86830A4F84C00206F013B5B
:103D0000A4F8683003682367FEF7BDFF236F1BB973
:103D10004FF6FF73A38603E00023A38684F84630A2
:103D2000D4F880301BB9A37F43F00203DBE12069A4
:103D30002146002298470A30F5D16BE13A78D30644
:103D400040F1FA802A68069B50881988D8F800301C
:103D5000009012880192039A106837E03A78D706EB
:103D60003AD5444A1068A26CD243C24225D4226D8F
:103D7000821A002A21DC042323766369002B00F0D9
:103D80001381206921460022984718B10A3040F07B
:103D90000B813FE12046B4F84C50FFF72BFBB4F801
:103DA000643013B1013BA4F86430E38E012D04BFED
:103DB0005B009BB2A4F84C301FE02A68069B558834
:103DC0001988D8F8003000951288019219442B4ABE
:103DD0002B4B00F0F3FBAFE0900740F1AD80A26AFF
:103DE000D8F80030013A934240F0A680204600F017
:103DF0003EFCA1E02046FFF7FDFA3378990640F13A
:103E00009B80A37F43F00203A377072325E020468E
:103E1000FFF7F0FA337813F0200F3B781FD013F040
:103E2000100FA37F43F0020315D0124A1168226DD0
:103E3000914210D1A3772046FEF73BFF114A136849
:103E4000A3424ED0104A1360002B59D0D968A1422A
:103E50004CD00B46F8E7A377082323766CE0DA060C
:103E60006AD5044B1A68236D9A4265D10623F4E79C
:103E70007C8100208081002054810020B8810020B6
:103E8000B4810020608100206C8100202046FFF773
:103E9000B1FA33789B064FD5A37F43F00203A37793
:103EA0002046FEF706FF924A1368A34219D0914AB2
:103EB00013602BB3D968A14218D00B46F9E720460E
:103EC000FFF798FA3B78DF0636D58B4B1A68236DDF
:103ED0009A4231D12046FEF7ECFE854A1368A34290
:103EE00001D1E3680CE0834A136007E01360E268E5
:103EF000DA6006E0D968A142F8D00B46002BF9D170
:103F000013607E4B01221A700A2323767C4B1A68B9
:103F1000E2601C60FEF7ACF90EE02046FFF76AFA9B
:103F20003B78DD0608D5744B1A68236D9A4202BFB0
:103F3000337843F0100333703378180706D5D4F87C
:103F400088307BB120696FF00A010AE0D90612D5EA
:103F5000A37FDA0606D4D4F888301BB120696FF04D
:103F60000B01984721466248FFF706F802202146D8
:103F7000FEF788FB4EE0B4F864201AB9DAF80020A6
:103F80004AB927E0A36F002BF8D020692146984753
:103F90000A30F3D13EE0A17F01F0100101F0FF03F0
:103FA00031B11046FEF788FC2046FFF781F931E079
:103FB000E56F1DB120692146A84704E02846214647
:103FC0002B46FFF7A3F843B20A3323D010B1DAF837
:103FD0000030636733789B0616D5636F23B15A7B35
:103FE00042F020025A730FE0A38DE56F40F668326D
:103FF00093421CBF0133A38535B1002220692146BD
:104000001346A8470A3005D000232046CBF80030DD
:1040100000F098F9D9F804000024CBF80040CAF861
:104020000040002861D0FEF747FC364B5C605CE046
:1040300096077FF524AD99F81900FFF749F9064670
:1040400000283FF41CADDBF80020099B0260B9F8A2
:104050001A2042831A6842602A68D8F800305078E3
:10406000117841EA0021B18303213176591CB162F4
:104070003163013BD2897365D9F810303361D9F8C7
:104080001430A6F86020A6F86220A6F84E207361CE
:1040900099F8083023F073033372DAF80030F360D4
:1040A000CAF80060FEF7E4F8144B012206F136006E
:1040B0001A70FFF7E9FB311DF08EFFF78BF9122123
:1040C000F086304600F0ADF820B130462146FFF7CB
:1040D000A5F8D4E43046FBE4337843F008033370AA
:1040E000A37F23F00103A37726E70BB0BDE8F08F91
:1040F000608100206C8100208081002050810020A0
:1041000068810020908100202DE9F84F9DF82880DB
:104110009A4608F0020518F0010318BF04238146EF
:10412000002D14BF0C25002504200F4616461D4403
:10413000FEF798FA4FF0000B044618B93846FEF720
:10414000BBFB3EE080F80C803B8947605B1BC0F8FE
:1041500000B00381A0F80AB014213846FEF780FBB6
:10416000074628B12046FEF78EFD5846BDE8F88F79
:104170006368B9F81A00D3F80480C4F81080FDF71A
:10418000D9FBA8F80000B9F81C00D4F81080FDF79E
:10419000D1FBA8F802005046D4F81080C5F387057B
:1041A000FDF7CEFB053546EA0535C8F80400A8B290
:1041B000D4F81080FDF7BEFB2369A8F80C009F74AB
:1041C000DF742046BDE8F88F1431F8B589B2054692
:1041D000174601200022FEF797FB0646F8B1446817
:1041E000688BFDF7A7FB2080A88BFDF7A3FB67601A
:1041F0006080A86AFDF7A4FBA06045F21000FDF7FF
:1042000099FBA081E88DFDF795FB0023237463746F
:10421000A374E374EA8DAB6AE08113442B633046E8
:10422000F8BDB0F86830072B73B504460D4613D8B7
:10423000B0F86630C1F34006B100002B39D0002041
:104240000246FEF761FB014630B1009620462A4641
:10425000E36DFFF759FF20B9A37F63F07F03A377D6
:1042600027E0E36E0BB9E06604E01A680AB1134672
:10427000FBE718600023AA07A4F86A301FBFE36DAC
:104280000133E365B4F866301CBF03F1FF33A4F8D3
:104290006630EB0742BFA37F43F02003A37740685B
:1042A000FEF7D7FBB4F868301844A4F86800002083
:1042B00000E0FF2040B202B070BDF8B5C46E054604
:1042C00054B123680BB11C46FBE723699889FDF7BD
:1042D00034FB10F0070705D028460121BDE8F8405F
:1042E000FFF79FBF26690120B489FDF723FB204318
:1042F000B081AB7F43F02003AB773846F8BD37B5CC
:104300000446006DFDF71CFB002102462046FFF726
:104310005BFF054688B1A37F627A009223F0030316
:104320000622A3770192A37A2146221D00F094FE73
:104330002846FEF7C1FA002000E0FE2040B203B09C
:1043400030BD00009B4B1B6883422DE9F7430446B8
:1043500000F02B81B0F84C30B0F86070C56E9F4211
:1043600028BF1F46837F9B0710D52DB9204603B079
:10437000BDE8F043FFF7C3BF2B695868FDF7E2FAC9
:104380002B89A26C9B1A1844B842EFD8266F002ED6
:1043900000F0A7803368002B00F0A3801E46F9E7E9
:1043A0002B695868FDF7CEFA2B89A26C9B1A18442A
:1043B000B84200F299802B699889FDF7BEFA236F05
:1043C000002B40F097802B68E366237E022B0ED0F3
:1043D000D5F810901020B9F80C80FDF7ABFA40EA40
:1043E0000800A9F80C00A37F23F00303A377A06AB9
:1043F000D5F81080FDF7A4FAC8F80800E08DD5F8CC
:104400001080FDF797FAE28DA36AA8F80E00134416
:1044100023632B7BD5F8109013F0010F04F10408EF
:104420000AD0414640F2B450FEF7D4FF40F001708C
:10443000FDF786FAC9F81400B4F93430013304BF2B
:104440000023A3862368002B6ED0A36B3BB95A4B85
:104450001B68A3632B695868FDF774FAE06368680A
:104460002A69436841894260D31A9BB2C91A4181C3
:104470000189CB1A0381002313745374627A00926A
:1044800006220192A37A2146424600F0E5FD2B69FF
:104490005868FDF757FA2B69B5F808908046988957
:1044A000FDF74BFA10F0030018BF0120236D4844BC
:1044B00040441B1A002B2B69B8BF20659889B5F8BA
:1044C0000880FDF73AFA10F0030018BF012018EB3E
:1044D000000F5BD000232B60236F6BBB25672E463C
:1044E000E56E002D7FF45CAFE36E002B53D1A4F892
:1044F0006A3050E0A27F12F0440F7FF464AFE36EA5
:1045000043B1196800297FF45EAF1989E38E99429F
:10451000BFF459AFB4F86630002B3FF454AFB4F891
:104520006830072B3CD94EE7404600F03DFC0028A0
:10453000ADD04368236088E72B695868FDF702FA1D
:10454000336980465868FDF7FDF9C0EB0800002884
:104550001ADA04F17008D8F800302BB9D8F8003016
:104560002B60C8F8005014E01B695868FDF7EAF9A1
:104570002B6981465868FDF7E5F9C0EB0900002872
:10458000ECDAD8F80080E6E73560A8E72846FEF7C1
:104590007AFB3546A3E7A37F03F07F03A37704E00C
:1045A00012F0A00F7FF40FAF9EE7002003B0BDE82C
:1045B000F08300BFA4810020548100202DE9F74F33
:1045C0008146884617460120142100221E46BDF868
:1045D00030B0BDF834A0FEF797F9054668B34468DB
:1045E0005846FDF7A7F920805046FDF7A3F96080F3
:1045F0004846FDF7A5F960604046FDF7A1F9A060C7
:1046000045F21400FDF796F90B220023A2736822ED
:10461000A081E27323746374A374E374009306238C
:104620000193284639463246FF2300F015FD2846FF
:1046300003B0BDE8F04FFEF73FB903B0BDE8F08F1F
:10464000026F10B592B111460B680BB11946FBE72A
:10465000C46E0C60C26690F846200367013280F891
:1046600046208363BDE81040FFF76CBE10BDF8B56F
:10467000056F044615B32B68036700F16C063368B9
:104680003BB933682B6035602B6883B9A4F86A3076
:104690000DE01B695868FDF755F92B690746586806
:1046A000FDF750F9381A0028EBDA3668E7E794F896
:1046B0004630013384F846300023A363F8BD036F0E
:1046C00010B5044613B3837F5B071FD4FFF7CFFFFA
:1046D000B4F84C30B4F8602093428BBF52085B08AA
:1046E000A4F84E20A4F84E30E28EB4F84E105300D9
:1046F0009942B8BFA4F84E301344B4F84E20134486
:10470000A4F84C30A37F43F00403A37710BD37B562
:104710000446006D0138FDF713F9002102462046DA
:10472000FFF752FD054670B1002106228DE8060014
:10473000A37A2146221D00F08FFC284603B0BDE875
:104740003040FEF7B9B803B030BD2DE9F341056F35
:10475000064615B9C56E002D3ED02B699889FDF728
:10476000ECF810F0010018BF2C892B6916BFB4FAC1
:1047700084F404466409304684F001015A68FFF766
:1047800023FD074640B3D0F804805CB1B8F80C4074
:104790001120FDF7CFF824F47C54A4B22043A8F8EC
:1047A0000C0009E068682A8903899B1A08F1140142
:1047B00001229BB2FEF7C1F9002106228DE8060016
:1047C000B37A38463146321D00F046FC384602B016
:1047D000BDE8F041FEF770B802B0BDE8F081704767
:1047E0002DE9F04FD0F8048003890F4698F80010A7
:1047F00001F00F018A1CB3EB820F85B0054605DB83
:1048000089004942FEF72CF8044628B1284605B035
:10481000BDE8F04FFEF750B8474ED5F804B0306809
:10482000394600F035FC8146BBF80000FDF785F8FD
:104830008246BBF80200FDF780F84428039010D1AF
:10484000BAF1430F3FD17B6A002B3CD05B68002B51
:1048500039D05A68002A6DD0384909688A4232D165
:1048600068E0374BD6F800B0D3F800C0334B214690
:10487000D3F800E063462BB35A8A039882421ED1D4
:104880001A68B9F1000F00D15AB15A4509D0B9F1EF
:10489000000F14D02AB182EA0B021046BA68104207
:1048A0000DD124B91A7C12F0040F08BF1C469A8A55
:1048B000524504D15A68002A35D0724533D0194682
:1048C000DB68D8E724B97A6833689A429ED100241D
:1048D00028466FF00701FDF7C3FF002896D164B1A9
:1048E000A669002E92D0CDF800A0E069134B2146B6
:1048F0002A46B04705B0BDE8F08FB9F1000F85D169
:10490000336803F0F003E02B80D098F8001001F03A
:104910000F01023128468900FDF7A2FF2846032136
:1049200000F0E0F972E729B1DA68CA60044AC3F816
:104930000CC013601C46CBE7B8810020B481002076
:10494000A8810020F0B5224E376800233C46B4B160
:10495000A04211D0658A95420FD1D4F800E0BEF193
:10496000000F01D1F82031E00029FBD00D68002DA7
:10497000F8D0AE4501D1F5E70123E468E7E701B1DE
:1049800009680160EAB9134C21884FF480454FF65D
:10499000FF7291421ABF4A1C92B24FF44042BE4687
:1049A000BEF1000F0CD0BEF81210914205D1013DAE
:1049B000ADB2002DEBD12280D4E7DEF80CE0EFE7BA
:1049C000228042820BB9C7603060002040B2F0BD47
:1049D000A8810020940100202DE9FF479246428AD9
:1049E000DDF8308004460E46994632B13046082143
:1049F000FDF736FF38B9354612E00146FFF7A2FF52
:104A00000028F3D044E0012008210022FDF77CFFBC
:104A10000546002837D0338913B13146FEF737F801
:104A2000608A6F68FCF786FF38804846FCF782FF93
:104A30000023BB71FB712368788013B908F1040966
:104A40000AE0D8F80420934205D0B5421DD028468C
:104A5000FDF732FF19E0A1462889FCF76BFFB8800B
:104A6000627AA37A009211220192CDF8088028463A
:104A70004946524600F07AFAB542044607D0284625
:104A8000FDF71AFF03E0FF2002E0FA2000E02046D5
:104A900040B204B0BDE8F087F7B5074610460E46B1
:104AA00014461D4600F080F938B100903146384672
:104AB00022462B46FFF790FF00E0FC2040B203B0F7
:104AC000F0BD021D838AFFF7E7BF000070B51646F0
:104AD000428A04460D4612B13DB12D6805E00146FB
:104AE000FFF730FF0028F7D011E0237C656043F02A
:104AF00004032374074BA6821A68104618B1844237
:104B000004D0C068FAE7E2601C6000E0002040B218
:104B100070BD00BFA8810020002343608382037C16
:104B200023F00403037470478161C261704710B5BC
:104B30000120FDF797FD044628B10021202201F055
:104B4000F6F9FF23A372204610BD2DE9F043064677
:104B500085B089469046012024210022FDF7D4FE2D
:104B6000054660B34468376884F80090002384F8F1
:104B7000018023716371A371E37142683368083265
:104B800003F11C0153F8040B42F8040B8B42F9D1DA
:104B900000266989A670E670204600F0DAF804AABB
:104BA0006080FB6842F8043D01230193009628468B
:104BB0003146FF2300F050FA2846FDF77DFE05B090
:104BC000BDE8F0832DE9FF474668357805F00F050D
:104BD000AD00C5F1000A0F4651460446FDF740FE00
:104BE000002875D12389032B72D963681B78082BA1
:104BF0006ED1DFF8EC90D9F800803946404600F0DD
:104C000047FA002864D108F0F008B8F1E00F5FD04F
:104C10002389072B5CD9204600F0A1F8002857D142
:104C200020462221ADB2FDF71BFEF8B120462946F1
:104C3000FDF716FE024600284AD102202189FDF721
:104C400063FE8046002843D02146FDF729FF002857
:104C50003ED140465146D8F80460FDF701FE0028D9
:104C600036D12046FDF728FE444605E020466FF089
:104C70002101FDF7F5FD58BBD9F800306268F360FB
:104C8000164B1B6833610023137053884FF6F6717F
:104C90008B428CBF0933083353804FF0FF08002349
:104CA000B372F372142186F80880304600F051F890
:104CB000294670812046FDF7D3FD024640B9012305
:104CC00000900193029720460549434600F04EF9B3
:104CD000204604B0BDE8F047FDF7EEBDB4810020EA
:104CE000B88100200A4604300321FFF72EBF0A4690
:104CF00004300B21FFF729BF13B5002310F0010486
:104D0000ADF8063007D09942C1BF03788DF807305F
:104D100001F1FF3101300022012904DD30F8023BAE
:104D200002391A44F8E704BF03788DF80630BDF85D
:104D30000630D01883B203EB104083B203EB10406F
:104D400024B103029BB2C0F30720184380B202B023
:104D500010BD08B5FFF7D0FFC04380B208BD70B5E5
:104D6000002506462C46AEB170687189FFF7C4FF76
:104D700073893668204484B2DB0704EB104441BFDA
:104D80002302C5F101059BB2C4F3072444BFEDB271
:104D90001C43E8E725B123029BB2C4F307241C435C
:104DA000E04380B270BD00000C4B1B685BB193F810
:104DB0002D20D207F9D5596802684A4099680A42FD
:104DC000F3D1184609E0064B186830B190F82D3041
:104DD00013F0010F08BF002070477047408100208A
:104DE000448100202DE9F84F456895F800804FEA8E
:104DF0001813042B04460F4603D02046FDF75CFD34
:104E0000A7E06888FCF799FD08F00F0863894FEA6E
:104E1000880843450646F0D323898342EDD32846CC
:104E20004146FFF796FF0028E7D131462046FDF7BF
:104E3000EBFD494A2B691360484BE96819603E460F
:104E40004FF0010B91469A4696F82D30DB0705D4BA
:104E5000BBF1000F0FD0424B1E680DE07368002BB2
:104E6000F6D0D9F80000984262D0314600F010F92F
:104E70000028EDD05CE03668BE4208BF36684FF0CF
:104E8000000B002EE0D16B7A112B51D1A844B8F859
:104E90000230B3F5884F4BD13E46002EADD0EB88A3
:104EA00023F0C00333B1204600F0B0F904460028D7
:104EB0004FD04568DFF8B0802A4EC8F80070204611
:104EC00039463560FDF76EFE48BB6B7A062B0DD078
:104ED000112B06D0012B0ED120463946FFF772FE6A
:104EE0001DE020463946FFF77BFC18E02046394696
:104EF000FEF70AFD13E0D9F80000394600F0C8F8C3
:104F000050B9154B1B6803F0F003E02B04D065602B
:104F100020460221FFF7E6FE2046FDF7CDFC0023E8
:104F2000C8F800303360CAF80030C9F8003010E02B
:104F3000DAF800000028B0D0394600F0A9F80028BF
:104F40007FF45BAF054B1B6803F0F003E02BA4D1AB
:104F500053E70020BDE8F88FB8810020B48100201D
:104F600040810020AC810020BC8100202DE9F04F61
:104F700085B080468A461F469DF838509DF83CB063
:104F8000DDF840901646002A46D01421FDF768FC53
:104F90000090002859D1D8F80440277284F809B04D
:104FA0003368236147EA0B2B9FB207EB1347452376
:104FB00023706570B8F808002D021D43FCF7BAFC99
:104FC000244B009A60800190A271E27118880093CE
:104FD000FCF7B0FC009BA0801A88019901321A806E
:104FE000BAF1000F02D0DAF800301BB9D9F804206A
:104FF000E26000E0E360E36817FA83F707EB13472A
:105000002F44BB445944084483B203EB104000EBE7
:105010001040C043608104E0436804AE1B6946F859
:10502000043DB9F824304BB1B8F808209A4205D9AC
:1050300040464946324600F051FA07E0D9F81430AC
:10504000484641463246984700E0FE2040B205B04F
:10505000BDE8F08FB0810020F0B5074685B010465E
:105060000E4614461D46FFF79FFE68B19DF8283096
:1050700000939DF82C300193029031463846224629
:105080002B46FFF773FF00E0FC2040B205B0F0BDF7
:10509000431E0333024614D891F82D3003F0020367
:1050A00003F0FF0083B1486882420CD08B68504007
:1050B000184208D1DB4302EA0300C31A58425841A0
:1050C0007047012070470020704710B504464069C2
:1050D00008B1FDF7F1FB21460620BDE81040FDF7C1
:1050E000D1BA00002DE9F041466873689A880446F9
:1050F0000F46BAB91A68426000F11C0100F10802BB
:1051000052F8040B43F8040B8A42F9D130460121CE
:10511000FFF7EDFD3046FDF79CFC85B23046FDF70C
:10512000CBFB00E00025666866B173683046D3F8B3
:105130000080FDF78EFC284485B23046FDF7BCFBAD
:105140004646F1E70A4B1A68A24216BF2368226856
:105150003B604FF00500214608BF1A60FDF792FA48
:10516000044A13885B1B13802846BDE8F08100BF0A
:10517000C0810020C4810020F8B506460F460025F6
:10518000174B00241B6821462046F3B1D6F80CE0EB
:105190005A69724509D1D6F810E09A69724504D16E
:1051A000B3F80CE0B288964509D0013430B193F8D9
:1051B0001FE0C27F964598BF184600E018461A685F
:1051C000002A18BF19461346DFE710B1FFF78AFF20
:1051D0000544BD4201DA012CD2DC2846F8BD00BFEF
:1051E000C081002038B5084B1868002458B1C37F2F
:1051F00005681BB1013BC377044602E02146FFF777
:1052000071FF2846F2E738BDC08100202DE9F74F35
:105210004468237803F00F03052B054648D1E08846
:10522000AC4EFCF78AFB82466088FCF786FB23784D
:10523000019383462846FDF70CFC338803440A2B70
:10524000804605DCA44F0023D7F80090009312E0BD
:1052500020464146FFF790FF50B3338843440A2B62
:10526000F0DD25E0E268D9F81410914207D0CDF8BE
:105270000090D9F80090B9F1000FF3D10AE022694B
:10528000D9F818109142F2D1B9F80C10A2889142C5
:10529000EDD111E00520FDF7E5F98146002840F049
:1052A000F38020464146FFF767FF404580F2E580E6
:1052B0002846FDF701FB09E1E088FCF73EFBC0F35F
:1052C0000C0088B9B9F80E00FCF737FBC0F30C00EE
:1052D00050B1224609F1080104F1140052F804EB20
:1052E00041F804EB8242F9D132889044A6F800805C
:1052F000E288910610D499F81E20019B42F0010229
:1053000089F81E2003F00F02C2EB82320BEB820BF6
:105310000BEBCA0AA9F81CA0D5F80480B8F8020063
:10532000FCF70BFB98F8002002F00F02C2EB823270
:1053300000EB820084B2B8F80600FCF7FEFAC0F376
:105340000C00C0006968D9F804C0888004440022B9
:10535000A4B20A704A708A70CA70CC800123BCF172
:10536000000F00F0AA80DCF80480B8F804A05045D3
:105370000AD2C1F800C0AAB1B2F806C084452CD840
:1053800054452AD815600FE027D0B8F806C08445E8
:1053900023D81AB1D288524518BF0023D8F800C0CC
:1053A0004246DCE7C9F8045099F81E20D20740F1C4
:1053B0008D80002B00F08A80D9F804205468A288E0
:1053C000002A40F083800A6872B15068C9888288D8
:1053D00091427BD102680146F6E72846FDF739FB8A
:1053E0003388181A308063E7B9F81C202568143216
:1053F000A9F81C20214609F1080209F11C0052F805
:1054000004EB41F804EB8242F9D1B9F81C00FCF737
:1054100091FA00226080A271E271A272E2722046CB
:105420001421FFF796FC6081D9F804406DB1D5F8DE
:10543000048028466FF01301FDF712FA2946204632
:10544000FDF714FBD8F80050F0E73A684A4513BF5F
:10545000009B214AD9F80010D9F800200CBF116038
:105460001A6005204946FDF70DF92046FDF7F1FACF
:105470003388181A3080204629E00520FDF7F2F81D
:10548000814600283FF414AF00212022484600F056
:105490004EFD032289F81F203A68C9F80020C7F89A
:1054A0000090224609F1080104F1140052F804EBBF
:1054B00041F804EB8242F9D116E7002A3FF472AFBB
:1054C0001560D288824218BF00236DE7002003B028
:1054D000BDE8F08FC4810020C08100202DE9F04F8D
:1054E0008DB08B8C05934368099203930546D88849
:1054F0008B46FCF722FAC0F30C0300F40050029331
:1055000083B20793059B2C89143B082293FBF2F38B
:105510009BB20693DB009BB2143C0893A4B2002319
:105520001426002C00F09580029A0A93C2F30C0A0C
:10553000079A42EA0A020492059A133AA242DFBF8E
:10554000049ADDF820A042F4005204924FF00200C9
:105550004FF014014FF00002C8BFA246FDF7D4F986
:105560008046002877D0039A0A9B416802F1140014
:1055700052F8047B41F8047B8242F9D16A68D8F87A
:10558000049032446A606A89961B6E8157461E46B3
:10559000B7B36E89BE4228BF3E46B6B276B3062088
:1055A000FDF760F8844688B16B68CDF828C08DE8B7
:1055B00048000320634631460222FDF727F9DDF853
:1055C00028C038B906206146FDF75CF84046FDF773
:1055D00073F940E00B902846CDF828C0FDF741FA5A
:1055E000DDF828C01E4BCCF81450BF1BCCF810308F
:1055F00040460B99BFB2FDF739FA0FB12D68C7E7E6
:105600000498FCF797F9A9F806000AF1140080B293
:10561000FCF790F91421A9F8020089F80A7089F8BA
:105620000B704846FFF795FBDBF81430099AA9F890
:105630000A004146584698474046FDF73DF9029B0F
:10564000069A13449BB2CAEB04040293A4B23346F5
:1056500067E7204600E0FF2040B20DB0BDE8F08FC4
:10566000CB50000837B50023019341F218040368BA
:105670001A5942F480121A5105461B590193012010
:10568000FBF75EF92B68019A1A5103B030BD000098
:1056900070B5044629B14FF40063C3604FF48043F2
:1056A0008360E3692168E2680D68002BA36842EA21
:1056B0000302364B42F4007203EA05030CBF4FF4B9
:1056C00080600020134303430B6001200D68FBF74B
:1056D00037F9236840221D6001205A605D68FBF79E
:1056E0002FF923685D6000259D60DD6099694FF6A4
:1056F00041720A4042F080029A6101209E69FBF7E4
:105700001FF9236801209E61DD61DD69FBF718F94F
:1057100022681F4BD56141F21805012051590B40F9
:1057200043F0087343F0040353515659FBF708F94B
:105730002368184A5E5103F5805301201A601D68E2
:10574000FBF7FEF8226802F580531D60A369012B68
:1057500001BF41F21C01535843F4803343F040032E
:1057600008BF5350636959791A7942EA01220A49FC
:105770000A609A78D978120442EA01611A785B7853
:105780000A4342EA0323054A136070BD0F8120FFDC
:10579000233FDEF88020C102408002404480024066
:1057A00070B590F84540012C4FF0020432D001252D
:1057B00080F8455080F84440C16201F12004002582
:1057C0009D421BD04FF4801644F8206C40F2F456F2
:1057D00006FB052644F8186CC6692EB954F8206CEF
:1057E00046F4400644F8206C5E1EB5422CBF0E46BF
:1057F000264644F8146C01352034E1E7026841F292
:105800001003D150012380F84430002380F8453044
:10581000184670BD204670BD70B590F84540012C0B
:105820004FF002042ED0012580F8455080F8444006
:10583000816201F1200400259D4217D04FF00046FF
:1058400044F8206C44F2F45644F81C6C40F2F456D0
:1058500006FB052644F8186C5E1EB5422CBF0E46AA
:10586000264644F8146C01352034E5E7026841F21D
:105870000C03D150012380F84430002380F84530D8
:10588000184670BD204670BD90F84530012B30B5EC
:105890004FF002036BD0012280F8452080F844309D
:1058A00021B980F8442080F8451009E0C36A1C68DB
:1058B000002C07DA122380F84430002380F84530AA
:1058C000104630BD40F2F454A14211D9B1FBF4F2BC
:1058D00004FB12140CB1013201E0012A08D0254C5E
:1058E00001F2F45104FB0211C1F30C0100241FE08A
:1058F0001A6842F040521A601A68C1F30C0142F073
:10590000004259601A60DB681DE040F2F4555D60AA
:10591000551EAC4201BF1D68596045F000551D6021
:105920001D68013445F0004594421D60DB680AD0D3
:105930001D6825F040551D60002CE6D11D6845F01E
:1059400080551D60E1E741F21402C3620368995873
:10595000490741BF0421995041F20402002148BF88
:105960009950012380F84430002380F845301846D0
:1059700030BD00BF0CFAFFFF90F84530012B30B569
:105980004FF0020335D080F84430836A1A6801244E
:10599000002A80F8454026DB1A68D96812F4807224
:1059A00016D0826B43632244A24208BF03631B6884
:1059B0008263C3F30D43043BC363036B9B680364BF
:1059C000012380F844300023816280F8453010E0E4
:1059D0001D688162AD0555BF836B0363013342636C
:1059E0004CBF846383630123002280F8443080F835
:1059F0004520184630BDF8B590F84430822B054656
:105A0000164630D00268822380F84430146904F0CE
:105A10001C03048AE402A4B289011C4301F4F86166
:105A20000C4344F001041461FAF784FF074614F0B4
:105A3000010010D0FAF77EFFC01BB0F5803F07D3FE
:105A4000012385F84430002385F845300320F8BD54
:105A50002B681C69EBE72B685B699BB23360012301
:105A600085F84430F8BD0220F8BD90F84430422B50
:105A700070B505462ED0422380F8443000682B8A4A
:105A80000469DB0204F01C049BB244F003048901A6
:105A90001C4301F4F8610C4392B242610461FAF7CD
:105AA00049FF064614F0010010D0FAF743FF801BAF
:105AB000B0F5803F07D3012385F84430002385F8F3
:105AC0004530032070BD2B681C69EBE7012385F886
:105AD000443070BD022070BD73B5002300930446AE
