:020000040800F2
:100000000000022061100008B1100008B1100008C3
:10001000B1100008B1100008B11000080000000085
:10002000000000000000000000000000B110000807
:10003000B110000800000000B110000835030008EE
:10004000B1100008B1100008B1100008B11000088C
:10005000B1100008B1100008B1100008B11000087C
:10006000B1100008B1100008B1100008B11000086C
:10007000B1100008B1100008B1100008B11000085C
:10008000B1100008B1100008B1100008B11000084C
:10009000B1100008B1100008B1100008B11000083C
:1000A000B1100008B1100008B1100008B11000082C
:1000B000B1100008B1100008B1100008B11000081C
:1000C000B1100008B1100008B1100008B11000080C
:1000D000B1100008B1100008B1100008B1100008FC
:1000E000B1100008B1100008B1100008B1100008EC
:1000F000B1100008B1100008B1100008B1100008DC
:10010000B1100008B1100008B1100008B1100008CB
:10011000B1100008B1100008B1100008B1100008BB
:1001200045030008B1100008B1100008B110000824
:10013000B1100008B1100008B1100008B11000089B
:10014000B1100008B1100008B1100008B11000088B
:10015000B1100008B1100008B1100008B11000087B
:10016000B1100008B1100008B1100008B11000086B
:10017000B1100008B1100008B11000080000000024
:10018000B1100008B110000810B5054C237833B940
:10019000044B13B10448AFF300800123237010BD5A
:1001A0003802002000000000A0580008084B10B5DD
:1001B0001BB108480849AFF300800848036803B939
:1001C00010BD074B002BFBD0BDE81040184700BF07
:1001D00000000000A05800083C020020340200206B
:1001E00000000000194B10B51A6C42F080521A64DE
:1001F0001B6C8EB003F080530093009B144B1A6865
:1002000042F480421A601B6803F480430193019B0F
:100210000223029301230024059302A810230693CE
:10022000089400F037FC00F0FDFD4FF47A73B0FB4A
:10023000F3F000F01BFB042000F02EFB4FF0FF302A
:100240002146224600F0D6FA0EB010BD003802401A
:100250000070004070B5ADF5805D82B000F08CF8A4
:10026000FFF7C0FF2E492F48012602232024CB6030
:1002700081E850008E6000F021FB214629482A4C7D
:10028000324600F0FFFB294B1A6B32431A631A6B9C
:1002900032400092009A1A6B42F480021A631B6B80
:1002A000002103F480030A4601933820019B00F0EB
:1002B000A1FA382000F0CEFA1D4B26610025204619
:1002C00084E82800A560A66165622563E560266272
:1002D000E561666100F086F8204602A90295039662
:1002E000049500F0E5F9204600F018F998B9204689
:1002F00002A94FF4006200F065F960B9029BB3F502
:100300007A7F03D90748202100F0C0FB4FF4FA7030
:1003100000F05AF8F2E700200DF5805D02B070BDE4
:100320005402002000000240C002002000380240B9
:100330000020014008B500F039F8BDE8084000F0A1
:10034000B8BA0000014800F0B5BD00BF6802002047
:10035000704710B5044600F065FD4FF47A73B0FBAA
:10036000F3F000F083FA4FF0FF302146002200F056
:1003700041FA002010BD000008B50B4B1A6842F48A
:1003800000721A601A6842F480621A601A6842F4B5
:1003900080721A60032000F01BFA0F20FFF7D9FFCC
:1003A000FFF7D6FF002008BD003C0240024A136858
:1003B00001331360704700BF04030020014B18682D
:1003C000704700BF0403002013B50190FFF7F6FF4C
:1003D0000446FFF7F3FF019B001B9842F9D302B0DC
:1003E00010BD704710B50446002800F0918090F8C9
:1003F0003D3003F0FF021BB980F83C20FFF7F1FF0E
:10040000022384F83D30434B5A6822F440325A604C
:10041000596862680A435A60236821695A6822F45D
:1004200080725A605A6842EA01225A605A6822F081
:1004300040725A605968A2680A435A609A6822F466
:1004400000629A609968E2680A439A603249E26AF7
:100450008A420ED0996821F07061996099680A43C8
:100460009A609A6822F040529A609968226B0A4317
:1004700006E09A6822F070629A609A6822F0405210
:100480009A609A68A16922F002029A609A6842EA28
:1004900041029A60626A9AB15A6842F400625A60F4
:1004A0005A6822F460425A604FF4604191FAA1F117
:1004B000A26A5868B1FA81F1013A8A40024302E027
:1004C0005A6822F400625A60DA6A22F47002DA6230
:1004D000226AD96A013A41EA0252DA629A68E1690B
:1004E00022F400729A609A6842EA41229A609A68FD
:1004F000616922F480629A609A6842EA81229A6075
:1005000000200123206484F83C0084F83D3010BDB5
:10051000012010BD002301400100000F82B0002324
:10052000019390F83C30012B3ED0012380F83C3001
:1005300090F83D300268222B0CBF3223122380F842
:100540003D309368DB0708D51A49002380F83C301A
:10055000486810F01F0012D01AE09368164943F063
:1005600001039360154B1B68B3FBF1F303EB4303EB
:100570000193019B002BE7D0019B013BF8E79368B7
:1005800013F0405313D1916841F0804191600DE028
:100590000B498A420AD1906810F0405006D1936806
:1005A00043F08043936002E0022000E0184602B06E
:1005B000704700BF0023014040420F008801002027
:1005C0000020014073B5134690F83C200025012A15
:1005D00004460E4601953CD00168012280F83C207B
:1005E0004A68806B42F080624A608A6842F4807296
:1005F0008A60194AC263194A0264194A82644C31FA
:10060000324600F029FC122384F83D30236884F838
:100610003C509A68D20705D5986810F0405013D026
:10062000002017E09A680F4942F001029A600E4AD2
:100630001268B2FBF1F202EB42020192019A002A27
:10064000EAD0019A013AF8E79A6842F080429A604B
:1006500000E0022002B070BD6F0600088B060008A3
:100660009706000840420F00880100207047806B09
:1006700008B590F83D30252B0CBF3523152380F8A5
:100680003D30FFF7F3FF08BD704708B5806BFFF7FB
:10069000FBFF08BD7047806B08B5042380F83D3030
:1006A000036C43F002030364FFF7F4FF08BD00008E
:1006B000F7B50023019390F83C30012B63D00D680F
:1006C0008A680123092D80F83C30ACB203680FD949
:1006D00004EB4406DF681E3E4FF0070E0EFA06FEDE
:1006E00027EA0E07DF60DF68B2403A43DA600DE0C8
:1006F0001F6905EB450E072606FA0EF627EA0606E1
:100700001E611E6902FA0EF232431A614A68062A15
:100710004FEA82010CD80A445E6B053A1F219140D2
:1007200026EA01015963596B94400C435C631AE05B
:100730000C2A0CD80A441E6B233A1F21914026EA4A
:1007400001011963196B94400C431C630BE00A44CC
:10075000DE6A413A1F21914026EA0101D962D96A35
:1007600094400C43DC62164A934204D0002380F884
:100770003C30184622E0122D07D1124A536843F448
:100780008003536001E0022018E0A5F11003012B63
:10079000ECD80C4A5368102D43F400035360E5D1A4
:1007A000094B0A4A1B68B3FBF2F20A235343019335
:1007B000019B002BDAD0019B013BF8E703B0F0BDB1
:1007C00000200140002301408801002040420F002A
:1007D000074AD36823F4E0631B041B0C43F0BF6398
:1007E00043F4003300F0070043EA0023D36070476E
:1007F00000ED00E0154BDB68C3F3022370B5C3F1D5
:1008000007051C1D042D28BF0425062C8CBF033BA7
:100810000023012404FA03F6AC40013C013E2140D0
:1008200099403240002842EA01024FEA0212AFBF6B
:1008300000F1604000F00F00054BD2B2A5BF00F5FB
:100840006140D2B21A5480F8002370BD00ED00E080
:1008500014ED00E04109012300F01F00024A83402B
:1008600042F82130704700BF00E100E00138B0F1EC
:10087000807F3FBF064B074A5860F0213FBF82F898
:10088000231000200722986034BF1A6001207047AF
:1008900010E000E000ED00E0044B1A6804280CBFF3
:1008A00042F0040222F004021A60704710E000E0F7
:1008B000704708B5FFF7FCFF08BD00002DE9F341C4
:1008C0000F6800220123934003EA07059D4240F090
:1008D000CB804C6824F0100CBCF1020F14D14FEA0D
:1008E000D20E00EB8E0E02F00706DEF82030B600C6
:1008F0004FF00F0808FA06F823EA08080B69B3401E
:1009000048EA0303CEF820304FEA420E032306687C
:1009100003FA0EF3DB4303EA060804F0030606FAC3
:100920000EF60CF1FF3C48EA0606BCF1010F06602A
:1009300011D8866803EA060CCE6806FA0EF64CEA71
:1009400006068660466826EA050CC4F30016964043
:100950004CEA06064660C66803EA060C8B6803FA92
:100960000EF64CEA0603C360E3007DD5424B5E6C95
:1009700046F480465E645B6C22F0030606F1804616
:1009800003F4804306F59C36019302F0030C019BAF
:10099000D6F808E04FEA8C0C0F2303FA0CF32EEA8A
:1009A000030E364B984222D003F58063984220D044
:1009B00003F5806398421ED003F5806398421CD0F3
:1009C00003F5806398421AD003F58063984218D0EB
:1009D00003F58063984216D003F58063984214D0E3
:1009E00003F5806398420CBF082309230EE000231F
:1009F0000CE001230AE0022308E0032306E00423BD
:100A000004E0052302E0062300E0072303FA0CF3C9
:100A100043EA0E03DFF868E0B360DEF80030EE432F
:100A200014F4803F14BF2B433340CEF80030DEF87F
:100A30000430DFF84CE014F4003F14BF2B43334084
:100A4000CEF80430DEF8083014F4801F14BF2B43B6
:100A50003340CEF80830DEF80C30A40254BF06EA6A
:100A600003051D43064BDD600132102A7FF42AAFD7
:100A700002B0BDE8F08100BF003802400000024033
:100A8000003C014002B90904816170474369594043
:100A9000416170470368F7B50446D80703D423685B
:100AA00099074CD499E08A4B9A6802F00C02042A08
:100AB00007D09A6802F00C02082A0BD15B685A0230
:100AC00008D5834B1B689B03E9D56368002BE6D1EF
:100AD000012061E17F4D00232B70FFF76FFC06467C
:100AE0007B4B1B689F0308D5FFF768FC41F28833F6
:100AF000801B9842F4D903204EE123792B70636860
:100B000073B1FFF75BFC0546714B1B689E03C6D4AF
:100B1000FFF754FC41F28833401B9842F4D9EAE7CE
:100B2000FFF74CFC05466A4B1B689803B7D5FFF7E7
:100B300045FC41F28833401B9842F4D9DBE7644B13
:100B40009A6812F00C0F07D09A6802F00C02082A7B
:100B500016D15B68590213D45D4B1A68920702D50F
:100B6000E268012AB4D11968F82090FAA0F022694D
:100B7000B0FA80F021F0F80182400A431A602CE0BC
:100B8000E268554BDAB101221A60FFF717FC0546FF
:100B90004F4803689F0705D4FFF710FC401B6428EB
:100BA000F6D9A8E70268F82191FAA1F12369B1FA10
:100BB00081F122F0F8028B40134303600DE01A60CC
:100BC000FFF7FCFB0546424B1B689E0705D5FFF768
:100BD000F5FB401B6428F6D98DE723681D0703D475
:100BE000236858074BD51FE062693C4B72B1012264
:100BF0001A60FFF7E3FB0546354B5B6F9907EFD4AF
:100C0000FFF7DCFB401B6428F6D974E71A60FFF796
:100C1000D5FB05462E4B5B6F9A07E1D5FFF7CEFB60
:100C2000401B6428F6D966E7294B1A6C42F08052C3
:100C30001A641B6C2A4A03F080530193019B1368CA
:100C400043F480731360FFF7B9FB0546244B1B6820
:100C5000DB0517D5234D00232B70FFF7AFFB0646AE
:100C60001B4B1B6F9F0713D4237A2B70A368FBB118
:100C7000FFF7A4FB0546164B1B6F9E0710D5A26914
:100C800092BB6EE0FFF79AFB401B6428DED932E787
:100C9000FFF794FB41F28833801B9842E0D92AE7A2
:100CA000FFF78CFB41F28833401B9842E3D922E7DF
:100CB000FFF784FB0546064B1B6F9807DFD5FFF750
:100CC0007DFB41F28833401B9842F4D913E700BF03
:100CD000003802400238024000004742800E47427E
:100CE00000700040703802402C4B9B6803F00C03EE
:100CF000082B3FF4EDAE2A4D0023022A2B603ED193
:100D0000FFF75CFB06462548036899012BD447F69C
:100D1000C07797FAA7F74FF44036B7FA87F796FAF5
:100D2000A6F64FF07061B6FA86F691FAA1F1E36982
:100D3000226AB1FA81F11A43636ABB401A43A36A7B
:100D40005B08013BB3401343E26A8A4013434360AC
:100D500001232B60FFF732FB0446104B1B689A01FE
:100D600007D5002018E0FFF729FB801B6428CAD9AB
:100D7000C1E6FFF723FB001B6428EED9BBE6FFF7B3
:100D80001DFB0446054B1B689B01EAD5FFF716FBCC
:100D9000001B6428F6D9AEE603B0F0BD003802406F
:100DA0006000474210B51C4CA36803F00C03042BF1
:100DB0002ED0082B2ED1626802F03F03626847F6FE
:100DC000C07112F4800F626891FAA1F147F6C07009
:100DD00000EA020008BF114AB1FA81F120FA01F0DD
:100DE0000EBFB2FBF3F20E49B1FBF3F202FB00F3CC
:100DF000094A50684FF4403292FAA2F200F44030AF
:100E0000B2FA82F2D04001304000B3FBF0F010BDE6
:100E1000034810BD014810BD003802400024F40012
:100E200040787D0108B5FFF7BDFF084BF0229B68B5
:100E300092FAA2F203F0F003B2FA82F2D340044A2B
:100E4000D35CD840034B186008BD00BF0038024097
:100E5000D85500088801002030B590F83440012CA6
:100E60004FF0020423D080F835400468012580F853
:100E70003450256825F001052560256825F4802576
:100E8000256063608368402B0BBFA260A160E160B6
:100E9000E260236843F01E032360636943F080032C
:100EA0006361236843F001032360002030BD2046C6
:100EB00030BD000070B5056D416D2A6808238B4078
:100EC0001342044615D0026811684E0711D5116807
:100ED00021F004011160AB60C36C43F00103C364F3
:100EE000042380F83530002380F83430836C03B15C
:100EF0009847616D454B2A688B40134216D0226893
:100F00005169090612D5516921F080015161AB6028
:100F1000E36C43F00203E364042384F835300023D8
:100F200084F83430A36C0BB120469847616D384B80
:100F30002A688B40134216D0226811688E0712D59A
:100F4000116821F002011160AB60E36C43F004030F
:100F5000E364042384F83530002384F83430A36C30
:100F60000BB120469847616D2B6810228A401A42C7
:100F70001ED02368196808071AD51968490308D5CF
:100F8000AA601A6812030CD51B681E030CD54123F6
:100F900008E01968C8055EBF196821F008011960EA
:100FA000AA60312384F83530236C0BB12046984772
:100FB000616D2B6820228A401A4226D02368196866
:100FC000C90622D519684E0309D5AA601A68150307
:100FD00001D4636C14E01B68180316D50FE0196880
:100FE000C9055EBF196821F010011960AA60E36CA1
:100FF000E364112384F83530002384F83430E36B44
:101000001BB12046BDE87040184770BD010080004C
:10101000040080000F49D1F8883043F47003C1F810
:1010200088300D4B1A68002042F001021A60986067
:101030001A6822F0847222F480321A60074A5A60D9
:101040001A6822F480221A60D8604FF000638B6027
:10105000704700BF00ED00E000380240103000246F
:10106000DFF834D0002103E00C4B5B5843500431CF
:101070000B480C4B42189A42F6D30B4A02E000236D
:1010800042F8043B094B9A42F9D3FFF7C3FF00F043
:1010900011F8FFF7DFF8704700000220A45800089D
:1010A00088010020380200203802002018030020A8
:1010B000FEE7000070B50E4B0E4CE41AA41000259C
:1010C0001E46A54204D056F8253098470135F8E76A
:1010D00004F076FA084C094BE41AA41000251E46C9
:1010E000A54204D056F8253098470135F8E770BD81
:1010F0002C0200202C020020300200202C020020B4
:1011000010B5431E0A44914204D011F8014B03F874
:10111000014FF8E710BD02440346934202D003F8A2
:10112000011BFAE770472DE9F04788B0002B149FA8
:101130001299109EDDF84CA01D46B8BF05F1004382
:1011400027F02007B6BF1D4600232D231446B8BF45
:101150001446462F0B7003D0452F03D1013601E012
:10116000032300E002238DE8480406AB039307AB9A
:10117000049322462B4601F0DFFD472F804602D123
:10118000119BDB0726D5462F08EB060911D198F8ED
:101190000030302B0AD1204629460022002304F0DB
:1011A00037F918B9C6F10106CAF80060DAF800305C
:1011B0009944204629460022002304F029F908B169
:1011C000CDF81C90079B4B4504D25A1C0792302245
:1011D0001A70F7E7079B159AC8EB030340461360A4
:1011E00008B0BDE8F08773B503460029B8BF49428F
:1011F00003F8022BB4BF2D222B220929427019DDDE
:101200000DF1070426460A2291FBF2F502FB1511A7
:101210003031092D04F8011D2946F4DC3031651EFA
:1012200004F8011CB5421A460AD215F8012B03F83E
:10123000012BF7E730241A46214402F8024B59707B
:10124000101A02B070BD00002DE9F04F91B08B462E
:1012500015461E461A9F044602F03EFED0F800A036
:10126000504600F005FE00230E933B6809900733BB
:1012700023F0070303F108029BF818803A60D3E9D2
:101280000023CBE91223DBE9120100F09FFD0128C6
:10129000DBE9120119D10022002304F0C3F810B1D8
:1012A0002D238BF84330A04BA04FB8F1470F88BFD8
:1012B0001F460323CBF81030DBF8003023F0040383
:1012C000CBF800304FF00009A1E000F07FFDDBF823
:1012D000003048B9964A974FB8F1470F88BF174674
:1012E0000322CBF81020E9E7DBF804209BED127B0A
:1012F000571C8DED0A7B01D1062209E0B8F1670F7A
:1013000002D0B8F1470F05D1002A40F0C781012271
:10131000CBF80420DBF80420CDF8108043F4806380
:101320008DE80C00CBF800300DF1330302930DABC8
:1013300003930EAB0593002306932046DDE90A23B1
:10134000FFF7F1FE08F0DF03472B07460AD10D9B9C
:10135000D81C03DBDBF80420934237DDA8F1020838
:101360005FFA88F8B8F1650F0D9915D80139424632
:101370000BF150000D91FFF736FF0E9A8318012AEA
:101380008146CBF8103003DCDBF80020D10738D5DC
:101390000133CBF8103034E0B8F1660F18D10029D2
:1013A000DBF8043009DDCBF810101BB9DBF80020A6
:1013B000D20721D501330B441CE01BB9DBF8002018
:1013C000D00701D5023315E0012313E04FF0670881
:1013D0000D9B0E9A934207DBDBF80020CBF8103010
:1013E000D10709D5013305E0002BD4BFC3F10203B7
:1013F00001231344CBF810300D9BCBF858304FF03D
:1014000000099DF8333013B12D238BF8433000963B
:10141000204659460FAA2B4600F05CF9013002D154
:101420004FF0FF3052E1DBF800305A0505D420467A
:1014300029463A46DBF8103008E1B8F1650F40F272
:10144000D080DBE912010022002303F0E1FF50B35A
:1014500020462946384A0123B0470130E0D00E9B90
:101460000D9A9A4209DBDBF80030D80705D4DBF887
:1014700000309F0700F1108107E1204629465246BF
:10148000099BB0470130CBD000270E9B013B9F4208
:10149000EDDA204629460BF11A020123B04701304C
:1014A000BED00137F1E70D9B002B29DC20462946F1
:1014B000214A0123B0470130B2D00D9B2BB90E9BBE
:1014C0001BB9DBF80030D907D1D520462946524652
:1014D000099BB0470130A3D04FF000080D9B5B4241
:1014E00098452046294608DA0BF11A020123B04735
:1014F000013095D008F10108F0E73A460E9BA5E0CF
:10150000DBF858200E9B9A42A8BF1A46002A914643
:1015100002DC4FF000081CE0204629463A464B46C4
:10152000B0470130F5D17BE7EE550008EA550008D9
:10153000F6550008F2550008FA55000820462946DD
:101540000BF11A020123B04701303FF469AF08F1F3
:101550000108DBF85830B9F1000FACBFC9EB03024A
:101560001A469045EADB07EB03080D9A0E9B9A4258
:1015700010DBDBF80030DA070CD40E9A1744C8EB06
:1015800007030D9FD21B9342A8BF1346002B1F4693
:1015900008DC0EE0204629465246099BB047013040
:1015A000EBD13DE7204629464246B04701303FF4A3
:1015B00037AF4FF000080AE0204629460BF11A0227
:1015C0000123B04701303FF42BAF08F101080D9A19
:1015D0000E9B002FA3EB0203A8BFDB1B9845EBDBA0
:1015E00045E70E9A012A01DCDB0736D5204629465D
:1015F0003A460123B04701303FF412AF2046294656
:101600005246099BB04701303FF40AAFDBE91201B3
:101610000022002303F0FCFEE8B90E9B2046294679
:101620007A1C013B1DE0204629460BF11A020123DA
:10163000B04701303FF4F4AE01370E9B013B9F42AF
:10164000F1DB204629460BF150024B46B0470130F2
:101650007FF40DAFE4E60027EFE7204629463A463F
:101660000123B0470130ECD1DAE6204629460BF1E0
:1016700019020123B04701303FF4D2AE0137DBF845
:101680000C300F9A9B1A9F42EFDBDBF80C000F9B8C
:101690009842B8BF184619E00027F0E743F480638A
:1016A0008DE80C00CBF800300DF1330302930DAB45
:1016B00003930EAB059300230693CDF810802046CC
:1016C000DDE90A23FFF72FFD074640E611B0BDE82C
:1016D000F08F00BF2DE9F84391461F468A680B69D9
:1016E000DDF820809342B8BF1346C9F8003091F866
:1016F000432006460C4612B10133C9F80030236876
:10170000990642BFD9F800300233C9F80030256885
:1017100015F006051CD094F843302268003318BF3A
:10172000012392061FD5E1185A1C302081F843008E
:10173000224494F8451082F84310023313E03046F7
:10174000394604F119020123C047013007D00135A1
:10175000E368D9F800209B1A9D42F0DBDBE74FF0ED
:10176000FF30BDE8F8833046394604F14302C047F4
:101770000130F4D02268D9F80050E36802F0060284
:10178000042A08BF5D1B2269A3680CBF25EAE57522
:1017900000259342C4BF9B1AED184FF00009A945DC
:1017A0000ADA3046394604F11A020123C0470130F3
:1017B000D5D009F10109F2E70020BDE8F883000067
:1017C0002DE9FF410C461746227E6E2A98460646B2
:1017D0000A9B01F1430100F0AF8012D8632A23D0A5
:1017E0000AD8002A00F0BC80582A40F0CB8084F848
:1017F0004520DFF804E257E0642A1ED0692A1CD095
:10180000C0E0732A00F0B08009D86F2A2ED0702A69
:1018100040F0B880226842F0200222603FE0752A42
:1018200024D0782A3BD0ADE01A68111D19601368E6
:1018300084F8423004F14205A8E020681A6810F0EC
:10184000800F02D0101D186008E010F0400F02F168
:101850000400186002D0B2F9003000E01368002BD9
:101860003EDA2D225B4284F8432039E020681A6872
:1018700010F0800F02D0101D186007E010F0400F2C
:1018800002F10400186001D0138800E01368227E82
:10189000DFF864E16F2A0CBF08220A221CE07822DC
:1018A000DFF858E184F845202268186812F0800FAC
:1018B00000F104051D6003D1550601D5038800E041
:1018C0000368D00744BF42F0200222601BB922689F
:1018D00022F0200222601022002084F8430002E05F
:1018E000DFF814E10A226568A560002DA2BF206818
:1018F00020F00400206003B965B10D46B3FBF2F09F
:1019000002FB10331EF8033005F8013D03460028A2
:10191000F4D100E00D46082A0BD12368DA0708D578
:10192000236962689A42DEBF302305F8013C05F165
:10193000FF35491B21612EE025681A68606915F0A2
:10194000800F03D0151D1D60136808E015F0400FCF
:1019500002F104051D60136801D0188000E01860D2
:10196000002323610D4616E01A68111D19601568E1
:1019700062682846002102F0BBFA08B1401B606093
:10198000636804E004F1420584F8422001232361E6
:10199000002384F84330CDF800803046214603AA66
:1019A0003B46FFF797FE013002D14FF0FF301FE0BA
:1019B000304639462A462369C0470130F5D02368AE
:1019C0009B0705D4E068039B9842B8BF18460FE018
:1019D0000025E368039A9B1A9D42F3DA30463946A4
:1019E00004F119020123C0470130DED00135F0E7D0
:1019F00004B0BDE8F08100BFFC5500080D5600089A
:101A00002DE9F04F99468B6815465A1EB2F5AE7F08
:101A100081BF6FF4AE7203EB020C40F25D138B607A
:101A20000B680F4643F4F06387B047F81C3B4FF058
:101A3000000B06460C4698BF4FF0000CB8465A46BD
:101A4000CDF80CB0CDF808B0DA46CDF804B0A168F6
:101A5000002900F0EC802B681B78492B70D016D839
:101A6000392B0DD8312B40D22D2B46D002D82B2B21
:101A700043D0DCE02E2B00F09280302B23D0D6E038
:101A8000452B00F09580462B77D0412B0CE0652B41
:101A900000F08E800AD8542B75D002D84E2B34D04B
:101AA000C5E0592B75D0612B46D0C0E06E2B2CD0F1
:101AB00004D8662B61D0692B42D0B8E0742B62D079
:101AC000792B66D0B3E0206810F4807F0DD020F031
:101AD000800020600AF1010ABCF1000F00F08A804A
:101AE00001310CF1FF3CA16084E012EB0B0F40F0E0
:101AF0009E80216821F4C07105E02168080640F14C
:101B0000968021F08001216070E06AB9BAF1000F7F
:101B10000CD1216801F4E060B0F5E06F06D121F44A
:101B2000F0612160012261E0022A5ED0BBF1010F69
:101B30001ED0BBF1040F1AE0012A78D1022255E031
:101B4000BBF1000F0ED1BAF1000F73D1216801F47F
:101B5000E060B0F5E06F71D121F4F06121604FF0E9
:101B6000010B43E0BBF1030F02D0BBF1050F5ED1C7
:101B70000BF1010B5FFA8BFB38E0BBF1020F56D182
:101B80004FF0030B32E0BBF1060F50D14FF0070BC3
:101B90002CE0BBF1070F4AD14FF0080B26E021687B
:101BA000880544D521F420712160CDF804A01DE002
:101BB000216801F4A060B0F5806F04D0480536D5E7
:101BC000BAF1000F3AD088055CBF0198CDF80C80BF
:101BD00021F4F06158BFC0EB0A0041F4C07158BF56
:101BE000029021604FF0000A00E0032288F80030E4
:101BF00008F10108A368013BA36023690133236155
:101C00006B68013B002B6B6003DD2B6801332B609D
:101C10001DE7D4F88031059230462946CDF810C032
:101C20009847DDF810C0059A00283FF410AFBAF1CC
:101C3000000F03D0236823F480732360013A012A44
:101C40000ED8B8450AD9D4F87C3118F8011D3046B1
:101C50002A4698472369013B2361F2E70125AEE05C
:101C60000BF1FF33062B22D8BBF1020F12D9ABF1D7
:101C7000030B5FFA8BFBCBEB080BD84517D0D4F8DE
:101C80007C3118F8011D30462A4698472369013BEC
:101C90002361F2E7B845E1D9D4F87C3118F8011D89
:101CA00030462A4698472369013B2361F2E72368BF
:101CB000DA052CD55B050CD5B845CFD9D4F87C31E5
:101CC00018F8011D30462A4698472369013B2361D5
:101CD000F2E718F8011C2369652903F1FF3308F1C5
:101CE000FF3B23610DD045290BD0D4F87C31304621
:101CF0002A469847236918F8021C013BA8F1020BF9
:101D00002361D4F87C3130462A469847D846256866
:101D100015F0100552D188F80050236803F4C06311
:101D2000B3F5806F05D1019BC3EB0A035A426BB92F
:101D300016E0029BA3B1039B2A46591C30460A2396
:101D400000F0E4FE029BDDF80C80C21A04F26F136F
:101D5000984528BF04F5B77840461B4900F064F861
:101D600030463946002200F0BFF82268D9F800302A
:101D700012F0020F06460F4603D01A1DC9F80020C4
:101D800006E012F0040F03F10402C9F8002003D0AA
:101D90001B68C3E900670DE0D3F8008000F016F877
:101DA00010B900F03DF803E03046394603F0AAFBD5
:101DB000C8F80000E3680133E36000E0002528462E
:101DC00007B0BDE8F08F00BF1E5600080A4631F08C
:101DD000004110B503461BD00F48A2F58014844281
:101DE00010D902F1FF420C4802F5E002824209D903
:101DF000B1F5801F08D3094A914207D1B3FA83F0A5
:101E0000400910BD042010BD032010BD002010BDEE
:101E10000028E6D1022010BDFFFFDF7F0000F07F29
:101E2000004870470000C07F0EB400B59CB04FF46E
:101E30000271ADF814106FF00041049107914FF654
:101E4000FF711DABADF81610084953F8042B029032
:101E500006900868019302A902F052FD029B00223D
:101E60001A701CB05DF804EB03B07047EC01002061
:101E7000034613F8012B002AFBD1181A01387047CA
:101E800030B5036811F8014B01334CB11A78A2F157
:101E90004105192D98BF2032A242F3D0002030BD59
:101EA0000360012030BD2DE9F0410F46904602F05D
:101EB000FBFA04460D46B8F1000F11D0C7F30A53E0
:101EC000C3F16B03002B0BDD1B0503F17F550024D1
:101ED00005F5401522462B4603F032F8BDE8F081A7
:101EE00020462946BDE8F0812DE9F04F9FB0002340
:101EF00083468A4616921A934FF000084FF0000965
:101F00001991199B1A780D2A05D8092A13D2002A8B
:101F100000F0BE8112E02B2A06D02D2A02D0202A02
:101F20000CD108E0012200E0002209925A1C19920B
:101F30005B782BB9ACE101331993E2E700230993F5
:101F4000199C2378302B5CD16378582B01D0782BE7
:101F50004CD11AAB0093099B0193584619A9B14A79
:101F60001BAB01F0F8FC10F00706054600F09B855E
:101F7000062E05D1013400231994099300F093BD76
:101F80001A9A3AB11CA8352102F07CFB58461A99DE
:101F900001F0F2FF1B9A062E21D8DFE806F0040DAF
:101FA00008171C0D04004FF00009C84617E0DDF8C3
:101FB0007080DDF8749012E01D9BDDF8708002F2F5
:101FC000334223F4801343EA025908E0DFF85892C1
:101FD0004FF0000803E06FF000494FF0FF38290789
:101FE00040F1618549F0004900F05DBD199B5A1C24
:101FF00019925B78302BF9D0002B00F05485012327
:1020000000E0002300260493199B059303963546B0
:10201000199C2778A7F13003DAB2092A10D8082DC5
:10202000D8BF03994FF00A02D8BF02FB013304F175
:102030000104D4BF039302FB063601351994E7E788
:10204000584601F049FF01680291584601F044FFEB
:102050000068FFF70DFF02990246204602F052FD8C
:1020600028B100203B462C46029007465DE00290D6
:10207000584601F031FF0068FFF7FAFE199B0299FC
:102080001A1819921B5C002D47D12846302B05D118
:10209000199B5A1C199201305B78F7E7A3F13102C2
:1020A000082A48D8199A0290002005920446303B2D
:1020B00000F101012BD0029A0A440292071921462D
:1020C000B94213D0013101F1FF3EBEF1080F06DC29
:1020D000039A4FF00A0E0EFB02F20392F0E710296A
:1020E000DCBF4FF00A0E0EFB06F6E9E72044082895
:1020F00000F1010405DC039A0A2101FB023303937A
:1021000004E0102CDCBF0A2101FB06360021199BDC
:10211000581C19905B78084602E02C46084602914C
:10212000A3F130010929C2D90127652B01D0452B24
:1021300060D174B905E0652B40F0C384002302939D
:10214000012728B9049B002B00F0A280044600E080
:102150000024DDF864A00AF1010319939AF8013014
:102160002B2B07D02D2B02D04FF0000C09E04FF0A5
:10217000010C01E04FF0000C0AF1020319939AF8E8
:102180000230A3F13001092932D81946302904D18F
:10219000199B591C19915978F8E7A1F1310EBEF13C
:1021A000080F0B4626D8199B06933039199B03F16B
:1021B000010ECDF864E05B78A3F13002092A05D85E
:1021C0004FF00A0E0EFB01313039EFE7069AC2EBF1
:1021D0000E0EBEF1080F44F61F6E03DC7145A8BF5A
:1021E000714600E07146BCF1000F04D0494202E0A4
:1021F000CDF864A00021002C54D1002840F0538475
:10220000049A002A40F04F84002F41D14E2B20D059
:1022100002DC492B0AD03BE0692B07D06E2B18D08B
:1022200036E000BF605600080000F07F19A8A649FC
:10223000FFF726FE60B3199BA449013B19A8199327
:10224000FFF71EFE10B9199B01331993DFF8949222
:102250001AE019A89E49FFF713FEC8B1199B1B7815
:10226000282B0FD119A89B491CAA01F0ABFD05280A
:1022700008D11D9BDDF8708043F0FF4949F4E00967
:1022800000F011BCDFF860924FF0000800F00BBCCA
:10229000169BCDF864A0002B00F010840023099356
:1022A00000F003BC029B0398CB1A002D14BFAA4672
:1022B000A246102C25460493A8BF102502F0CAFDA3
:1022C000092D8046894613DD834B03EBC50353E993
:1022D000122302F035FE80463046894602F0BAFDF0
:1022E00002460B464046494602F078FC8046894645
:1022F0000F2C37DC049B002B00F0D58324DD162B3C
:1023000007DC754A02EBC302D2E900014B464246A4
:1023100015E0049AC4F125039A4223DC6E4DC4F102
:102320000F0405EBC403D3E9000142464B4602F01B
:1023300007FE049B1C1B05EBC405D5E9002302F036
:10234000FFFD80468946AEE3049B13F1160F09DBBF
:10235000614AA2EBC30240464946D2E9002302F09B
:1023600019FFEEE7049B651B1D44002D54DD15F09D
:102370000F020AD0584B03EBC203D3E900014246D7
:102380004B4602F0DDFD8046894635F00F0500F032
:10239000B180B5F59A7F0BDD0024A2460594039425
:1023A0002223CBF80030DFF83C914FF0000880E1A9
:1023B0004946DFF838912D11404600274E46012D41
:1023C0000ADDEA0703D5D9E9002302F0B9FD013798
:1023D0006D1009F10809F2E78046A1F1547906EB86
:1023E000C70642464B46D6E9000102F0A9FD21F09E
:1023F000004389460A461B0D38491B058B4280461F
:10240000CAD8A1F580118B4286BFDFF8E4904FF067
:10241000FF3802F154796DE06CD06D4215F00F0277
:102420000AD02D4B03EBC20340464946D3E90023B3
:1024300002F0B0FE804689462D115BD01F2D04DDD1
:102440000024A246059403942CE115F0100F0CBF54
:1024500000236A23224E029340464946002D08DDA0
:10246000EB0703D5D6E9002302F06AFD6D100836AC
:10247000F4E7029B80468946EBB1C1F30A53C3F1EE
:102480006B03002B0A4616DD1F2B0EDD342BDEBF3F
:10249000203B4FF0FF3101FA03F34FF00008CCBFAF
:1024A0004FF05C7903EA020905E04FF0FF3202FACF
:1024B00003F303EA0008404649460022002302F0E5
:1024C000A7FF0028BCD117E0EF5500087857000897
:1024D000F755000824560008905700080000A07C1B
:1024E000385600080000F07F0000F8FF5858000838
:1024F000FFFFEF7F00230293039B0093584605994B
:102500005246234601F08DFD059000283FF444AF6C
:10251000049A049B002AC3F100034FF00004A8BFF3
:1025200000231293A246059B5846596801F0EFFC20
:10253000039000283FF434AF059B1A69059B0232D3
:1025400003F10C0192000C30FEF7DAFD1BAB009397
:102550001CAB0193584642464B46CDE90A8902F02E
:1025600016F81A9000283FF41BAF5846012101F0DD
:10257000E5FD824600283FF413AF049B02991C9DA1
:1025800023EAE37308931B9B002BADBF129A089AB2
:10259000129ED618B8BFD21AA3EB01032B446FF4D6
:1025A0007F71A8BF089A8B42C5F1360580F28680FC
:1025B000C91A1F29A5EB0105C8BFB3494FF0010097
:1025C000D5BF00FA01F3C91A139300FA01F3D9BF7A
:1025D00000230693069313907719029BB742154484
:1025E0001D443B46A8BF3346AB42A8BF2B46002B39
:1025F000C2BFFF1AED1AF61A129B002B63D1002FEF
:102600007ADC089B002B40F08180002D00F388804D
:10261000002E00F38F8058461A99039A01F0E5FEC8
:10262000044600283FF4BCAEC36808930023C3608F
:10263000514601F0BEFE002880F28A80089B002BE4
:1026400040F00A82B8F1000F40F00682C9F313038C
:10265000002B40F0018229F000431B0D1B05B3F154
:10266000D66F40F2F9816369002B6DD021460122BB
:10267000584601F04BFE5146044601F09AFE0028F0
:1026800040F3EA8129F00043029A1B0D1B05002A42
:1026900000F08D80B3F1D66F00F38980B3F15C7FD9
:1026A00000F3DC8122234FF000084FF00009CBF843
:1026B0000030059B002B40F0E281F4E100230693FB
:1026C0000123139388E7514658461A4601F0D0FD7E
:1026D000824600283FF464AE584651461A9A01F0EB
:1026E00036FD179000283FF45BAE58461A9901F06A
:1026F00043FC179B1A9382E758461A993A4601F011
:1027000005FE1A9000287FF47CAF49E658460399ED
:10271000089A01F0ADFD039000287FF476AF3FE604
:10272000584603992A4601F0F1FD039000287FF4F2
:102730006FAF35E651465846324601F0E7FD824616
:1027400000287FF468AF2BE62369012B8EDC83E140
:1027500062D1089AC9F3130322B34C498B424A460B
:102760002ED1029B414663B1494B1340B3F1D46F64
:1027700007D81B0DC3F16B034FF0FF3000FA03F3D2
:1027800001E04FF0FF3399421AD1424B9A4202D1F5
:1027900001313FF405AE3E4B134003F580194FF075
:1027A000000859E163B9B8F1000F09D16AE7A3F550
:1027B00080136FEA13596FEA09594FF0FF384BE164
:1027C000069B13B113EA090F02E0139B13EA080FEB
:1027D00000F04281089B029A4046494653B1FFF7F8
:1027E00062FB02460B46DDE90A0102F0F7F980467A
:1027F000894631E1FFF757FB02460B46DDE90A0146
:1028000002F0EAF9002200238046894602F000FE29
:1028100000287FF447AF1FE12046514601F009FF31
:1028200000224FF0804306460F4602F005FE0028C6
:1028300041D0089B13B10022174B0FE0B8F1000FF5
:1028400003D1C9F313033BB90DE0B8F1010F03D174
:10285000B9F1000F3FF426AF104B0022CDE906235B
:1028600000260D4F3CE03046394600220A4B02F06C
:10287000D9FDB8B9304639460022094B02F060FB59
:1028800006460F4610E000BFE3FBFFFFFFFF0F000F
:102890000000F07FFFFFEF7F0000F03F0000F0BF7F
:1028A0000000E03F944F002607F100431496159373
:1028B000DDE9142312E0304639468F4B002202F046
:1028C0003FFB089B06460F4623B901F100430E90DB
:1028D0000F9301E0CDE90E67DDE90E23CDE9062374
:1028E00029F000452D0D854B2D059D422DD1DDE9AB
:1028F0000A23A9F1547940464946CDE90C2301F059
:10290000D3FD02460B46DDE9060102F019FB024643
:102910000B464046494602F061F921F000431B0D89
:10292000774A1B05934280460CD9764B0D9A9A4202
:1029300003D10C9B01333FF433ADDFF8C8914FF066
:10294000FF3878E001F154793DE0029B3BB3B5F1EB
:10295000D46F24D8304639465FA3D3E9002302F070
:102960006BFDB8B13946304602F0ACFD002808BF17
:10297000012002F06FFA089B06460F4623B901F1C9
:1029800000431090119301E0CDE91067DDE91023B9
:10299000CDE90623079B03F1D6635B1B0793DDE9B3
:1029A0000A01DDE9068901F07FFD02460B4640463B
:1029B000494602F0C5FA02460B46DDE90A0102F07B
:1029C0000DF980468946029BABBB29F000431B0DE5
:1029D0001B059D422FD139463046CDF8189002F0A4
:1029E00049FD02F047FA0B4602463946304602F0EE
:1029F000F3F8089BDDF818C006460F462BB9B8F16E
:102A0000000F02D1CCF313037BB13046394634A317
:102A1000D3E9002302F006FD88BB3046394632A3D5
:102A2000D3E9002302F01CFD04E031A3D3E9002325
:102A300002F0F8FC18BB58461A9901F09DFA584666
:102A4000039901F099FA5846514601F095FA584613
:102A5000214601F091FA66E5029B83B12A4B0D9362
:102A600000230C9340464946DDE90C2302F068FA46
:102A70008046894619B910B92223CBF80030584650
:102A80001A9901F079FA5846039901F075FA5846F7
:102A9000514601F071FA5846059901F06DFA584611
:102AA000214601F069FA169B13B1169A199B13601F
:102AB000099B1BB1404609F1004107E040464946E9
:102AC00004E0002402940127FFF731BB1FB0BDE8EA
:102AD000F08F00BFAFF300800000C0FFFFFFDF41B9
:102AE0009535A094FFFFDF3F35E5AF350000E03FAF
:102AF0009535A094FFFFCF3F0000E03F0000E07F4E
:102B0000FFFF9F7CFFFFEF7F000050392DE9F0476A
:102B1000404CD4F800900F463D4615F801EB09EB08
:102B20000E04667806F0080404F0FF060CB12F4688
:102B3000F2E774462D2C03D1BD1C7C78012603E0FE
:102B40002B2C04BF7C78BD1C13B1102B0AD15AE08A
:102B5000302C56D12C7804F0DF04582C4CD16C78F2
:102B600010230235002E14BF4FF000486FF00048CC
:102B70000027B8FBF3FABE4603FB1A8809EB040CE6
:102B80009CF801C01CF0040F01D0303C0BE01CF09D
:102B9000030C1BD0BCF1010F0CBF4FF0370C4FF0F2
:102BA000570CCCEB04049C4210DAB7F1FF3F0AD07B
:102BB000D64506D801D1444503DC03FB0E4E012760
:102BC00001E04FF0FF3715F8014BD7E77C1C734647
:102BD0000AD1002E4FF0220114BF4FF000436FF0D6
:102BE000004301602AB911E00EB1CEF100036AB1D1
:102BF00007B1691E116009E03024002BB2D108230F
:102C0000B0E70A23AEE7302CACD1A3E71846BDE805
:102C1000F08700BFF00100202DE9F74F03690C6930
:102C2000A3428046C0F28180013C01F114074FEAC3
:102C3000840E00F1140657F8245006EB0E0301939E
:102C4000013556F82430B3FBF5F507EB0E09C5B393
:102C50004FF0000A3846B446D34650F8043B9AB2C7
:102C60001B0C02FB05A26B4303EB124392B2C2EBB7
:102C70000B02BCF800B04FEA134A12FA8BF21FFAAB
:102C800083FBDCF80030CBEB134303EB224392B21F
:102C900042EA034248454FEA234B4CF8042BDCD967
:102CA00056F80E306BB9019B043BB3421A4602D86A
:102CB000C8F8104005E01268043B002AF8D1013C36
:102CC000F3E7404601F075FB00282CDB0135304668
:102CD0004FF0000E57F8041BD0F800C08AB2C2EBC8
:102CE0000E03090C13FA8CF3C1EB1C4202EB2342D6
:102CF0009BB243EA02434F454FEA224E40F8043B61
:102D0000E8D956F8242006EB840362B9043BB342A9
:102D10001A4602D8C8F8104005E01268043B002AA1
:102D2000F8D1013CF3E7284600E0002003B0BDE8FD
:102D3000F08F0000000000002DE9F04F456A97B0C9
:102D40008246239CCDE9022345B9102001F0C8F842
:102D5000CAF82400456085600560C560DAF8243053
:102D6000196859B15A684A60012393408B605046F4
:102D700001F002F9DAF8243000221A60039BA24A1B
:102D8000002BBFBF01232360039B23F00043B8BF88
:102D90000393039FA4BF0023236027F000431B0D70
:102DA0001B0593421DD1229A42F20F731360029BBE
:102DB00043B9964A964BC7F31300002814BF184630
:102DC000104600E09248249B002B00F07385C378E6
:102DD00013B100F1080300E0C31C249A136000F053
:102DE00069BDDDE90245002220462946002302F0A4
:102DF0000FFB804658B1229A01231360249B002BBD
:102E000000F0468583481860013800F053BD15ABCB
:102E1000009314AB0193504622462B4601F0B7FBBA
:102E2000C7F30A5607905EB1C5F3130343F07F5111
:102E3000204641F44011A6F2FF36CDF84C801DE04B
:102E4000159B149E1E446FF482639E42ADBF029A8E
:102E5000714B029A06F21243A3BF22FA03F06F4BA2
:102E60009B1B9B1BAABF9F4002FA03F0384301F053
:102E7000F1FF0123A1F1F871013E13930022684B89
:102E800001F0AAFE5AA3D3E9002302F059F85AA38D
:102E9000D3E9002301F0A2FE044630460D4601F0BE
:102EA000E9FF57A3D3E9002302F04AF802460B4694
:102EB0002046294601F092FE04460D4602F0DAFA59
:102EC0002946834600222046002302F0ABFA58B17F
:102ED000584601F0CFFF02460B462046294602F035
:102EE00097FA08B90BF1FF3BBBF1160F0DD84D4B0C
:102EF00003EBCB03D3E90001DDE9022302F0B0FAD2
:102F000030B10BF1FF3B002300E00123129300E0FE
:102F10001290149B9E1B731E0A9345BF5B4209933C
:102F2000002300234CBF0A930993BBF1000F07DB7A
:102F30000A9BCDF834B05B440A9300230B9308E05E
:102F4000099BCBEB03030993CBF100030B93002305
:102F50000D93209B092B28D8052BC4BF043B20933D
:102F6000209BA3F10203CCBF00250125032B21D810
:102F7000DFE803F0020E0410002300E001230C93AD
:102F8000219B002B20DC0123069305931A4619E0B0
:102F9000002300E001230C93219B5B440693013343
:102FA000012B0593B8BF012311E0012500232093D5
:102FB0000C9501E001230C934FF0FF33069305932A
:102FC00000221223219202E0219B06930593DAF856
:102FD000244000226260042101F114029A4223D8A5
:102FE0006268013262604900F6E700BFAFF300801B
:102FF00061436F63A787D23FB3C8608B288AC63FFF
:10300000FB799F501344D33F0000F07F75570008B1
:103010007E570008FB550008EEFBFFFF0EFCFFFF8C
:103020000000F83F905700085046616800F06FFFBD
:10303000DAF8243020601B680893059B0E2B00F201
:103040004B81002D00F048819DED027BBBF1000F0C
:103050008DED107B31DDB34A0BF00F034FEA2B17D8
:1030600002EBC303F806D3E900450CD5AE4B51EC97
:10307000170BD3E9082302F08DF807F00F07CDE90D
:103080000201032600E00226DFF89C8277B1F907EF
:1030900008D520462946D8E9002301F051FF013622
:1030A00004460D467F1008F10808EFE7DDE902014C
:1030B00022462B4602F06EF81BE0CBF10004DCB197
:1030C000984B994D04F00F0203EBC203DDE91001A8
:1030D000D3E9002301F034FF241102264CB1E207AA
:1030E00004D5D5E90023013601F02AFF6410083524
:1030F000F4E7CDE9020100E00226129BDBB1DDE935
:103100000245002220462946884B02F08BF990B1F7
:10311000059B83B1069B002B40F3DA8029462046AD
:103120000022834B01F00CFF0BF1FF37CDE90201C8
:103130000136069D01E0059D5F469DED027B304610
:103140008DED0E7B01F096FEDDE90E2301F0F8FE19
:103150000022784B01F042FD8046A1F15079CDB9B3
:103160000022754BDDE90E0101F036FD42464B466B
:10317000CDE9020102F074F9002840F0468242468F
:1031800009F10043DDE9020102F04CF9002840F0AA
:1031900036829DE0634B0C996A1E03EBC203002943
:1031A00049D0D3E900230020644901F0F3FF4246EF
:1031B0004B4601F011FDDDE90E89CDE90201089CC5
:1031C0004946404602F056F9064601F053FE0246D3
:1031D0000B464046494601F0FFFC303604F8016BCF
:1031E000DDE902238046894602F01CF9002840F000
:1031F000408342464B4600204C4901F0EDFCDDE99E
:10320000022302F00FF9002840F0D380089BE31A54
:10321000AB425DDADDE902010022454B01F090FE90
:103220000022CDE90201424B4046494601F088FEAA
:1032300080468946C4E7D3E9000142464B4601F087
:103240007FFE089BCDE90201DDE90E895C191D4670
:103250004946404602F00EF9064601F00BFE3036B4
:1032600002460B464046494601F0B6FC05F8016BA4
:10327000A5428046894624D10022304BDDE9020177
:1032800001F0ACFC02460B464046494602F0E8F825
:10329000002840F08E80DDE902230020274901F05C
:1032A0009BFC02460B464046494602F0BBF878B10B
:1032B00014F8013C302B04F1FF3240F0DA8214465E
:1032C000F6E700221A4B01F03BFE80468946BFE735
:1032D000DDE91023CDE90223159B002BC0F28B8082
:1032E000BBF10E0F00F387800E4B03EBCB03D3E94A
:1032F0000067219B002B23DA059B002B20DC40F08C
:103300007D81304600220C4B394601F019FEDDE983
:10331000022302F09BF8059D2E46002840F07081A4
:1033200075E100BF90570008585800080000F03FB2
:103330000000244000001C40000014400000E03F5A
:10334000DDE90289089C32463B464046494601F089
:1033500021FF02F08FF8054601F08CFD32463B4616
:1033600001F0EEFD0B4602464946404601F034FCB2
:1033700005F1300E089B04F801EBC3EB040E059B2E
:103380009E452BD102460B4601F028FC32463B46B7
:103390008046894602F064F870B940464946324694
:1033A0003B4602F035F8002800F06482EB0703D4B6
:1033B00060E2BB4600E01C4614F8012C392A04F1F7
:1033C000FF3307D1089A9342F5D1302313700BF1E4
:1033D000010B13461A7801321A704BE20022A44BFB
:1033E00001F0AEFD002200238046894602F010F86D
:1033F0000028A8D03EE20C9A002A32D0209A012A56
:103400000ADC139A12B103F2334302E0149BC3F1B6
:1034100036030B9D099C18E0059B5D1E0B9BAB4280
:10342000BFBF0B9B0B95EA1A0D9BB6BF9B185D1B8C
:103430000D93059BB8BF0025002BB9BF099B059ACA
:10344000099C059BBCBF9C1A0023099A1A44099247
:103450000A9A50461A4401210A9200F06FFE06466D
:1034600002E00B9D099C0C9E64B10A9B002B09DDB8
:10347000A342099AA8BF2346D21A09920A9AE41ACB
:10348000D31A0A930B9B002B20DD0C9BC3B1002D9C
:1034900010DD31462A46504600F0EAFE0646314627
:1034A000079A504600F053FE07990746504600F031
:1034B00063FD07970B9B5A1B08D05046079902E003
:1034C00007990B9A504600F0D3FE07905046012111
:1034D00000F034FE0D9B002B05460ADD29461A46F6
:1034E000504600F0C5FE209B012B054604DD002759
:1034F0001BE0209B012B13DC029B8BB9039BC3F3C6
:1035000013037BB9039B23F000473F0D3F0557B1E1
:10351000099B013309930A9B01330A93012702E0B7
:10352000002700E0029F0D9B43B12B6905EB83034D
:10353000186900F0B6FDC0F1200000E001200A9BF0
:10354000184410F01F0008D0C0F12003042B02DD46
:10355000C0F11C0002E008D018461C30099B03444F
:1035600009930A9B034404440A93099B002B05DD3D
:10357000504607991A4600F0C9FE07900A9B002B97
:1035800005DD294650461A4600F0C0FE0546129B4E
:10359000EBB10798294600F00CFF002817DA00234A
:1035A000504607990A2200F0FEFC0C9B07900BF195
:1035B000FF3B002B00F070813146002350460A2269
:1035C00000F0F1FC069B002B064633DC6DE1059B09
:1035D000002B26DC209B022B23DD059B0693069BFC
:1035E00073B929460522504600F0DDFC0546294600
:1035F000079800F0DEFE002809DC01E000252E46D9
:10360000219B089C6FEA030B08E0BB462E46089BF3
:10361000089A5C1C312313700BF1010BB146002694
:1036200014E10C9B23B9059B0693089F079CCCE0F3
:10363000059B0693002C05DD31465046224600F0DE
:1036400065FE0646B7B17168504600F060FC32690D
:103650000232044606F10C0192000C30FDF750FDD9
:1036600050462146012200F051FE814603E000BF92
:1036700000002440B146089F079C29462046FFF7DA
:10368000CBFA3146099000F13008204600F091FE57
:103690004A4605902946504600F0A7FEC2680346F8
:1036A0003AB919462046079300F083FE079B02466D
:1036B00000E0012250461946079200F05DFC079A8F
:1036C000A2B9209B93B9029B03F0010373B9B8F12F
:1036D000390F3B46079440D0059B002BC8BF099B80
:1036E00007F10104C8BF03F131083DE0059B002B41
:1036F00004DA002AC446079408DC21E024D1209B88
:1037000013BB029B03F00103F3B9F2E72146012248
:1037100050460597CDF8088000F0F8FD294607903F
:1037200000F047FE0028DDF808C0059B03DC07D148
:1037300018F0010F04D0B8F1390F0ED008F1010CC8
:103740007C1C87F800C081E0002A07F101020EDD31
:10375000B8F1390F3B46079403D1392201371A706B
:1037600057E0144608F1010887F800806EE0089BD6
:1037700002F8018CD31A1746069A93423AD0214692
:103780000A220023504600F00EFC4E450446314606
:1037900050464FF00A024FF0000304D100F003FC42
:1037A0000646814669E700F0FEFB494606460A22C6
:1037B0005046002300F0F7FB81465EE72146504665
:1037C0000A22002300F0EFFB044620462946FFF7BB
:1037D00023FA00F1300807F8018B089B069AFB1AC0
:1037E0009342EBDB089B012AACBF9B180133B14627
:1037F0001F46002621460122504600F087FD29463B
:10380000079000F0D6FD002803DC16D118F0010F58
:1038100013D03C4614F8013C392B04F1FF3209D196
:10382000089B9A4204D10BF1010B3123089A02E064
:103830001446EFE70133137008E03C4614F8013CEE
:10384000302B04F1FF3201D11446F7E750462946E8
:1038500000F092FBB9F1000F0CD02EB14E4503D011
:103860005046314600F088FB5046494600F084FB44
:1038700000E0BB465046079900F07EFB0023229AE9
:1038800023700BF101031360249B1BB11C6001E04A
:103890000A480FE008980DE0069B002B3FF7C5AEE5
:1038A000209B022B3FF79BAEBFE6209B022B3FF7EE
:1038B00096AEBFE617B0BDE8F08F00BFFA5500081E
:1038C000F0B506694B11B34200F1140527DA11F087
:1038D0001F0105EB860605EB830201D1294616E0A0
:1038E000141D55F82320C1F1200ECA402B46B442C6
:1038F00009D2276807FA0EF73A4343F8042B54F825
:10390000042BCA40F3E71A6052B1043308E0B24214
:103910000B4605D252F8043B41F8043BF7E72B462F
:103920005B1B9B10036103B94361F0BDA0F1300341
:10393000092B01D820380AE0A0F16103052B01D83A
:10394000473804E0A0F14103052B02D82738C0B264
:103950007047002070472DE9F04F89B08A469146A4
:103960000493019000F0B8FA036802931846FEF73A
:103970007FFA029B00900344002613F8013C059354
:10398000DAF800300233984613F8010B302801D1E1
:103990000136F8E7FFF7CAFF0446E8B94046029946
:1039A000009A01F0AFF8002837D1009B18F8030007
:1039B00008EB0307FFF7BAFF88B33B4618783028B7
:1039C000984603F10103F9D0FFF7B0FF3C46B0FA87
:1039D00080F501266D0901E000252C46C3465F46AF
:1039E0000BF1010B3878FFF7A1FF0028F7D138461B
:1039F0000299009A01F086F858B95CB9009BFC184E
:103A0000A3465F460BF1010B3878FFF78FFF0028C4
:103A1000F7D134B1E41BA40003E0474600E00446BC
:103A200001253B78502B01D0702B30D17B782B2B8C
:103A300006D02D2B02D07A1C002303E0012300E0E6
:103A40000023BA1C107806930392FFF76FFF411E04
:103A5000C9B21829039A069B19D8A0F1100B12F8C5
:103A6000010F069303920792FFF760FF411EC9B250
:103A70001829039A069B05D80A2101FB0B0BABF111
:103A8000100BECE70BB1CBF1000B5C4400E03A46C5
:103A9000CAF8002025B1002E14BF002006207CE1CA
:103AA000C8EB0703013B2946072B02DD01315B1000
:103AB000FAE7019800F02BFA4FF0000A00F1140B1E
:103AC00005465E46D446474537D97B1E0393059A83
:103AD00017F8013C934209D0BCF1200F1AD1C6F867
:103AE00000A04FF0000A0436D44613E0009B039A6E
:103AF000C3F1010313444345EED318460299009ADB
:103B0000CDF81CC0069300F0FDFF069BDDF81CC03D
:103B100088B1E1E717F8010CCDF818C0FFF706FFF0
:103B2000DDF818C0039B00F00F0000FA0CF04AEA21
:103B3000000A0CF1040C1F46C5E746F804ABCBEBBA
:103B40000606B01028614701504600F0AAFAD9F8DD
:103B50000060381AB04226DD871B3946284600F03F
:103B6000ABFDC8B17B1E5A1103F01F014FF00108D5
:103B70005BF8222008FA01F111420ED0434502DC25
:103B80004FF0020809E02846B91E00F095FD002814
:103B9000F6D04FF0030800E0804628463946FFF78C
:103BA0008FFE3C440CE009DA371A294601983A4660
:103BB00000F0ACFBE41B054600F1140B4FF00008CD
:103BC000D9F808309C4208DD0198294600F0D4F964
:103BD000129A00231360A320DFE0D9F80400844286
:103BE00053DA041BB4422EDBD9F80C30022B1AD066
:103BF000032B1CD0012B1DD1B4421BD1012E0BDC99
:103C0000049AD9F80430136001232B61CBF80030FB
:103C1000129B62201D60C0E02846711E00F04CFD22
:103C20000028EDD106E0139B002BE9D002E0139BA6
:103C3000002BE5D10198294600F09EF9129A002345
:103C400013605020A9E0671EB8F1000F07D1002FC4
:103C500007DD2846394600F02FFD804601E04FF091
:103C600001087A11012307F01F075BF82220BB40EF
:103C700013422146284618BF48F00208361BFFF7BA
:103C80001FFE0227D9F8044000E00127B8F1000F19
:103C90007ED0D9F80C30022B0ED0032B10D0012B84
:103CA00074D118F0020F71D0DBF8000048EA000868
:103CB00018F0010F07D169E0139BC3F101031393BF
:103CC000139B002B62D0D5F810A005F114034FEA26
:103CD0008A0803EB08011A68501C02D001321A60EE
:103CE00021E0002243F8042B8B42F4D3AB689A45C1
:103CF00012DB69680198013100F009F92A69023282
:103D000005F10C01834692000C30FDF7F9F92946C4
:103D1000019800F031F95D462B695A1C05EB8303CD
:103D20002A6101225A61022F05F1140210D1D9F83B
:103D30000030013B9E4226D17111012306F01F067F
:103D400052F82120B34013420CBF022701271AE08A
:103D50002B6953450ADD28460121FFF7B1FDD9F84B
:103D6000083001349C423FF72FAF0BE016F01F06DE
:103D700008D09044C6F1200658F8040C00F091F9E0
:103D8000B042E8DB012747F0200701E047F01007C9
:103D9000129B1D60049B38461C6009B0BDE8F08F83
:103DA000C2F10802920070B5C2F1200643680568AE
:103DB00003FA06F42C43D340046040F8043F8842E1
:103DC000F4D370BD2DE9F04F0E68D0F800A0751146
:103DD00002EB850516F01F0385B018BF0435A5F169
:103DE0000409174600228346019345F8042CC8466F
:103DF0004C46009216461AF8011F00293AD0084690
:103E000003920291FFF792FD0299039AE8B92029E3
:103E100014D8009BB342EEDA444505D2072A03DCEE
:103E200020464146FFF7BCFFBC4221D9A4F104085B
:103E3000002244F8042C00964446DCE7292945D1A9
:103E40000AF10103CBF8003014E00132082A06F130
:103E5000010606DDBC42CED9002244F8042C043C05
:103E60000122216800F00F0040EA01102060C2E743
:103E70000822C0E756B3444505D2072A03DC204692
:103E80004146FFF78DFFBC420CD93B4654F8042B4A
:103E900043F8042B4C45F9D9002243F8042B4B4539
:103EA000FAD90BE0019B4BB1C3F1200655F8042C65
:103EB0004FF0FF33F340134045F8043C55F8043D00
:103EC00033B9BD42FAD101232B6001E0042000E0A8
:103ED000052005B0BDE8F08F00487047F4010020D0
:103EE000024B0146186800F05BBC00BFEC010020EB
:103EF00010B5C9B202449042034606D01C788C42E9
:103F000000F10100F7D1184610BD002010BD70B5BA
:103F1000456A04460E463DB91020FFF7E1FF606296
:103F2000456085600560C560656AEB6843B1636A9A
:103F3000DB6853F8260078B1026843F8262017E0C2
:103F400020460421212200F0D9FB636AE860DB6887
:103F5000002BECD1002070BD012101FA06F56A1D8D
:103F60002046920000F0CAFB0028F3D0466085602E
:103F700000230361C36070BD70B5446A06460D46F8
:103F80003CB91020FFF7ACFF7062446084600460AD
:103F9000C4603DB1736A6A68DB6853F82210296017
:103FA00043F8225070BD2DE9F0410F69984606464E
:103FB0000C4601F1140E0023DEF8000085B2010C5E
:103FC00002FB0585514301EB15410133ADB24FEAC8
:103FD0001148BB4205EB01414EF8041BECDBB8F184
:103FE000000F1BD0A3689F4212DB6168304601318D
:103FF000FFF78DFF2269023204F10C0105469200A1
:104000000C30FDF77DF821463046FFF7B5FF2C4612
:1040100004EB87030137C3F8148027612046BDE80D
:10402000F0812DE9F8430C461546984609220833DD
:10403000074693FBF2F2002101239A4202DD5B0066
:104040000131FAE73846FFF762FF089B4361092D0B
:104050004FF001030146036110DD04F10906B1468A
:104060002C4419F8013B38460A22303BFFF79BFFEE
:10407000A1450146F5D17419083C01E00A3409252F
:1040800026462B1B3344434508DA16F8013B3846D5
:104090000A22303BFFF787FF0146F2E70846BDE8FA
:1040A000F883030C1B0413B90004102300E0002361
:1040B00010F07F4F04BF0002083310F0704F04BFB0
:1040C0000001043310F0404F04BF80000233002889
:1040D00003DB420003D5581C704718467047202068
:1040E0007047036813F007020BD0D90722D49A0750
:1040F0004BBF5B089B08036003604CBF012002209C
:10410000704799B209B91B0C102213F0FF0F04BFBE
:104110001B0A0832190704BF1B090432990704BFA0
:104120009B080232D90702D45B0805D00132036034
:1041300010467047002070472020704710B50C468D
:104140000121FFF7E4FE01224461026110BD2DE967
:10415000F74F14460A6923699A42B8BF0B4688464E
:10416000BCBFA0461C46D8F81070D4F81090D8F800
:104170000830D8F8041007EB09069E42C8BF013189
:10418000FFF7C5FE00F1140505EB860C2B466345D1
:1041900003D2002243F8042BF9E704F1140208F1DA
:1041A000140102EB890301EB87070093009B019246
:1041B0009A4257D2B2F800B0BBF1000F23D0894623
:1041C000AE464FF0000859F8044BBEF800A0A3B269
:1041D0000BFB03A34FEA144ADEF8004043444FEAC6
:1041E00014480BFB0A8404EB1344F2469BB243EAE7
:1041F00004434F454FEA14484AF8043B01D9D646D8
:10420000E1E7CEF80480019BB3F802A00432BAF1D2
:10421000000F21D02B682C4689464FF00008B9F8D2
:1042200000E0B4F802B00AFB0EBEF044A3469BB215
:1042300043EA08434BF8043B59F8043BB4F804E064
:104240001B0C0AFB03E303EB1843B9454FEA134881
:1042500001D25C46E3E763600435A7E75CF8043D00
:1042600013B9013E002EF9DC066103B0BDE8F08F02
:1042700012F003032DE9F04106460F46154607D01C
:10428000013B214A52F823200023FFF78CFE07460A
:10429000AD1035D0746A3CB91020FFF721FE706272
:1042A000446084600460C460D6F82480D8F8084074
:1042B0007CB9304640F27121FFF740FF0023C8F877
:1042C00008000446036004E06D1019D0206870B146
:1042D0000446EB07F8D5394622463046FFF737FF4C
:1042E000394680463046FFF747FE4746ECE7304602
:1042F00021462246FFF72BFF002320600360E7E7FB
:104300003846BDE8F08100BF805800082DE9F0472D
:104310000C464FEA621A236949680AEB0309A3684D
:104320000746164609F101059D4202DD01315B0099
:10433000FAE73846FFF7EBFD0023804600F1140151
:10434000534504DA002241F823200133F8E72AEA32
:10435000EA73206901EB830316F01F0204F11401D4
:1043600001EB800E14D0C2F1200C00200E689640A4
:1043700030439A4643F8040B51F8040B714520FA78
:104380000CF0F3D3CAF8040048B109F1020506E0C5
:10439000043B51F8042B43F8042F7145F9D3013D38
:1043A0003846C8F810502146FFF7E6FD4046BDE804
:1043B000F08703690A699B1A10B511D19200143075
:1043C000143183180A4453F8044D52F8041D8C42EA
:1043D00002D007D3012010BD8342F4D8002010BDC5
:1043E000184610BD4FF0FF3010BD2DE9F8430746C9
:1043F0000C46084611461546FFF7DBFF061E08D19E
:1044000038463146FFF783FD012303614661BDE86D
:10441000F883BCBF23462C4638466168BABF1D46A8
:1044200001260026FFF773FD2B69C660266905F19A
:104430001409143404EB860709EB830800F1140512
:104440004FF0000C54F8043B59F8042B1CFA83F18C
:104450001FFA82FE120CCEEB0101C2EB134303EBF9
:10446000214389B24FEA234CC84541EA0343A6469B
:1044700045F8043BE6D8BE450ED25EF8042B1CFA84
:1044800082F4120C02EB2442A4B24FEA224C44EA1A
:10449000024245F8042BEEE755F8043D0BB9013E06
:1044A000FAE70661BDE8F883104B0B40A3F15073A7
:1044B000002B02DD0020194670475B421B15132BB1
:1044C0004FF000004FF0000104DC4FF4002242FAEC
:1044D00003F17047322B4FF00102DABFC3F133030F
:1044E00002FA03F313461846704700BF0000F07F3E
:1044F0002DE9F041056900F1140707EB85058846B1
:1045000055F8044C2046FFF7CCFDC0F120030A28E3
:10451000A5F10406C8F8003011DCC0F10B0E24FA36
:104520000EF1BE4241F07F538CBF55F8081C0021AC
:10453000153043F4401321FA0EF184401BE0BE42D3
:1045400086BFA5F1080655F8081C0021B0F10B053F
:1045500014D0AC40C0F12B0044F07F5444F440141C
:1045600021FA00FEBE4244EA0E038CBF56F8044C0A
:104570000024C440A94044EA010204E044F07F530F
:1045800043F440130A4610461946BDE8F0812DE970
:10459000F34101211D46089F099E1446FFF7B7FC11
:1045A000C5F31303C5F30A5580460DB143F48013D8
:1045B0000193ECB102A840F8084DFFF792FD009B73
:1045C00050B1019AC0F1200102FA01F10B43C2403F
:1045D000C8F81430019201E0C8F81430019BC8F803
:1045E0001830002B14BF02240124C8F8104009E041
:1045F00001A8FFF776FD0124019BC8F81430C8F824
:104600001040203035B1A5F2334505443D60C0F17E
:10461000350009E008EB8403A0F2324038601869E5
:10462000FFF73FFDC0EB44103060404602B0BDE8EC
:10463000F0812DE9F743884669468146FFF758FF28
:104640000F46064601A94046FFF752FF019A009B1C
:104650000D469B1AD8F81010D9F81020521A03EB07
:104660004213002BC8BF07EB03570446D8BFA5EB86
:1046700003553046394622462B4600F08BFD03B0E9
:10468000BDE8F083013910B549111469013102F117
:10469000140300EB810103EB8404A342024604D21D
:1046A00053F8042B40F8042BF7E78A4203D2002387
:1046B00042F8043BF9E710BD00F1140200694B1108
:1046C000834210B50CDC0CDA11F01F0109D052F84E
:1046D000234024FA01F000FA01F1A1420CD100E0DC
:1046E000034602EB8303934204D953F8041D0029C7
:1046F000F9D001E0002010BD012010BD38B502FB4B
:1047000001F4214600F04CF8054618B1002122467C
:10471000FCF701FD284638BD30B500293DD051F8E1
:10472000042C0B1F1D49002AB8BF9B180A680C46B1
:1047300012B95A600B6030BD93420DD219685818F7
:10474000904201BF5A5852181A6042685A6023605A
:1047500030BD994203D80A4651680029F9D114683E
:1047600015199D420AD11B682344D0188842136052
:1047700013D10868034413604B680DE002D90C2381
:10478000036030BD1C681819884204BF0868496876
:10479000596004BF00191860536030BD0C0300203D
:1047A00070B5CC1C24F0030408340C2C38BF0C2446
:1047B000002C064603DA0C233360002070BD8C42C7
:1047C000F9D3204A136810461946A1B10A68121B92
:1047D0000ED40B2A03D90A608B188C501FE08B4231
:1047E0000DBF5A684A685A60026018BF0B4616E04F
:1047F0000B464968E9E7144D2B681BB9304600F0B9
:1048000071F928603046214600F06CF9421C0346DD
:10481000D1D0C51C25F0030585420AD11C6003F1E7
:104820000B001A1D20F00700821A0AD0514299503D
:1048300070BD3046E91A00F055F90130BBD02B4667
:10484000ECE770BD0C030020080300202DE9F047C1
:104850008E68B34282460C469046994640D38A8978
:1048600012F4906F3AD0256809696F1A65690223BE
:1048700005EB450595FBF3F57B1C4B449D4238BF8A
:104880001D4653050FD52946FFF78AFF064698B106
:1048900021693A46FCF734FCA38923F4906343F082
:1048A0008003A38113E02A4600F061F9064670B93F
:1048B00050462169FFF730FF0C23CAF80030A38966
:1048C00043F04003A3814FF0FF30BDE8F08726613D
:1048D00065613E44ED1B2660A5604E46B14500D2A1
:1048E0004E4632462068414600F026F9A3689B1BDD
:1048F000A36023681E4426600020BDE8F087000006
:104900002DE9F0439DB0064603938B891C060D46A6
:1049100090460CD50B6953B94021FFF741FF286041
:10492000286110B90C233360CCE040236B61002375
:10493000099320238DF8293030238DF82A304346FF
:104940001C4613F8012B1AB9B4EB08090FD002E08A
:10495000252AF5D1F8E73046294642464B46FFF76F
:1049600075FF013000F0A980099B4B44099323781F
:10497000002B00F0A28000234FF0FF320493079336
:10498000059206938DF853301A9304F101084446BA
:10499000DFF84891217848460522FFF7A9FA08F187
:1049A0000108049B30B1C9EB00000122824013438F
:1049B0000493ECE7D80644BF20228DF85320190752
:1049C00044BF2B228DF8532022782A2A02D007993F
:1049D00023460EE0039A111D12680391002ABBBF03
:1049E000524243F0020307920792B8BF0493013486
:1049F0000AE01C4601332278303A092A03D80A20FB
:104A000000FB0121F5E7079123782E2B1AD163785B
:104A10002A2B0AD1039B1A1D1B680392002BB8BFD7
:104A20004FF0FF33023405930CE0611C00220C466A
:104A300001312378303B092B03D80A2000FB0232D6
:104A4000F5E70592DFF89880217840460322FFF7CA
:104A50004FFA38B1049AC8EB000040238340134357
:104A60000493013421781A488DF82810062204F1A5
:104A70000108FFF73DFA88B1164B33B9039B0733A2
:104A800023F007030833039313E003AB009330468E
:104A900004A92A46104BFCF7D7FB07E003AB0093B1
:104AA000304604A92A460C4BFCF78AFE421C0746F6
:104AB00003D0099B3B44099341E7AB895B0601D4D2
:104AC000099801E04FF0FF301DB0BDE8F08300BF52
:104AD00096580008491200084D4800088C580008F4
:104AE0009258000838B5064C002305460846236056
:104AF00000F058FD431C02D1236803B12B6038BD80
:104B00001403002070B5AAB1451E01396B7811F865
:104B1000014FA34205F1010606D16FF00104641BA9
:104B20001444E04202D11C46181B70BD3546002BD0
:104B3000ECD1F8E7104670BD814210B501EB0203DD
:104B400001D3421E0BE09842FBD28118D21AD34205
:104B500004D013F8014D01F8014DF8E710BD99425A
:104B600004D011F8014B02F8014FF8E710BDF8B579
:104B7000074615460E4621B91146BDE8F840FFF735
:104B80000FBE1AB9FFF7C8FD2846F8BD00F015F8AA
:104B9000A8420ED238462946FFF702FE044650B11D
:104BA00031462A46FCF7ACFA38463146FFF7B4FDE9
:104BB00001E03046F8BD2046F8BD51F8040C00284D
:104BC000BEBF091851F8043CC018043870470000F3
:104BD00081F0004102E000BF83F0004330B54FEAAE
:104BE00041044FEA430594EA050F08BF90EA020F1B
:104BF0001FBF54EA000C55EA020C7FEA645C7FEAAE
:104C0000655C00F0E2804FEA5454D4EB5555B8BFD0
:104C10006D420CDD2C4480EA020281EA030382EA41
:104C2000000083EA010180EA020281EA0303362DD3
:104C300088BF30BD11F0004F4FEA01314FF4801CA6
:104C40004CEA113102D0404261EB410113F0004FB8
:104C50004FEA03334CEA133302D0524263EB43036F
:104C600094EA050F00F0A780A4F10104D5F1200E0D
:104C70000DDB02FA0EFC22FA05F2801841F1000168
:104C800003FA0EF2801843FA05F359410EE0A5F13C
:104C900020050EF1200E012A03FA0EFC28BF4CF06D
:104CA000020C43FA05F3C01851EBE37101F0004523
:104CB00007D54FF0000EDCF1000C7EEB00006EEB30
:104CC0000101B1F5801F1BD3B1F5001F0CD34908BA
:104CD0005FEA30004FEA3C0C04F101044FEA445211
:104CE00012F5800F80F09A80BCF1004F08BF5FEA98
:104CF000500C50F1000041EB045141EA050130BD78
:104D00005FEA4C0C404141EB010111F4801FA4F11A
:104D10000104E9D191F0000F04BF01460020B1FA6F
:104D200081F308BF2033A3F10B03B3F120020CDAA7
:104D30000C3208DD02F1140CC2F10C0201FA0CF085
:104D400021FA02F10CE002F11402D8BFC2F1200CEA
:104D500001FA02F120FA0CFCDCBF41EA0C019040A0
:104D6000E41AA2BF01EB0451294330BD6FEA0404E9
:104D70001F3C1CDA0C340EDC04F11404C4F12002D4
:104D800020FA04F001FA02F340EA030021FA04F3E6
:104D900045EA030130BDC4F10C04C4F1200220FA3D
:104DA00002F001FA04F340EA0300294630BD21FA7B
:104DB00004F0294630BD94F0000F83F4801306BF41
:104DC00081F480110134013D4EE77FEA645C18BF35
:104DD0007FEA655C29D094EA050F08BF90EA020FCC
:104DE00005D054EA000C04BF1946104630BD91EAC4
:104DF000030F1EBF0021002030BD5FEA545C05D1C7
:104E00004000494128BF41F0004130BD14F5800405
:104E10003CBF01F5801130BD01F0004545F0FE4179
:104E200041F470014FF0000030BD7FEA645C1ABFAE
:104E3000194610467FEA655C1CBF0B46024650EAE5
:104E4000013406BF52EA033591EA030F41F4002111
:104E500030BD00BF90F0000F04BF0021704730B597
:104E60004FF4806404F132044FF000054FF000016C
:104E700050E700BF90F0000F04BF0021704730B52D
:104E80004FF4806404F1320410F0004548BF404202
:104E90004FF000013EE700BF42004FEAE2014FEA57
:104EA00031014FEA02701FBF12F07F4393F07F4F32
:104EB00081F06051704792F0000F14BF93F07F4F64
:104EC000704730B54FF4607401F0004521F00041A7
:104ED00020E700BF50EA010208BF704730B54FF02D
:104EE00000050AE050EA010208BF704730B511F032
:104EF000004502D5404261EB41014FF4806404F16A
:104F000032045FEA915C3FF4DCAE4FF003025FEAEB
:104F1000DC0C18BF03325FEADC0C18BF033202EB73
:104F2000DC02C2F1200300FA03FC20FA02F001FACD
:104F300003FE40EA0E0021FA02F11444C1E600BF6C
:104F400070B54FF0FF0C4CF4E06C1CEA11541DBF1F
:104F50001CEA135594EA0C0F95EA0C0F00F0DEF8EA
:104F60002C4481EA030621EA4C5123EA4C5350EACF
:104F7000013518BF52EA033541F4801143F4801320
:104F800038D0A0FB02CE4FF00005E1FB02E506F0B1
:104F90000042E0FB03E54FF00006E1FB03569CF006
:104FA000000F18BF4EF0010EA4F1FF04B6F5007F0C
:104FB00064F5407404D25FEA4E0E6D4146EB06067E
:104FC00042EAC62141EA55514FEAC52040EA5E5007
:104FD0004FEACE2EB4F1FD0C88BFBCF5E06F1ED8B1
:104FE000BEF1004F08BF5FEA500E50F1000041EBE8
:104FF000045170BD06F0004646EA010140EA020095
:1050000081EA0301B4EB5C04C2BFD4EB0C0541EAB6
:10501000045170BD41F480114FF0000E013C00F3CB
:10502000AB8014F1360FDEBF002001F0004170BDEF
:10503000C4F10004203C35DA0C341BDC04F1140408
:10504000C4F1200500FA05F320FA04F001FA05F294
:1050500040EA020001F0004221F0004110EBD37061
:1050600021FA04F642EB06015EEA430E08BF20EA8D
:10507000D37070BDC4F10C04C4F1200500FA04F330
:1050800020FA05F001FA04F240EA020001F00041C2
:1050900010EBD37041F100015EEA430E08BF20EA35
:1050A000D37070BDC4F1200500FA05F24EEA020E7D
:1050B00020FA04F301FA05F243EA020321FA04F0AC
:1050C00001F0004121FA04F220EA020000EBD37063
:1050D0005EEA430E08BF20EAD37070BD94F0000F63
:1050E0000FD101F00046400041EB010111F4801F97
:1050F00008BF013CF7D041EA060195F0000F18BF48
:10510000704703F00046520043EB030313F4801F83
:1051100008BF013DF7D043EA0603704794EA0C0F3D
:105120000CEA135518BF95EA0C0F0CD050EA410653
:1051300018BF52EA4306D1D181EA030101F00041D0
:105140004FF0000070BD50EA410606BF10461946F8
:1051500052EA430619D094EA0C0F02D150EA013604
:1051600013D195EA0C0F05D152EA03361CBF104645
:1051700019460AD181EA030101F0004141F0FE41E4
:1051800041F470014FF0000070BD41F0FE4141F468
:10519000780170BD70B54FF0FF0C4CF4E06C1CEA68
:1051A00011541DBF1CEA135594EA0C0F95EA0C0F1D
:1051B00000F0A7F8A4EB050481EA030E52EA0335D8
:1051C0004FEA013100F088804FEA03334FF08055F9
:1051D00045EA131343EA12634FEA022245EA111526
:1051E00045EA10654FEA00260EF000419D4208BFD7
:1051F000964244F1FD0404F5407402D25B084FEA84
:105200003202B61A65EB03055B084FEA32024FF42F
:1052100080104FF4002CB6EB020E75EB030E22BF8C
:10522000B61A754640EA0C005B084FEA3202B6EB4C
:10523000020E75EB030E22BFB61A754640EA5C00FB
:105240005B084FEA3202B6EB020E75EB030E22BF8B
:10525000B61A754640EA9C005B084FEA3202B6EB8C
:10526000020E75EB030E22BFB61A754640EADC004B
:1052700055EA060E18D04FEA051545EA16754FEAAD
:1052800006164FEAC30343EA52734FEAC2025FEACB
:105290001C1CC0D111F4801F0BD141EA00014FF05A
:1052A00000004FF0004CB6E711F4801F04BF01432B
:1052B0000020B4F1FD0C88BFBCF5E06F3FF6AFAE47
:1052C000B5EB030C04BFB6EB020C5FEA500C50F1D7
:1052D000000041EB045170BD0EF0004E4EEA11315A
:1052E00014EB5C04C2BFD4EB0C0541EA045170BD61
:1052F00041F480114FF0000E013C90E645EA060EA5
:105300008DE60CEA135594EA0C0F08BF95EA0C0FD2
:105310003FF43BAF94EA0C0F0AD150EA01347FF41A
:1053200034AF95EA0C0F7FF425AF104619462CE7F1
:1053300095EA0C0F06D152EA03353FF4FDAE104654
:10534000194622E750EA410618BF52EA43067FF4A5
:10535000C5AE50EA41047FF40DAF52EA43057FF435
:10536000EBAE12E74FF0FF3C06E000BF4FF0010C40
:1053700002E000BF4FF0010C4DF804CD4FEA410CA4
:105380007FEA6C5C4FEA430C18BF7FEA6C5C1BD071
:1053900001B050EA410C0CBF52EA430C91EA030FF2
:1053A00002BF90EA020F0020704710F1000F91EA4F
:1053B000030F58BF994208BF90422CBFD8176FEA1D
:1053C000E37040F0010070474FEA410C7FEA6C5CEB
:1053D00002D150EA013C07D14FEA430C7FEA6C5CF2
:1053E000D6D152EA033CD3D05DF8040B704700BF1E
:1053F0008446104662468C461946634600E000BF6C
:1054000001B5FFF7B7FF002848BF10F1000F01BD3D
:105410004DF808EDFFF7F4FF0CBF012000205DF808
:1054200008FB00BF4DF808EDFFF7EAFF34BF01208D
:1054300000205DF808FB00BF4DF808EDFFF7E0FF26
:1054400094BF012000205DF808FB00BF4DF808ED77
:10545000FFF7CEFF94BF012000205DF808FB00BFDE
:105460004DF808EDFFF7C4FF34BF012000205DF8C0
:1054700008FB00BF4FEA410212F5001215D211D508
:105480006FF47873B3EB625212D94FEAC12343F041
:10549000004343EA505311F0004F23FA02F018BFC3
:1054A000404270474FF00000704750EA013005D18C
:1054B00011F0004008BF6FF0004070474FF000004F
:1054C000704700BF4A0011D212F5001211D20DD55B
:1054D0006FF47873B3EB62520ED44FEAC12343F0FA
:1054E000004343EA505323FA02F070474FF00000A4
:1054F000704750EA013002D14FF0FF3070474FF053
:10550000000070474FEA4102B2F1E04324BFB3F517
:10551000001CDCF1FE5C0DD901F0004C4FEAC0022A
:105520004CEA5070B2F1004F40EB830008BF20F00E
:105530000100704711F0804F21D113F13872BCBFC8
:1055400001F00040704741F480114FEA5252C2F11D
:105550001802C2F1200C10FA0CF320FA02F018BF66
:1055600040F001004FEAC1234FEAD32303FA0CFCB9
:1055700040EA0C0023FA02F34FEA4303CCE77FEA48
:10558000625307D150EA01331EBF4FF0FE4040F492
:105590004000704701F0004040F0FE4040F4000041
:1055A000704700BF044A05491368002B08BF0B462B
:1055B000184410601846704710030020180300209C
:1055C000F8B500BFF8BC08BC9E467047F8B500BFF0
:1055D000F8BC08BC9E4670470000000001020304AE
:1055E00001020304060708094300494E4600696E9C
:1055F00066004E414E006E616E0030003031323335
:10560000343536373839414243444546003031322B
:105610003334353637383961626364656600652531
:105620006C64000034000000CEFBFFFFCB030000E1
:105630000100000000000000BC89D897B2D29C3C59
:1056400033A7A8D523F649393DA7F444FD0FA53269
:105650009D978CCF08BA5B25436FAC642806681110
:1056600035000000CEFBFFFFCB030000010000006F
:1056700000000000002020202020202020202828BA
:105680002828282020202020202020202020202002
:105690002020202020881010101010101010101042
:1056A0001010101010040404040404040404041072
:1056B0001010101010104141414141410101010100
:1056C00001010101010101010101010101010101CA
:1056D00010101010101042424242424202020202D6
:1056E000020202020202020202020202020202029A
:1056F000101010102000000000000000000000004A
:105700000000000000000000000000000000000099
:105710000000000000000000000000000000000089
:105720000000000000000000000000000000000079
:105730000000000000000000000000000000000069
:105740000000000000000000000000000000000059
:105750000000000000000000000000000000000049
:105760000000000000000000000000000000000039
:105770000000000000496E66696E697479004E6130
:105780004E00504F534958002E000000000000000A
:10579000000000000000F03F000000000000244076
:1057A00000000000000059400000000000408F4051
:1057B000000000000088C34000000000006AF840BC
:1057C0000000000080842E4100000000D0126341E0
:1057D0000000000084D797410000000065CDCD4156
:1057E000000000205FA00242000000E87648374237
:1057F000000000A2941A6D42000040E59C30A242D5
:105800000000901EC4BCD64200003426F56B0C4349
:105810000080E03779C3414300A0D88557347643F0
:1058200000C84E676DC1AB43003D9160E458E14351
:10583000408CB5781DAF154450EFE2D6E41A4B44C6
:1058400092D54D06CFF08044F64AE1C7022DB5440B
:10585000B49DD9794378EA440080E03779C3414365
:10586000176E05B5B5B89346F5F93FE9034F384DC6
:10587000321D30F94877825A3CBF737FDD4F157572
:1058800005000000190000007D000000232D302BD2
:105890002000686C4C0065666745464700000000C4
:0458A0000000000004
:1058A4000024F400000000000000000000000000DC
:1058B40000000000000000000000000000000000E4
:1058C40000000000E855000800000000000000008F
:1058D40000000000000000000000000000000000C4
:1058E40000000000000000000000000000000000B4
:1058F40000000000000000000000000000000000A4
:10590400000000008C01002074560008885700082D
:1059140091580008915800089158000891580008BF
:1059240091580008915800089158000891580008AF
:1059340091580008FFFFFFFFFFFFFFFFFFFFFFFF7E
:10594400FFFF0000AD01000889010008000000000D
:04000005080010617E
:00000001FF
