:020000040800F2
:100000000080012065020008B1020008B10200086A
:10001000B1020008B1020008B102000800000000AF
:10002000000000000000000000000000B102000815
:10003000B102000800000000B1020008B10200088F
:10004000B1020008B1020008B1020008B1020008C4
:10005000B1020008B1020008B1020008B1020008B4
:10006000B1020008B1020008B1020008B1020008A4
:10007000B1020008B1020008B1020008B102000894
:10008000B1020008B1020008B1020008000000003F
:10009000000000000000000000000000B1020008A5
:1000A000B1020008B1020008B1020008B102000864
:1000B000B1020008B1020008B1020008B102000854
:1000C000B1020008B1020008B1020008B102000844
:1000D000B1020008B1020008B102000800000000EF
:1000E000B1020008B1020008B102000800000000DF
:1000F000000000000000000000000000B102000845
:1001000000000000B1020008B1020008B1020008BE
:1001100000000000000000000000000000000000DF
:10012000B1020008B1020008B1020008B1020008E3
:10013000B102000800000000000000000000000004
:10014000000000000000000000000000B1020008F4
:10015000B1020008B1020008B1020008B1020008B3
:10016000B1020008B1020008000000000000000019
:10017000000000000000000000000000000000007F
:1001800000000000B10200080000000000000000B4
:10019000B102000810B5054C237833B9044B13B1F4
:1001A0000448AFF300800123237010BD50020020EB
:1001B00000000000746D0008084B10B51BB1084822
:1001C0000849AFF300800848036803B910BD074B26
:1001D000002BFBD0BDE81040184700BF0000000016
:1001E000746D0008540200204C0200200000000042
:1001F000154B002B08BF134B9D46A3F5803A0021F9
:100200008B460F461348144A121A01F076FE0F4B24
:10021000002B00D098470E4B002B00D098470020B1
:10022000002104000D000D48002802D00C48AFF357
:10023000008001F0A9FD2000290001F063FB01F01E
:1002400007FC00BF00000800008001200000000043
:100250000000000050020020A40400200000000064
:1002600000000000DFF830D0002103E00B4B5B58AA
:10027000435004310A480B4B42189A42F6D30A4ABB
:1002800002E0002342F8043B084B9A42F9D301F004
:10029000FFF9FFF7ADFF704700800120806D000877
:1002A000940100205002002050020020A4040020ED
:1002B000FEE7000010B50446013001D110BD0C313D
:1002C00091F900305A1C0BD0A342F8D1204689681E
:1002D00000F062F920460021BDE8104000F07EB930
:1002E0000248BDE8104000F0C5B800BF946800089F
:1002F000884208B50AD0431C07D0013106D0044813
:1003000000F0B8F84FF0FF3008BD084608BD00BF48
:10031000A568000891F900305A1C05D0834201D12C
:10032000486870470C31F5E718467047421C10B515
:10033000044607D0FFF7EEFF431C044602D10248F3
:1003400000F098F8204610BDB66800081FB572B6D8
:100350000521684600F08BF8039B019A1A609620ED
:1003600000F0A3F8019B039A1B041360962000F091
:100370009CF8F1E738B5036804461B680D469847BA
:1003800063681D6038BD036870B5DB680446984734
:1003900063685A6823681AB99B68BDE870401847BB
:1003A0005B6815689847281A0028636808DC5A6853
:1003B000916859601B68002BEAD050689847E7E7BE
:1003C00021685A680B691068BDE87040184770B51D
:1003D0000D4672B64668746881E80C00002334B19B
:1003E0002168511A002902DB2346A468F7E72BB9DC
:1003F000036875601B691046984700E09D60AC601B
:1004000062B670BD08B572B6426853688B420BD1B4
:100410009B685360026813B9936898470AE01269B1
:100420001868904706E0134623B19A688A42FAD1C9
:100430008A689A6062B608BD03685B68184770B541
:100440000E460446154600F00BFA01360ED0E16860
:10045000636805B91B0420460B60012100F019FAFE
:1004600020460021BDE8704000F00FBA70BD0022A8
:10047000FFF7E5BF0FB407B5054B04AA1B6852F898
:10048000041BD868019201F00BFF012001F0E0FA93
:100490000002002038B5044600F0AEF9054600F031
:1004A000ABF9401BA042FAD338BD4FF47A735843DE
:1004B000FFF7F0BF00487047086900080148FFF7E0
:1004C00062BF00BF086900087FB507284DD8DFE884
:1004D00000F004101C28344C4C40274B27481A6B62
:1004E00042F001021A631B6B03F001030093009BAF
:1004F0003FE0214B22481A6B42F002021A631B6B49
:1005000003F002030193019B33E01B4B1D481A6B60
:1005100042F004021A631B6B03F004030293029B74
:1005200027E0154B18481A6B42F008021A631B6B40
:1005300003F008030393039B1BE00F4B13481A6B54
:1005400042F010021A631B6B03F010030493049B28
:100550000FE0094B0E481A6B42F080021A631B6BC6
:1005600003F080030593059B03E00A48FFF782FF31
:10057000002007B05DF804FB003802400000024094
:100580000004024000080240000C0240001002403B
:10059000001C02401069000830B5054687B0C0F362
:1005A00003100C4605F00F05FFF78EFF0123AB404B
:1005B00004F00F020193084B53F822300293C4F366
:1005C00002130393C4F3C314032301A904930594F2
:1005D00000F01EFE07B030BD3469000838B500F0E9
:1005E0000F05C0F303100C46FFF76EFF6B00C168E8
:1005F00003229A4021EA0202032CC260C16828BF8C
:1006000000249C400C43C46038BD08B500F06CFF6A
:10061000BDE8084000F0D4BD08B5124B02681A606E
:1006200082685A60C2689A600269DA6042691A6137
:1006300000229A6190F91920013201D1082205E0C7
:1006400090F9182001320CBF04220C2205485A618F
:1006500000F0FFFC20B10448BDE80840FFF70ABFE6
:1006600008BD00BF7802002068690008F0B50446A4
:1006700085B008460E4639491546FFF757FE3849FA
:1006800007462846FFF752FE01463846FFF730FE80
:10069000344B2060984213D003F5806398421BD0FE
:1006A000A3F55043984223D12F4B1A6C42F40032E9
:1006B0001A641B6C03F400330293029B012316E0BF
:1006C000294B5A6C42F010025A645B6C03F0100321
:1006D0000193019B00230AE0234B5A6C42F0200255
:1006E0005A645B6C03F020030393039B0523636050
:1006F00030461A49FFF7DEFD28461949FFF7DAFDB3
:10070000721C03D030460121FFF768FF6B1C03D039
:1007100028460121FFF762FF4FF41653A360002320
:10072000E36023616361267665762046FFF774FFF8
:1007300022680E4B9A420FD10D4B01221A600D4BCD
:1007400004F11805206861681A4603C20834AC42F7
:100750001346F7D12068106005B0F0BDC8690008E5
:100760008069000800100140003802400044004049
:1007700074020020B80200200368034A186813605E
:10078000C0F34010704700BF7802002038B50568FC
:1007900004462046FFF7F0FF0028FAD06868C0F34F
:1007A000080038BD0368034A18681360C0F3C0101E
:1007B000704700BF7802002070B5066805460C46F9
:1007C0002846FFF7EFFF0028FAD0C4F3080474604E
:1007D00070BD0000054B186830B901221A60044B47
:1007E000044A1A6000F008BE704700BF10030020E2
:1007F000D4020020000C004008B5044B1B680BB964
:10080000FFF7E8FF024B586A08BD00BF1003002045
:10081000000C0040034B1B685863DA6842F0020288
:10082000DA607047D4020020034B1A68D36823F0C3
:100830000203D360704700BFD4020020024B1B6844
:100840006FF002021A617047D402002010B5002137
:10085000044604F00F04FFF79FFE0120A04010BDE6
:1008600070B504464B1C0E4621700DD0C1F3031029
:10087000FFF72AFE05463046FFF7E8FF05F11003B3
:1008800018356060A360E56070BD90F90000FFF767
:10089000A5BE012990F9000018BF0021FFF77CBE1A
:1008A0000368F7B5DD07044603D4236898074CD4E2
:1008B0009DE08C4B9A6802F00C02042A07D09A68DB
:1008C00002F00C02082A0BD15B68590208D5854B4F
:1008D0001B689A03E9D56368002BE6D1012069E122
:1008E000814D00232B7000F08DFC06467D4B1B686C
:1008F0009B0308D500F086FC41F28833801B9842A8
:10090000F4D9032056E123792B70636873B100F0AA
:1009100079FC0546734B1B689F03C6D400F072FC3C
:1009200041F28833401B9842F4D9EAE700F06AFCB0
:1009300005466C4B1B689E03B7D500F063FC41F283
:100940008833401B9842F4D9DBE7664B9A6812F073
:100950000C0F07D09A6802F00C02082A18D15B68C5
:10096000580215D45F4A1368990702D5E368012B32
:10097000B4D11168F82393FAA3F3B3FA83F320698F
:10098000DBB2984021F0F80140EA010313602EE049
:10099000E268564BEAB101221A6000F033FC0546CA
:1009A00050490B689B0705D400F02CFC401B6428C1
:1009B000F6D9A6E70A68F82393FAA3F3B3FA83F308
:1009C0002069DBB2984022F0F80240EA02030B6093
:1009D0000DE01A6000F016FC0546424B1B689F07AD
:1009E00005D500F00FFC401B6428F6D989E7236881
:1009F0001E0703D423685D074BD51FE062693C4B9B
:100A000072B101221A6000F0FDFB0546354B5B6FA9
:100A10009807EFD400F0F6FB401B6428F6D970E786
:100A20001A6000F0EFFB05462E4B5B6F9907E1D58E
:100A300000F0E8FB401B6428F6D962E7294B1A6CEA
:100A400042F080521A641B6C2A4A03F080530193CF
:100A5000019B136843F48073136000F0D3FB0546D9
:100A6000244B1B68DA0517D5234D00232B7000F0AB
:100A7000C9FB06461B4B1B6F9B0713D4237A2B70B5
:100A8000A368FBB100F0BEFB0546164B1B6F9F072A
:100A900010D5A26992BB72E000F0B4FB401B642841
:100AA000DED92EE700F0AEFB41F28833801B98427E
:100AB000E0D926E700F0A6FB41F28833401B9842BC
:100AC000E3D91EE700F09EFB0546064B1B6F9E0711
:100AD000DFD500F097FB41F28833401B9842F4D9F0
:100AE0000FE700BF003802400238024000004742D2
:100AF000800E474200700040703802402E4B9B68C9
:100B000003F00C03082B3FF4E9AE2C4D0023022A1E
:100B10002B6042D100F076FB064627490B6898010E
:100B20002FD447F6C07292FAA2F2B2FA82F24FF4D0
:100B3000403696FAA6F6B6FA86F64FF0706090FA4E
:100B4000A0F0B0FA80F0E369276A1F43636AD2B26B
:100B5000934047EA0302A36A5B08013BF6B2B34045
:100B60001343E26AC0B2824013434B6001232B60FF
:100B700000F048FB0446104B1B689A0107D5002083
:100B800018E000F03FFB801B6428C6D9B9E600F0EE
:100B900039FB001B6428EED9B3E600F033FB0446B2
:100BA000054B1B689B01EAD500F02CFB001B642859
:100BB000F6D9A6E603B0F0BD003802406000474217
:100BC0007F4B1A6802F00F02914270B504460D4641
:100BD00077D9CAB21A701B6803F00F038B4201D099
:100BE000012070BD01688B0741BF7648836823F000
:100BF000F002A36844BF13438360CE070BD421687F
:100C00004D0740F1CC806F48836823F4E052E368DD
:100C100013438360C3E063686A4A012B03D11268FF
:100C200012F4003F08E0991E0129126802D812F060
:100C3000007F01E012F0020FD2D062498A6822F0F0
:100C4000030213438B6000F0DDFA6368012B054655
:100C50000ED15C4B9B6803F00C03042BCFD000F04B
:100C6000D1FA41F28833401B9842F2D9032070BD7B
:100C7000022B0DD1534B9B6803F00C03082BBED005
:100C800000F0C0FA41F28833401B9842F2D9EDE7F8
:100C9000032B10D14B4B9B6800F0B4FA41F2883320
:100CA000401B9842F6D9E1E700F0ACFA41F28833F4
:100CB000401B9842DAD8434B9B6813F00C0FF3D1DA
:100CC0009DE70168880741BF3E48836823F0F00232
:100CD000A36844BF13438360CA0709D4384BEAB200
:100CE0001A701B6803F00F03AB427FF479AF86E7FD
:100CF0006368344A012B03D1126812F4003F08E004
:100D0000991E0129126802D812F0007F01E012F04A
:100D1000020F3FF465AF2B498A6822F003021343A8
:100D20008B6000F06FFA6368012B06460DD1254BEE
:100D30009B6803F00C03042BD0D000F063FA41F25F
:100D40008833801B9842F2D990E7022B0DD11D4BBE
:100D50009B6803F00C03082BC0D000F053FA41F25B
:100D60008833801B9842F2D980E7032B11D1154BB1
:100D70009B6800F047FA41F28833801B9842F6D90D
:100D800074E700F03FFA41F28833801B98423FF647
:100D90006DAF0C4B9B6813F00C0FF2D19EE70B0765
:100DA00041BF084A2169936823F4604344BF43EA82
:100DB000C10393600F2000F01FFB002070BD00BF37
:100DC000003C02400038024030B51D4CA36803F0DF
:100DD0000C03042B30D0082B30D16268636802F01A
:100DE0003F0513F4800F47F6C071636891FAA1F1D3
:100DF000B1FA81F147F6C07004BF124AB2FBF5F2B6
:100E0000C9B200EA030020FA01F01CBF0E49B1FB91
:100E1000F5F202FB00F30A4A50684FF4403292FAAE
:100E2000A2F2B2FA82F2D2B200F44030D0400130E5
:100E30004000B3FBF0F030BD034830BD014830BD89
:100E4000003802400024F40000127A0008B5FFF7D1
:100E5000BBFF094B9A68F02393FAA3F3B3FA83F329
:100E600002F0F002DBB222FA03F3044AD35CD8406A
:100E7000034B186008BD00BF00380240106A00082C
:100E80009801002008B5FFF7E1FF084B9A684FF47E
:100E9000E05393FAA3F3B3FA83F302F4E052DBB224
:100EA00022FA03F3024AD35CD84008BD003802405E
:100EB000106A000808B5FFF7C9FF084B9A684FF49D
:100EC000604393FAA3F3B3FA83F302F46042DBB214
:100ED00022FA03F3024AD35CD84008BD003802402E
:100EE000106A0008074AD36823F4E0631B041B0C54
:100EF00043F0BF6343F4003300F0070043EA0023EC
:100F0000D360704700ED00E02DE9F84306683369CF
:100F1000054623F44052C3682969C0691343AA688F
:100F20003361F36811436A6923F416430A430243A9
:100F300023F00C031343F360736923F44072AB692D
:100F4000B0F5004F43EA020373613F4B36D19E4236
:100F500003D003F580639E4216D1FFF7ABFF6F68A5
:100F6000192460437F00B0FBF7F7FFF7A3FF6A681F
:100F70004FF064086043B7FBF8F752003F01B0FB45
:100F8000F2F9FFF797FF15E0FFF77CFF6F68192470
:100F900060437F00B0FBF7F7FFF774FF6A684FF01C
:100FA00064086043B7FBF8F752003F01B0FBF2F969
:100FB000FFF768FF44436868400034E09E4202D077
:100FC000224B9E4216D1FFF775FF6F6819246043CC
:100FD000BF00B0FBF7F7FFF76DFF6A684FF06408DA
:100FE0006043B7FBF8F792003F01B0FBF2F9FFF75F
:100FF00061FF15E0FFF746FF6F6819246043BF00EB
:10100000B0FBF7F7FFF73EFF6A684FF064086043F4
:10101000B7FBF8F792003F01B0FBF2F9FFF732FFA0
:10102000444368688000B4FBF0F0B0FBF8F008FBC4
:10103000109212013232B2FBF8F303F00F033B437C
:10104000B360BDE8F88300BF001001400014014008
:10105000704710B5044630B390F8393003F0FF0202
:101060001BB980F83820FFF7F3FF2268022384F8C9
:101070003930D36823F40053D3602046FFF744FF90
:1010800023681A6922F490421A615A6922F02A02EE
:101090005A61DA6842F40052DA6000200123E0630A
:1010A00084F8393010BD012010BD7047224A036812
:1010B00090420ED0B0F1804F0BD0A2F57C4290420E
:1010C00007D002F58062904203D002F58062904220
:1010D00014D14A6823F070031343174A904225D075
:1010E000B0F1804F22D0154A90421FD002F58062A5
:1010F00090421BD002F58062904217D0104A904275
:1011000014D002F58062904210D002F580629042C5
:101110000CD003608B68C3620B688362064B9842F5
:1011200004BF0B690363012343617047CA6823F45A
:1011300040731343EDE700BF00000140000400408E
:101140000040014010B50446A0B190F8393003F0DA
:10115000FF021BB980F83820FFF7A7FF022384F8AD
:1011600039302068211DFFF7A1FF012384F83930B1
:10117000002010BD012010BD10B50123046A8B4072
:1011800024EA03030362036A8A401343036210BD27
:1011900010B5044601220068FFF7EEFF2368064AF7
:1011A000934202BF5A6C42F400425A641A6842F0F9
:1011B00001021A60002010BD0000014070470000CD
:1011C00008B50B4B1A6842F400721A601A6842F4B0
:1011D00080621A601A6842F480721A600320FFF776
:1011E00081FE0F2000F008F9FFF7E8FF002008BD9E
:1011F000003C0240024A136801331360704700BF8D
:1012000014030020014B1868704700BF140300202E
:101210002DE9F3410F68002301229A4002EA0705F5
:10122000954240F0B3804C6824F0100CBCF1020FE2
:1012300014D14FEAD30E00EB8E0E03F00706DEF852
:101240002020B6004FF00F0808FA06F822EA080836
:101250000A69B24048EA0202CEF820204FEA430E63
:101260000322066802FA0EF2D24302EA060804F0EC
:10127000030606FA0EF60CF1FF3C48EA0606BCF13E
:10128000010F066011D8866802EA060CCE6806FADD
:101290000EF64CEA06068660466826EA050CC4F39C
:1012A00000169E404CEA06064660C66802EA060C36
:1012B0008A6802FA0EF64CEA0602C260E20065D5C0
:1012C000364A566C46F480465664526C23F0030648
:1012D00006F1804602F4804206F59C36019203F046
:1012E000030C019AD6F808E04FEA8C0C0F2202FAA0
:1012F0000CF22EEA020E2A4A904212D002F58062C7
:10130000904210D002F5806290420ED002F58062C9
:1013100090420CD002F5806290420CBF042205225C
:1013200006E0002204E0012202E0022200E00322A3
:1013300002FA0CF242EA0E02DFF868E0B260DEF870
:101340000020EE4314F4803F14BF2A433240CEF80D
:101350000020DEF80420DFF84CE014F4003F14BF56
:101360002A433240CEF80420DEF8082014F4801F0F
:1013700014BF2A433240CEF80820DEF80C20A40225
:1013800054BF06EA02051543064AD5600133102B07
:101390007FF442AF02B0BDE8F08100BF00380240E8
:1013A00000000240003C014038B5114B1A68D1687A
:1013B00011F0020F1C4604D06FF002031361FFF717
:1013C0007DF82368DA68520711D56FF00402094DE1
:1013D0001A615C6A2B68E31AB3F57A7F07D3FFF7CB
:1013E00009FF034B2C601B6804F57A729A6338BDC1
:1013F0001C03002018030020234B37B51A6C234C24
:1014000042F008021A641A6C02F008020192019A72
:101410001A6A42F008021A621A6A22F008021A6274
:1014200000F062F81A4B23604FF0FF33E360194B72
:10143000194A1B68B3FBF2F30025013B20466360A9
:101440002561A5606561FFF77DFE3220134900F03C
:101450002BF8134B4FF480225A6029462046FFF7A1
:1014600097FE20460421FFF793FE23680D495A6A30
:101470000A6002F57A729A63DA68284642F004023A
:10148000DA6003B030BD00BF003802401C0300200A
:10149000000C00409801002040420F00A9130008F2
:1014A00000E100E01803002010B50C4CA268A4680D
:1014B000B4F1006F13460CD1131F094A53F8044FBF
:1014C00042F8044F074CA242F8D1044A4FF00053AF
:1014D0009360103043F8201010BD00BF00ED00E015
:1014E000FCFFFF1F90010020174A1849936803F082
:1014F0000C03042B03D0082B03D0154B18E0154B1D
:1015000016E05068536810F4800F03F03F035068F2
:1015100014BF104A0E4AB2FBF3F30B4A5268C2F3EF
:101520000142C0F38810013243435200B3FBF2F38F
:101530000B60054B084A9B68C3F30313D25C0B682E
:10154000D3400B60704700BF003802409801002074
:101550000024F40000127A00206A0008204B10B525
:101560001A6C42F080521A641B6C1E4A94B003F04D
:1015700080530193019B136823F4404343F40043D9
:101580001360136803F440430293029B0123089302
:1015900000B1052309934FF480030F9308231093A0
:1015A0004FF4A873119304230224129308A807236D
:1015B0000E941393FFF774F978B90F2303930590F2
:1015C0004FF480530790214603A804940693FFF735
:1015D000F7FAB0FA80F0400900E0002014B010BD26
:1015E0000038024000700040204B30B51A6C42F0C9
:1015F00080521A641B6C1E4A95B003F0805301930D
:10160000019B136823F4404343F4004313601368C1
:1016100003F440430293029B0323089301230B939B
:1016200010230C9310934FF4A873119304230024F8
:101630000225129308A8072309940E950F9413937B
:10164000FFF72EF978B90F23039305904FF48053D9
:101650000790294603A804950693FFF7B1FAB0FA5C
:1016600080F0400900E0204615B030BD003802404F
:101670000070004008B50120FFF770FF30B9FFF798
:101680006DFF18B9FFF7B0FF00B9FEE708BD000015
:10169000174AD2F8883010B543F47003154CC2F8DD
:1016A00088302368002143F001032360A160236890
:1016B00023F0847323F4803323600F4B636023682B
:1016C00023F4802323604FF00063E16093600B4BB1
:1016D0000B4A1A60FFF774FDFFF7CCFF236A43F053
:1016E00008032362236A23F00803236210BD00BFAE
:1016F00000ED00E000380240103000249801002086
:101700000024F40010B5054B0360044600F040F9D6
:10171000204600F077F9204610BD00BF386A000867
:10172000044A936819685368D268194218BF1B04A9
:10173000136070478803002010B50446FFF7E2FFEE
:10174000204600F069F9204610BD00000448054914
:1017500008B5054B83610023C36200F021F9FEE761
:1017600058030020A08601002117000838B50D4C51
:10177000204600F027F900250B4B2360A561E562A8
:1017800020460A4C0A490B4A00F048F929462046EF
:10179000102200F0B2FB20460521BDE83840FEF7DC
:1017A00066BE00BF58030020386A00088803002086
:1017B0000517000894010020044B1B6823B9044856
:1017C00002210322FEF752BF704700BF74020020BF
:1017D000B802002002284FF0000309DDC21E0749AD
:1017E00051F8220041F8223020B103685B681847A5
:1017F000184670474FF0FF30704700BF9803002035
:10180000022870B50C4615460FDC0E4B1B680BB951
:10181000FFF7D2FF6619B44205D00B4814F8011B3C
:10182000FEF7CAFFF7E7284670BD0338074B53F8A9
:10183000200020B10368BDE870401B6818474FF0D6
:10184000FF3070BD74020020B80200209803002011
:10185000022810B50C460ADC0B4B1B680BB9FFF7CE
:10186000ABFF0A48FEF792FF2070012010BD03383D
:10187000074B53F8200020B10368BDE810409B6877
:1018800018474FF0FF3010BD74020020B80200204E
:1018900098030020022807DD0338064B53F8200088
:1018A00020B10368DB681847012070474FF0FF3014
:1018B000704700BF98030020022807DD0338064B5D
:1018C00053F8200020B103681B69184700207047B7
:1018D0004FF0FF30704700BF98030020022808B582
:1018E00004D84FF400534B60002008BD00F0AAF864
:1018F000092303604FF0FF3008BD08B5012000F058
:10190000A7F8704708B5FEF780FEFFF7FAFFBDE8BD
:101910000840FFF71BBF0000074A13681844EFF3A5
:101920000881884229BF054B10600C224FF0FF3020
:101930002CBF1A60184670479C010020A0040020AC
:10194000074C08B523680546986800F043F92368FA
:10195000D86800F03FF90DB1FEF7F8FCFEE700BFD4
:10196000000200204368416910B50446194400F0A4
:101970003DF8E36A23B9A3694BB1BDE810401847AD
:10198000A06920B104F11C01BDE81040184710BD4A
:1019900010B5044600F030F80023A361E36210BDE7
:1019A00038B505460C4600F027F86C612869FEF74B
:1019B00043FD01192846BDE8384000F017B8036818
:1019C0009B681847074B10B5036000234360836092
:1019D000C3600446FEF76EFD03492061FEF7CAFCB2
:1019E000204610BD506A0008BF19000803460A4689
:1019F0000069191DFEF7EBBC014604310069FEF7D2
:101A000001BD000010B5034B03600446FFF7F4FF6F
:101A1000204610BD506A000800F032BA034608465E
:101A2000194600F001B8000038B5054604480C46D8
:101A3000134620B1022029462246AFF3008038BD6C
:101A400000000000014B1868704700BF0002002032
:101A500008B5074B044613B10021AFF30080054BD6
:101A60001868836A03B198472046FFF769FF00BFF3
:101A700000000000C46A00088A892DE9F04105468B
:101A800010070C4657D44B68002B02DC0B6C002B64
:101A900018DDE66AB6B102F48052002392B22F68D4
:101AA0002B600AB1626D10E0216A28460123B0471D
:101AB000411C024609D12B683BB11D2B01D0162BCE
:101AC00047D12F600020BDE8F081A3895B0705D5D1
:101AD0006368D21A636B0BB1236CD21AE66A216A6F
:101AE00000232846B047461CA38905D12A681AB1AD
:101AF0001D2A01D0162A19D100226260D904226958
:101B0000226004D5421C01D12B6803B96065616B6A
:101B10002F600029D6D004F14403994202D0284610
:101B200000F0F4F900206063BDE8F08143F0400369
:101B3000A381BDE8F0810F69002FC3D093070E6821
:101B400008BF4B690F6018BF0023C7EB06088B6006
:101B500012E0A38943F04003A3814FF0FF30BDE8BA
:101B6000F0812846216AA66A3A464346B0470028D3
:101B7000EFDD0744C0EB0808B8F1000FF1DCA1E786
:101B800038B50B6905460C46DBB118B183690BB952
:101B900000F072F80C4B9C4201D16C6808E00B4BD2
:101BA0009C4201D1AC6803E0094B9C4208BFEC6841
:101BB000B4F90C302BB128462146BDE83840FFF778
:101BC0005BBF002038BD00BF606A0008806A000863
:101BD000A06A0008014620B9044B0549186800F0C6
:101BE000B5B8044B1868FFF7CBBF00BFC46A000844
:101BF000811B000800020020014900F0A7B800BFC7
:101C0000811B0008002310B5044603604360836015
:101C100081814366C28103614361836119465C30FF
:101C2000082200F06AF9054B6362054BA362054B7D
:101C3000E362054B2462236310BD00BF253000081A
:101C4000473000087F300008A330000870B56823D3
:101C50004D1E5D430E4605F1740100F09BF90446EC
:101C600040B1002180E842000C30A06005F168021C
:101C700000F043F9204670BD836910B5044633BBBC
:101C80008364C3640365124B124A1B6882629842E4
:101C900004BF0123836100F01FF86060204600F05C
:101CA0001BF8A060204600F017F80421E060002235
:101CB0006068FFF7A7FFA06809210122FFF7A2FFD4
:101CC000E06812210222FFF79DFF0123A36110BDEE
:101CD000C46A0008F91B0008F8B51B4B1E68B369FD
:101CE000074613B93046FFF7C7FF4836B468736834
:101CF000013B04D4B4F90C5075B16834F8E733688B
:101D00002BB938460421FFF7A1FF306008B13668CF
:101D1000ECE70C233B60F8BD4FF6FF73E381012332
:101D2000A38165662560A560656025616561A56123
:101D300004F15C002946082200F0DFF86563A56322
:101D4000A564E5642046F8BDC46A00082DE9F8439F
:101D50008046894600F14804002694B1A56867686A
:101D6000013F0CD4AB89012B07D9B5F90E300133F3
:101D700003D040462946C84706436835F0E7246843
:101D8000EBE73046BDE8F88370B50E4B0E4CE41A15
:101D9000A41000251E46A54204D056F825309847C9
:101DA0000135F8E704F06AFD084C094BE41AA41069
:101DB00000251E46A54204D056F825309847013527
:101DC000F8E770BD400200204002002048020020D9
:101DD00040020020F0B58B899D0791B006460C4665
:101DE00026D4B1F90E10002909DAA38913F0800F67
:101DF0004FF0000514BF40274FF480670DE001AAA3
:101E000002F07AFF0028F0DB029D05F47045A5F58D
:101E100000514D424D414FF480673046394600F045
:101E2000B9F860B9A3899A051DD443F00203A381D0
:101E300004F14703236023610123636113E00B4B2B
:101E4000B362A389206043F08003A38120616761AE
:101E50004DB13046B4F90E1003F06CFA18B1A389F5
:101E600043F00103A38111B0F0BD00BFF91B0008CE
:101E7000024B0146186800F08DB800BF0002002038
:101E8000024B0146186800F041B800BF0002002074
:101E900010B5C9B202449042034606D01C788C4269
:101EA00000F10100F7D1184610BD002010BD10B59B
:101EB000431E0A44914204D011F8014B03F8014F2C
:101EC000F8E710BD814210B501EB020301D3421EB9
:101ED0000BE09842FBD28118D21AD34204D013F8F7
:101EE000014D01F8014DF8E710BD994204D011F8F9
:101EF000014B02F8014FF8E710BD0244034693423C
:101F000002D003F8011BFAE77047000030B5002942
:101F10003DD051F8042C0B1F1D49002AB8BF9B1857
:101F20000A680C4612B95A600B6030BD93420DD25C
:101F300019685818904201BF5A5852181A604268DE
:101F40005A60236030BD994203D80A46516800297F
:101F5000F9D1146815199D420AD11B682344D01881
:101F60008842136013D10868034413604B680DE086
:101F700002D90C23036030BD1C681819884204BFC5
:101F800008684968596004BF00191860536030BD83
:101F90009C04002070B5CC1C24F0030408340C2CE5
:101FA00038BF0C24002C064603DA0C2333600020D3
:101FB00070BD8C42F9D3204A136810461946A1B16E
:101FC0000A68121B0ED40B2A03D90A608B188C5096
:101FD0001FE08B420DBF5A684A685A60026018BF02
:101FE0000B4616E00B464968E9E7144D2B681BB910
:101FF000304600F0DFFF28603046214600F0DAFF6F
:10200000421C0346D1D0C51C25F0030585420AD1E8
:102010001C6003F10B001A1D20F00700821A0AD081
:102020005142995070BD3046E91A00F0C3FF0130AB
:10203000BBD02B46ECE770BD9C0400209804002028
:102040009368013B002B10B5936009DA9469A342B1
:1020500002DBCBB20A2B03D1BDE8104001F016BF62
:102060001368581C10601970C8B210BDF8B5064648
:102070000F461446D518AC4208D0304614F8011B60
:102080003A46FFF7DDFF431CF5D100E00020F8BD24
:102090002DE9F0439DB00D4690460393064618B1D6
:1020A00083690BB9FFF7E8FD754B9D4201D1756857
:1020B00008E0744B9D4201D1B56803E0724B9D422C
:1020C00008BFF568AB891C070AD52B6943B100230B
:1020D000099320238DF8293030238DF82A3041E0F0
:1020E0003046294601F038FF0028F0D04FF0FF308D
:1020F000C2E0039A111D12680391002ABBBF52422D
:1021000043F0020307920792B8BF04930134237887
:102110002E2B7BD0DFF88081217840460322FFF709
:10212000B7FE38B1049AC8EB000040238340134344
:1021300004930134217855488DF82810062204F1C3
:102140000108FFF7A5FE002800F08580504B002B0A
:1021500078D1039B073323F0070308330393099BCC
:102160003B44099343461C4613F8012B1AB9B4EBC0
:1021700008090ED002E0252AF5D1F8E730462946B5
:1021800042464B46FFF772FF013070D0099B4B442B
:1021900009932378002B6AD000234FF0FF32049379
:1021A0000793059206938DF853301A9304F10108B2
:1021B0004446DFF8E890217848460522FFF768FE9C
:1021C00008F10108049B30B1C9EB000001228240F4
:1021D00013430493ECE7D80644BF20228DF8532024
:1021E000190744BF2B228DF8532022782A2A80D049
:1021F000079923461C4601332278303A092A03D82E
:102200000A2000FB0121F5E7079180E763782A2B7C
:102210000AD1039B1A1D1B680392002BB8BF4FF015
:10222000FF330234059375E7611C00220C4601312F
:102230002378303B092B03D80A2000FB0232F5E754
:10224000059267E703AB0093304604A92A46114B79
:1022500000F0C4F807E003AB0093304604A92A4617
:102260000C4B00F077FB421C07467FF478AFAB893C
:102270005B063FF53BAF09981DB0BDE8F08300BF9A
:10228000606A0008806A0008A06A0008D26A000834
:10229000DD2300086D200008CE6A0008C86A000827
:1022A00030B51346044A05460C46106829462246B6
:1022B000BDE83040FFF7ECBE000200202DE9F047FA
:1022C00088B0002B149F1299109EDDF84CA01D467B
:1022D000B8BF05F1004327F02007B6BF1D46002315
:1022E0002D231446B8BF1446462F0B7003D0452F3C
:1022F00003D1013601E0032300E002238DE8480406
:1023000006AB039307AB049322462B4601F030FF44
:10231000472F804602D1119BDB0726D5462F08EBBD
:10232000060911D198F80030302B0AD120462946F1
:102330000022002304F0D8F918B9C6F10106CAF842
:102340000060DAF800309944204629460022002334
:1023500004F0CAF908B1CDF81C90079B4B4504D294
:102360005A1C079230221A70F7E7079B159AC8EBA0
:1023700003034046136008B0BDE8F08773B5034619
:102380000029B8BF494203F8022BB4BF2D222B22EB
:102390000929427019DD0DF1070426460A2291FB36
:1023A000F2F502FB15113031092D04F8011D294603
:1023B000F4DC3031651E04F8011CB5421A460AD21D
:1023C00015F8012B03F8012BF7E730241A462144B6
:1023D00002F8024B5970101A02B070BD2DE9F04F8F
:1023E00091B08B4615461E461A9F044602F0B2FF76
:1023F000D0F800A0504600F058FE00230E933B6832
:102400000990073323F0070303F108029BF81880B3
:102410003A60D3E90023CBE91223DBE9120100F093
:102420009FFD0128DBE9120119D10022002304F0ED
:1024300065F910B12D238BF84330A04BA04FB8F1B4
:10244000470F88BF1F460323CBF81030DBF800305E
:1024500023F00403CBF800304FF00009A1E000F0B6
:102460007FFDDBF8003048B9964A974FB8F1470F27
:1024700088BF17460322CBF81020E9E7DBF80420D9
:102480009BED127B571C8DED0A7B01D1062209E0E2
:10249000B8F1670F02D0B8F1470F05D1002A40F01C
:1024A000C7810122CBF80420DBF80420CDF810808E
:1024B00043F480638DE80C00CBF800300DF133035A
:1024C00002930DAB03930EAB0593002306932046B6
:1024D000DDE90A23FFF7F2FE08F0DF03472B07468A
:1024E0000AD10D9BD81C03DBDBF80420934237DDB7
:1024F000A8F102085FFA88F8B8F1650F0D9915D8B0
:10250000013942460BF150000D91FFF737FF0E9A4B
:102510008318012A8146CBF8103003DCDBF8002059
:10252000D10738D50133CBF8103034E0B8F1660F5D
:1025300018D10029DBF8043009DDCBF810101BB9E5
:10254000DBF80020D20721D501330B441CE01BB976
:10255000DBF80020D00701D5023315E0012313E09A
:102560004FF067080D9B0E9A934207DBDBF80020C3
:10257000CBF81030D10709D5013305E0002BD4BFCB
:10258000C3F1020301231344CBF810300D9BCBF8A9
:1025900058304FF000099DF8333013B12D238BF8DC
:1025A00043300096204659460FAA2B4600F05CF9AE
:1025B000013002D14FF0FF3052E1DBF800305A0514
:1025C00005D4204629463A46DBF8103008E1B8F138
:1025D000650F40F2D080DBE912010022002304F0F5
:1025E00083F850B320462946384A0123B0470130CA
:1025F000E0D00E9B0D9A9A4209DBDBF80030D80739
:1026000005D4DBF800309F0700F1108107E1204678
:1026100029465246099BB0470130CBD000270E9B7C
:10262000013B9F42EDDA204629460BF11A020123B5
:10263000B0470130BED00137F1E70D9B002B29DCFC
:1026400020462946214A0123B0470130B2D00D9BD4
:102650002BB90E9B1BB9DBF80030D907D1D520462A
:1026600029465246099BB0470130A3D04FF00008DD
:102670000D9B5B4298452046294608DA0BF11A0269
:102680000123B047013095D008F10108F0E73A4640
:102690000E9BA5E0DBF858200E9B9A42A8BF1A4675
:1026A000002A914602DC4FF000081CE02046294633
:1026B0003A464B46B0470130F5D17BE7DD6A00086A
:1026C000D96A0008E56A0008E16A0008E96A0008BA
:1026D000204629460BF11A020123B04701303FF48E
:1026E00069AF08F10108DBF85830B9F1000FACBF51
:1026F000C9EB03021A469045EADB07EB03080D9A83
:102700000E9B9A4210DBDBF80030DA070CD40E9AED
:102710001744C8EB07030D9FD21B9342A8BF134673
:10272000002B1F4608DC0EE0204629465246099B36
:10273000B0470130EBD13DE7204629464246B0473D
:1027400001303FF437AF4FF000080AE02046294639
:102750000BF11A020123B04701303FF42BAF08F10F
:1027600001080D9A0E9B002FA3EB0203A8BFDB1BF1
:102770009845EBDB45E70E9A012A01DCDB0736D5ED
:10278000204629463A460123B04701303FF412AFB4
:10279000204629465246099BB04701303FF40AAF14
:1027A000DBE912010022002303F09EFFE8B90E9B33
:1027B000204629467A1C013B1DE0204629460BF1A4
:1027C0001A020123B04701303FF4F4AE01370E9BEB
:1027D000013B9F42F1DB204629460BF150024B465C
:1027E000B04701307FF40DAFE4E60027EFE7204665
:1027F00029463A460123B0470130ECD1DAE62046BB
:1028000029460BF119020123B04701303FF4D2AE43
:102810000137DBF80C300F9A9B1A9F42EFDBDBF895
:102820000C000F9B9842B8BF184619E00027F0E74C
:1028300043F480638DE80C00CBF800300DF13303D6
:1028400002930DAB03930EAB059300230693CDF8D3
:1028500010802046DDE90A23FFF730FD074640E6F9
:1028600011B0BDE8F08F00BF2DE9F84391461F4637
:102870008A680B69DDF820809342B8BF1346C9F817
:10288000003091F8432006460C4612B10133C9F8D6
:1028900000302368990642BFD9F800300233C9F8E6
:1028A0000030256815F006051CD094F843302268E6
:1028B000003318BF012392061FD5E1185A1C30209F
:1028C00081F84300224494F8451082F84310023303
:1028D00013E03046394604F119020123C0470130A4
:1028E00007D00135E368D9F800209B1A9D42F0DB40
:1028F000DBE74FF0FF30BDE8F8833046394604F19E
:102900004302C0470130F4D02268D9F80050E36890
:1029100002F00602042A08BF5D1B2269A3680CBFEF
:1029200025EAE57500259342C4BF9B1AED184FF0C8
:102930000009A9450ADA3046394604F11A02012392
:10294000C0470130D5D009F10109F2E70020BDE808
:10295000F88300002DE9FF410C461746227E6E2ABF
:10296000984606460A9B01F1430100F0AF8012D859
:10297000632A23D00AD8002A00F0BC80582A40F0ED
:10298000CB8084F84520DFF804E257E0642A1ED0AB
:10299000692A1CD0C0E0732A00F0B08009D86F2AE1
:1029A0002ED0702A40F0B880226842F020022260C7
:1029B0003FE0752A24D0782A3BD0ADE01A68111D7B
:1029C0001960136884F8423004F14205A8E02068D9
:1029D0001A6810F0800F02D0101D186008E010F087
:1029E000400F02F10400186002D0B2F9003000E09C
:1029F0001368002B3EDA2D225B4284F8432039E035
:102A000020681A6810F0800F02D0101D186007E0CF
:102A100010F0400F02F10400186001D0138800E0AC
:102A20001368227EDFF864E16F2A0CBF08220A22B5
:102A30001CE07822DFF858E184F845202268186805
:102A400012F0800F00F104051D6003D1550601D579
:102A5000038800E00368D00744BF42F020022260F0
:102A60001BB9226822F0200222601022002084F884
:102A7000430002E0DFF814E10A226568A560002D3A
:102A8000A2BF206820F00400206003B965B10D46A4
:102A9000B3FBF2F002FB10331EF8033005F8013DE2
:102AA00003460028F4D100E00D46082A0BD1236824
:102AB000DA0708D5236962689A42DEBF302305F839
:102AC000013C05F1FF35491B21612EE025681A689C
:102AD000606915F0800F03D0151D1D60136808E0B4
:102AE00015F0400F02F104051D60136801D0188035
:102AF00000E01860002323610D4616E01A68111DDE
:102B000019601568626828460021FFF7C1F908B10D
:102B1000401B6060636804E004F1420584F84220D1
:102B200001232361002384F84330CDF80080304630
:102B3000214603AA3B46FFF797FE013002D14FF032
:102B4000FF301FE0304639462A462369C04701302E
:102B5000F5D023689B0705D4E068039B9842B8BF73
:102B600018460FE00025E368039A9B1A9D42F3DAAA
:102B70003046394604F119020123C0470130DED046
:102B80000135F0E704B0BDE8F08100BFEB6A000852
:102B9000FC6A00082DE9F04F99468B6815465A1ECD
:102BA000B2F5AE7F81BF6FF4AE7203EB020C40F260
:102BB0005D138B600B680F4643F4F06387B047F8F2
:102BC0001C3B4FF0000B06460C4698BF4FF0000C24
:102BD000B8465A46CDF80CB0CDF808B0DA46CDF874
:102BE00004B0A168002900F0EC802B681B78492B09
:102BF00070D016D8392B0DD8312B40D22D2B46D082
:102C000002D82B2B43D0DCE02E2B00F09280302B0F
:102C100023D0D6E0452B00F09580462B77D0412B72
:102C20000CE0652B00F08E800AD8542B75D002D8AA
:102C30004E2B34D0C5E0592B75D0612B46D0C0E067
:102C40006E2B2CD004D8662B61D0692B42D0B8E013
:102C5000742B62D0792B66D0B3E0206810F4807FAB
:102C60000DD020F0800020600AF1010ABCF1000FB5
:102C700000F08A8001310CF1FF3CA16084E012EB8E
:102C80000B0F40F09E80216821F4C07105E021689F
:102C9000080640F1968021F08001216070E06AB959
:102CA000BAF1000F0CD1216801F4E060B0F5E06FDB
:102CB00006D121F4F0612160012261E0022A5ED098
:102CC000BBF1010F1ED0BBF1040F1AE0012A78D12D
:102CD000022255E0BBF1000F0ED1BAF1000F73D103
:102CE000216801F4E060B0F5E06F71D121F4F0618A
:102CF00021604FF0010B43E0BBF1030F02D0BBF1A9
:102D0000050F5ED10BF1010B5FFA8BFB38E0BBF1D5
:102D1000020F56D14FF0030B32E0BBF1060F50D13A
:102D20004FF0070B2CE0BBF1070F4AD14FF0080B17
:102D300026E02168880544D521F420712160CDF872
:102D400004A01DE0216801F4A060B0F5806F04D0FC
:102D5000480536D5BAF1000F3AD088055CBF019816
:102D6000CDF80C8021F4F06158BFC0EB0A0041F4AB
:102D7000C07158BF029021604FF0000A00E00322AA
:102D800088F8003008F10108A368013BA3602369BB
:102D9000013323616B68013B002B6B6003DD2B6803
:102DA00001332B601DE7D4F8803105923046294667
:102DB000CDF810C09847DDF810C0059A00283FF400
:102DC00010AFBAF1000F03D0236823F4807323609F
:102DD000013A012A0ED8B8450AD9D4F87C3118F83E
:102DE000011D30462A4698472369013B2361F2E7DB
:102DF0000125AEE00BF1FF33062B22D8BBF1020F09
:102E000012D9ABF1030B5FFA8BFBCBEB080BD84568
:102E100017D0D4F87C3118F8011D30462A4698475F
:102E20002369013B2361F2E7B845E1D9D4F87C314D
:102E300018F8011D30462A4698472369013B236153
:102E4000F2E72368DA052CD55B050CD5B845CFD958
:102E5000D4F87C3118F8011D30462A46984723697A
:102E6000013B2361F2E718F8011C2369652903F18E
:102E7000FF3308F1FF3B23610DD045290BD0D4F877
:102E80007C3130462A469847236918F8021C013BDA
:102E9000A8F1020B2361D4F87C3130462A469847CA
:102EA000D846256815F0100552D188F800502368DF
:102EB00003F4C063B3F5806F05D1019BC3EB0A0334
:102EC0005A426BB916E0029BA3B1039B2A46591CD8
:102ED00030460A2300F054FF029BDDF80C80C21A32
:102EE00004F26F13984528BF04F5B77840461B4994
:102EF00000F074F830463946002200F02DF92268BF
:102F0000D9F8003012F0020F06460F4603D01A1D02
:102F1000C9F8002006E012F0040F03F10402C9F81A
:102F2000002003D01B68C3E900670DE0D3F80080E0
:102F300000F016F810B900F04DF803E030463946BD
:102F400003F04CFCC8F80000E3680133E36000E0E4
:102F50000025284607B0BDE8F08F00BF0D6B0008C4
:102F60000A4631F0004110B503461BD00F48A2F5C8
:102F70008014844210D902F1FF420C4802F5E002AD
:102F8000824209D9B1F5801F08D3094A914207D17D
:102F9000B3FA83F0400910BD042010BD032010BD1A
:102FA000002010BD0028E6D1022010BDFFFFDF7F0A
:102FB0000000F07F38B5064C002305460846236024
:102FC000FEF7AAFC431C02D1236803B12B6038BD75
:102FD000A0040020004870470000C07F0EB400B578
:102FE0009CB04FF40271ADF814106FF000410491E1
:102FF00007914FF6FF711DABADF81610084953F855
:10300000042B029006900868019302A902F03EFE8C
:10301000029B00221A701CB05DF804EB03B07047ED
:103020000002002010B50C46B1F90E1002F020FF8E
:103030000028ABBF636DA3891B1823F48053ACBF7A
:103040006365A38110BD2DE9F0411D468B89DB0529
:1030500007460C46164605D5B1F90E10002202238C
:1030600002F07CF9A389B4F90E1023F48053A381F4
:10307000384632462B46BDE8F04100F05BBF10B544
:103080000C46B1F90E1002F069F9431CA38915BF73
:10309000606523F4805343F48053A38118BFA38158
:1030A00010BDB1F90E1000F0C3BF034613F8012B99
:1030B000002AFBD1181A0138704770B5AAB1451E15
:1030C00001396B7811F8014FA34205F1010606D1D1
:1030D0006FF00104641B1444E04202D11C46181B2B
:1030E00070BD3546002BECD1F8E7104670BD30B509
:1030F000036811F8014B01334CB11A78A2F1410574
:10310000192D98BF2032A242F3D0002030BD0360B9
:10311000012030BD2DE9F0410F46904602F0FEFB44
:1031200004460D46B8F1000F11D0C7F30A53C3F19E
:103130006B03002B0BDD1B0503F17F55002405F508
:10314000401522462B4603F067F8BDE8F081204683
:103150002946BDE8F08100002DE9F04F9FB0002323
:1031600083468A4616921A934FF000084FF00009E2
:103170001991199B1A780D2A05D8092A13D2002A09
:1031800000F0BE8112E02B2A06D02D2A02D0202A80
:103190000CD108E0012200E0002209925A1C199289
:1031A0005B782BB9ACE101331993E2E70023099373
:1031B000199C2378302B5CD16378582B01D0782B65
:1031C0004CD11AAB0093099B0193584619A9B14AF7
:1031D0001BAB01F0EEFD10F00706054600F09B85E5
:1031E000062E05D1013400231994099300F093BDF4
:1031F0001A9A3AB11CA8352102F07EFC58461A9959
:1032000002F0F3F81B9A062E21D8DFE806F0040D31
:1032100008171C0D04004FF00009C84617E0DDF840
:103220007080DDF8749012E01D9BDDF8708002F272
:10323000334223F4801343EA025908E0DFF858923E
:103240004FF0000803E06FF000494FF0FF38290706
:1032500040F1618549F0004900F05DBD199B5A1CA1
:1032600019925B78302BF9D0002B00F054850123A4
:1032700000E0002300260493199B0593039635462E
:10328000199C2778A7F13003DAB2092A10D8082D43
:10329000D8BF03994FF00A02D8BF02FB013304F1F3
:1032A0000104D4BF039302FB063601351994E7E706
:1032B000584602F04FF801680291584602F04AF869
:1032C0000068FFF7F2FE029902462046FFF7F5FE7E
:1032D00028B100203B462C46029007465DE0029054
:1032E000584602F037F80068FFF7DFFE199B029995
:1032F0001A1819921B5C002D47D12846302B05D196
:10330000199B5A1C199201305B78F7E7A3F131023F
:10331000082A48D8199A0290002005920446303BAA
:1033200000F101012BD0029A0A44029207192146AA
:10333000B94213D0013101F1FF3EBEF1080F06DCA6
:10334000039A4FF00A0E0EFB02F20392F0E71029E7
:10335000DCBF4FF00A0E0EFB06F6E9E72044082812
:1033600000F1010405DC039A0A2101FB02330393F7
:1033700004E0102CDCBF0A2101FB06360021199B5A
:10338000581C19905B78084602E02C4608460291CA
:10339000A3F130010929C2D90127652B01D0452BA2
:1033A00060D174B905E0652B40F0C384002302931B
:1033B000012728B9049B002B00F0A280044600E0FE
:1033C0000024DDF864A00AF1010319939AF8013092
:1033D0002B2B07D02D2B02D04FF0000C09E04FF023
:1033E000010C01E04FF0000C0AF1020319939AF866
:1033F0000230A3F13001092932D81946302904D10D
:10340000199B591C19915978F8E7A1F1310EBEF1B9
:10341000080F0B4626D8199B06933039199B03F1E8
:10342000010ECDF864E05B78A3F13002092A05D8DB
:103430004FF00A0E0EFB01313039EFE7069AC2EB6E
:103440000E0EBEF1080F44F61F6E03DC7145A8BFD7
:10345000714600E07146BCF1000F04D0494202E021
:10346000CDF864A00021002C54D1002840F05384F2
:10347000049A002A40F04F84002F41D14E2B20D0D7
:1034800002DC492B0AD03BE0692B07D06E2B18D009
:1034900036E000BF506B00080000F07F19A8A64975
:1034A000FFF725FE60B3199BA449013B19A81993A6
:1034B000FFF71DFE10B9199B01331993DFF89492A1
:1034C0001AE019A89E49FFF712FEC8B1199B1B7894
:1034D000282B0FD119A89B491CAA01F0A1FE052891
:1034E00008D11D9BDDF8708043F0FF4949F4E009E5
:1034F00000F011BCDFF860924FF0000800F00BBC48
:10350000169BCDF864A0002B00F0108400230993D3
:1035100000F003BC029B0398CB1A002D14BFAA46EF
:10352000A246102C25460493A8BF102502F0FEFDEC
:10353000092D8046894613DD834B03EBC50353E910
:10354000122302F069FE80463046894602F0EEFD05
:1035500002460B464046494602F0ACFC804689468E
:103560000F2C37DC049B002B00F0D58324DD162BB9
:1035700007DC754A02EBC302D2E900014B46424622
:1035800015E0049AC4F125039A4223DC6E4DC4F180
:103590000F0405EBC403D3E9000142464B4602F099
:1035A0003BFE049B1C1B05EBC405D5E9002302F080
:1035B00033FE80468946AEE3049B13F1160F09DB08
:1035C000614AA2EBC30240464946D2E9002302F019
:1035D0004DFFEEE7049B651B1D44002D54DD15F0E7
:1035E0000F020AD0584B03EBC203D3E90001424655
:1035F0004B4602F011FE8046894635F00F0500F07B
:10360000B180B5F59A7F0BDD0024A24605940394A2
:103610002223CBF80030DFF83C914FF0000880E126
:103620004946DFF838912D11404600274E46012DBE
:103630000ADDEA0703D5D9E9002302F0EDFD0137E1
:103640006D1009F10809F2E78046A1F1547906EB03
:10365000C70642464B46D6E9000102F0DDFD21F0E7
:10366000004389460A461B0D38491B058B4280469C
:10367000CAD8A1F580118B4286BFDFF8E4904FF0E5
:10368000FF3802F154796DE06CD06D4215F00F02F5
:103690000AD02D4B03EBC20340464946D3E9002331
:1036A00002F0E4FE804689462D115BD01F2D04DD1B
:1036B0000024A246059403942CE115F0100F0CBFD2
:1036C00000236A23224E029340464946002D08DD1E
:1036D000EB0703D5D6E9002302F09EFD6D100836F6
:1036E000F4E7029B80468946EBB1C1F30A53C3F16C
:1036F0006B03002B0A4616DD1F2B0EDD342BDEBFBD
:10370000203B4FF0FF3101FA03F34FF00008CCBF2C
:103710004FF05C7903EA020905E04FF0FF3202FA4C
:1037200003F303EA0008404649460022002302F062
:10373000DBFF0028BCD117E0DE6A0008686C0008D7
:10374000E66A0008146B0008786C00080000A07C92
:10375000286B00080000F07F0000F8FF406D0008B3
:10376000FFFFEF7F00230293039B009358460599C8
:103770005246234601F08EFE059000283FF444AFE8
:10378000049A049B002AC3F100034FF00004A8BF71
:1037900000231293A246059B5846596801F0F0FD9C
:1037A000039000283FF434AF059B1A69059B023251
:1037B00003F10C0192000C30FEF779FB1BAB009378
:1037C0001CAB0193584642464B46CDE90A8902F0AC
:1037D00018F91A9000283FF41BAF5846012101F058
:1037E000E6FE824600283FF413AF049B02991C9D1D
:1037F00023EAE37308931B9B002BADBF129A089A30
:10380000129ED618B8BFD21AA3EB01032B446FF453
:103810007F71A8BF089A8B42C5F1360580F2868079
:10382000C91A1F29A5EB0105C8BFB3494FF0010014
:10383000D5BF00FA01F3C91A139300FA01F3D9BFF7
:1038400000230693069313907719029BB742154401
:103850001D443B46A8BF3346AB42A8BF2B46002BB6
:10386000C2BFFF1AED1AF61A129B002B63D1002F6C
:103870007ADC089B002B40F08180002D00F38880CB
:10388000002E00F38F8058461A99039A01F0E7FF43
:10389000044600283FF4BCAEC36808930023C3600D
:1038A000514601F0C0FF002880F28A80089B002B5F
:1038B00040F00A82B8F1000F40F00682C9F313030A
:1038C000002B40F0018229F000431B0D1B05B3F1D2
:1038D000D66F40F2F9816369002B6DD02146012239
:1038E000584601F04DFF5146044601F09CFF002868
:1038F00040F3EA8129F00043029A1B0D1B05002AC0
:1039000000F08D80B3F1D66F00F38980B3F15C7F56
:1039100000F3DC8122234FF000084FF00009CBF8C0
:103920000030059B002B40F0E281F4E10023069378
:103930000123139388E7514658461A4601F0D2FEF8
:10394000824600283FF464AE584651461A9A01F068
:1039500037FE179000283FF45BAE58461A9901F0E5
:1039600044FD179B1A9382E758461A993A4601F08C
:1039700007FF1A9000287FF47CAF49E65846039968
:10398000089A01F0AFFE039000287FF476AF3FE67F
:10399000584603992A4601F0F3FE039000287FF46D
:1039A0006FAF35E651465846324601F0E9FE824691
:1039B00000287FF468AF2BE62369012B8EDC83E1BE
:1039C00062D1089AC9F3130322B34C498B424A4689
:1039D0002ED1029B414663B1494B1340B3F1D46FE2
:1039E00007D81B0DC3F16B034FF0FF3000FA03F350
:1039F00001E04FF0FF3399421AD1424B9A4202D173
:103A000001313FF405AE3E4B134003F580194FF0F2
:103A1000000859E163B9B8F1000F09D16AE7A3F5CD
:103A200080136FEA13596FEA09594FF0FF384BE1E1
:103A3000069B13B113EA090F02E0139B13EA080F68
:103A400000F04281089B029A4046494653B1FFF775
:103A500061FB02460B46DDE90A0102F02BFA8046C3
:103A6000894631E1FFF756FB02460B46DDE90A01C4
:103A700002F01EFA002200238046894602F034FE3E
:103A800000287FF447AF1FE12046514602F00BF8B3
:103A900000224FF0804306460F4602F039FE002810
:103AA00041D0089B13B10022174B0FE0B8F1000F73
:103AB00003D1C9F313033BB90DE0B8F1010F03D1F2
:103AC000B9F1000F3FF426AF104B0022CDE90623D9
:103AD00000260D4F3CE03046394600220A4B02F0EA
:103AE0000DFEB8B9304639460022094B02F094FB6E
:103AF00006460F4610E000BFE3FBFFFFFFFF0F008D
:103B00000000F07FFFFFEF7F0000F03F0000F0BFFC
:103B10000000E03F944F002607F1004314961593F0
:103B2000DDE9142312E0304639468F4B002202F0C3
:103B300073FB089B06460F4623B901F100430E9024
:103B40000F9301E0CDE90E67DDE90E23CDE90623F1
:103B500029F000452D0D854B2D059D422DD1DDE928
:103B60000A23A9F1547940464946CDE90C2301F0D6
:103B7000D5FE02460B46DDE9060102F04DFB02468A
:103B80000B464046494602F095F921F000431B0DD3
:103B9000774A1B05934280460CD9764B0D9A9A4280
:103BA00003D10C9B01333FF433ADDFF8C8914FF0E4
:103BB000FF3878E001F154793DE0029B3BB3B5F169
:103BC000D46F24D8304639465FA3D3E9002302F0EE
:103BD0009FFDB8B13946304602F0E0FD002808BF2D
:103BE000012002F0A3FA089B06460F4623B901F113
:103BF00000431090119301E0CDE91067DDE9102337
:103C0000CDE90623079B03F1D6635B1B0793DDE930
:103C10000A01DDE9068901F081FE02460B464046B5
:103C2000494602F0F9FA02460B46DDE90A0102F0C4
:103C300041F980468946029BABBB29F000431B0D2E
:103C40001B059D422FD139463046CDF8189002F021
:103C50007DFD02F07BFA0B4602463946304602F003
:103C600027F9089BDDF818C006460F462BB9B8F1B6
:103C7000000F02D1CCF313037BB13046394634A395
:103C8000D3E9002302F03AFD88BB3046394632A31F
:103C9000D3E9002302F050FD04E031A3D3E900236F
:103CA00002F02CFD18BB58461A9901F09EFB5846AD
:103CB000039901F09AFB5846514601F096FB58468D
:103CC000214601F092FB66E5029B83B12A4B0D93DE
:103CD00000230C9340464946DDE90C2302F09CFA90
:103CE0008046894619B910B92223CBF800305846CE
:103CF0001A9901F07AFB5846039901F076FB584671
:103D0000514601F072FB5846059901F06EFB58468A
:103D1000214601F06AFB169B13B1169A199B13609A
:103D2000099B1BB1404609F1004107E04046494666
:103D300004E0002402940127FFF731BB1FB0BDE867
:103D4000F08F00BFAFF300800000C0FFFFFFDF4136
:103D50009535A094FFFFDF3F35E5AF350000E03F2C
:103D60009535A094FFFFCF3F0000E03F0000E07FCB
:103D7000FFFF9F7CFFFFEF7F00005039AFF3008013
:103D80002DE9F047404CD4F800900F463D4615F819
:103D900001EB09EB0E04667806F0080404F0FF0658
:103DA0000CB12F46F2E774462D2C03D1BD1C7C7854
:103DB000012603E02B2C04BF7C78BD1C13B1102B13
:103DC0000AD15AE0302C56D12C7804F0DF04582C5C
:103DD0004CD16C7810230235002E14BF4FF00048F0
:103DE0006FF000480027B8FBF3FABE4603FB1A88C1
:103DF00009EB040C9CF801C01CF0040F01D0303C0E
:103E00000BE01CF0030C1BD0BCF1010F0CBF4FF0FA
:103E1000370C4FF0570CCCEB04049C4210DAB7F18E
:103E2000FF3F0AD0D64506D801D1444503DC03FB49
:103E30000E4E012701E04FF0FF3715F8014BD7E791
:103E40007C1C73460AD1002E4FF0220114BF4FF0A4
:103E500000436FF0004301602AB911E00EB1CEF1CA
:103E600000036AB107B1691E116009E03024002B1C
:103E7000B2D10823B0E70A23AEE7302CACD1A3E7D8
:103E80001846BDE8F08700BF0402002070B50D465B
:103E90001446064618B183690BB9FDF7EDFE224BB7
:103EA0009C4201D1746808E0204B9C4201D1B46867
:103EB00003E01F4B9C4208BFF468A369A360A38979
:103EC0001A0709D523693BB123682069181A636969
:103ED0009842EDB20FDB08E03046214600F03CF896
:103EE0000028F1D04FF0FF3070BD30462146FDF77D
:103EF00047FE0028F6D1A368013BA36023685A1C43
:103F000022601D7063690130984204D0A389DB07E9
:103F100007D50A2D05D130462146FDF731FE002890
:103F2000E0D1284670BD00BF606A0008806A0008C2
:103F3000A06A000838B5074C0546002020600846F6
:103F400011461A46FDF75CFC431C02D1236803B1FD
:103F50002B6038BDA0040020314B70B51D680646AB
:103F60000C4625B1AB6913B92846FDF785FE2D4BEC
:103F70009C4201D16C6808E02B4B9C4201D1AC689B
:103F800003E02A4B9C4208BFEC68A3899AB2110750
:103F90001DD4D50602D40922326038E0500712D56C
:103FA000616B41B104F14403994202D03046FDF700
:103FB000ADFF00236363A38923F02403A3810023BF
:103FC000636023692360A38943F00803A381236905
:103FD0004BB9A38903F42073B3F5007F03D03046B7
:103FE0002146FDF7F7FEA38913F0010205D0002258
:103FF000A26062695242A26103E0990758BF6269F8
:10400000A26022694AB903F0800080B230B143F067
:104010004003A3814FF0FF3070BD002070BD00BF92
:1040200000020020606A0008806A0008A06A000898
:1040300038B5064C0023054608462360FDF7CAFB49
:10404000431C02D1236803B12B6038BDA0040020BB
:104050002DE9F74F03690C69A3428046C0F28180C5
:10406000013C01F114074FEA840E00F1140657F8E1
:10407000245006EB0E030193013556F82430B3FBB0
:10408000F5F507EB0E09C5B34FF0000A3846B44604
:10409000D34650F8043B9AB21B0C02FB05A26B43BB
:1040A00003EB124392B2C2EB0B02BCF800B04FEA32
:1040B000134A12FA8BF21FFA83FBDCF80030CBEBC9
:1040C000134303EB224392B242EA034248454FEACC
:1040D000234B4CF8042BDCD956F80E306BB9019BFE
:1040E000043BB3421A4602D8C8F8104005E01268F3
:1040F000043B002AF8D1013CF3E7404601F093FB72
:1041000000282CDB013530464FF0000E57F8041B19
:10411000D0F800C08AB2C2EB0E03090C13FA8CF37C
:10412000C1EB1C4202EB23429BB243EA02434F45E0
:104130004FEA224E40F8043BE8D956F8242006EB1B
:10414000840362B9043BB3421A4602D8C8F810404F
:1041500005E01268043B002AF8D1013CF3E7284649
:1041600000E0002003B0BDE8F08F00000000000078
:104170002DE9F04F456A97B08246239CCDE9022392
:1041800045B91020FDF774FECAF82400456085602B
:104190000560C560DAF82430196859B15A684A6078
:1041A000012393408B60504601F01FF9DAF8243068
:1041B00000221A60039BA24A002BBFBF0123236089
:1041C000039B23F00043B8BF0393039FA4BF0023C6
:1041D000236027F000431B0D1B0593421DD1229A3B
:1041E00042F20F731360029B43B9964A964BC7F392
:1041F0001300002814BF1846104600E09248249B84
:10420000002B00F07385C37813B100F1080300E0C0
:10421000C31C249A136000F069BDDDE90245002249
:1042200020462946002302F05FFA804658B1229AC0
:1042300001231360249B002B00F0468583481860FF
:10424000013800F053BD15AB009314AB01935046F9
:1042500022462B4601F0D5FBC7F30A5607905EB104
:10426000C5F3130343F07F51204641F44011A6F2F9
:10427000FF36CDF84C801DE0159B149E1E446FF454
:1042800082639E42ADBF029A714B029A06F21243BC
:10429000A3BF22FA03F06F4B9B1B9B1BAABF9F403F
:1042A00002FA03F0384301F041FF0123A1F1F87154
:1042B000013E13930022684B01F0FAFD5AA3D3E9A3
:1042C000002301F0A9FF5AA3D3E9002301F0F2FD76
:1042D000044630460D4601F039FF57A3D3E90023C9
:1042E00001F09AFF02460B462046294601F0E2FD06
:1042F00004460D4602F02AFA29468346002220464B
:10430000002302F0FBF958B1584601F01FFF0246A6
:104310000B462046294602F0E7F908B90BF1FF3BAE
:10432000BBF1160F0DD84D4B03EBCB03D3E90001C6
:10433000DDE9022302F000FA30B10BF1FF3B00236C
:1043400000E00123129300E01290149B9E1B731E49
:104350000A9345BF5B420993002300234CBF0A9395
:104360000993BBF1000F07DB0A9BCDF834B05B4427
:104370000A9300230B9308E0099BCBEB03030993FB
:10438000CBF100030B9300230D93209B092B28D81E
:10439000052BC4BF043B2093209BA3F10203CCBF99
:1043A00000250125032B21D8DFE803F0020E0410BD
:1043B000002300E001230C93219B002B20DC012330
:1043C000069305931A4619E0002300E001230C939D
:1043D000219B5B4406930133012B0593B8BF012356
:1043E00011E00125002320930C9501E001230C939B
:1043F0004FF0FF330693059300221223219202E02F
:10440000219B06930593DAF8244000226260042180
:1044100001F114029A4223D86268013262604900B5
:10442000F6E700BFAFF3008061436F63A787D23F19
:10443000B3C8608B288AC63FFB799F501344D33F93
:104440000000F07F656C00086E6C0008EA6A0008E6
:10445000EEFBFFFF0EFCFFFF0000F83F786C00084A
:104460005046616800F08CFFDAF8243020601B6849
:104470000893059B0E2B00F24B81002D00F0488124
:104480009DED027BBBF1000F8DED107B31DDB34A5A
:104490000BF00F034FEA2B1702EBC303F806D3E927
:1044A00000450CD5AE4B51EC170BD3E9082301F0B6
:1044B000DDFF07F00F07CDE90201032600E0022629
:1044C000DFF89C8277B1F90708D520462946D8E95C
:1044D000002301F0A1FE013604460D467F1008F1CD
:1044E0000808EFE7DDE9020122462B4601F0BEFF96
:1044F0001BE0CBF10004DCB1984B994D04F00F02A6
:1045000003EBC203DDE91001D3E9002301F084FECF
:10451000241102264CB1E20704D5D5E90023013667
:1045200001F07AFE64100835F4E7CDE9020100E0FD
:104530000226129BDBB1DDE9024500222046294616
:10454000884B02F0DBF890B1059B83B1069B002BF2
:1045500040F3DA80294620460022834B01F05CFEBE
:104560000BF1FF37CDE902010136069D01E0059D03
:104570005F469DED027B30468DED0E7B01F0E6FD42
:10458000DDE90E2301F048FE0022784B01F092FC99
:104590008046A1F15079CDB90022754BDDE90E01BD
:1045A00001F086FC42464B46CDE9020102F0C4F818
:1045B000002840F04682424609F10043DDE902014D
:1045C00002F09CF8002840F036829DE0634B0C9985
:1045D0006A1E03EBC203002949D0D3E9002300205F
:1045E000644901F043FF42464B4601F061FCDDE9BE
:1045F0000E89CDE90201089C4946404602F0A6F822
:10460000064601F0A3FD02460B464046494601F02E
:104610004FFC303604F8016BDDE902238046894601
:1046200002F06CF8002840F0408342464B460020E0
:104630004C4901F03DFCDDE9022302F05FF800285F
:1046400040F0D380089BE31AAB425DDADDE902015A
:104650000022454B01F0E0FD0022CDE90201424B72
:104660004046494601F0D8FD80468946C4E7D3E973
:10467000000142464B4601F0CFFD089BCDE9020107
:10468000DDE90E895C191D464946404602F05EF898
:10469000064601F05BFD303602460B464046494671
:1046A00001F006FC05F8016BA5428046894624D13D
:1046B0000022304BDDE9020101F0FCFB02460B4613
:1046C0004046494602F038F8002840F08E80DDE987
:1046D00002230020274901F0EBFB02460B4640462F
:1046E000494602F00BF878B114F8013C302B04F184
:1046F000FF3240F0DA821446F6E700221A4B01F04E
:104700008BFD80468946BFE7DDE91023CDE9022312
:10471000159B002BC0F28B80BBF10E0F00F387803E
:104720000E4B03EBCB03D3E90067219B002B23DA6D
:10473000059B002B20DC40F07D81304600220C4B95
:10474000394601F069FDDDE9022301F0EBFF059D2B
:104750002E46002840F0708175E100BF786C00089B
:10476000406D00080000F03F0000244000001C40A5
:10477000000014400000E03FDDE90289089C324659
:104780003B464046494601F071FE01F0DFFF054619
:1047900001F0DCFC32463B4601F03EFD0B46024692
:1047A0004946404601F084FB05F1300E089B04F8B1
:1047B00001EBC3EB040E059B9E452BD102460B4635
:1047C00001F078FB32463B468046894601F0B4FF53
:1047D00070B94046494632463B4601F085FF002805
:1047E00000F06482EB0703D460E2BB4600E01C46A5
:1047F00014F8012C392A04F1FF3307D1089A9342A7
:10480000F5D1302313700BF1010B13461A780132E6
:104810001A704BE20022A44B01F0FEFC00220023A0
:104820008046894601F060FF0028A8D03EE20C9A3D
:10483000002A32D0209A012A0ADC139A12B103F21C
:10484000334302E0149BC3F136030B9D099C18E02F
:10485000059B5D1E0B9BAB42BFBF0B9B0B95EA1AE2
:104860000D9BB6BF9B185D1B0D93059BB8BF002524
:10487000002BB9BF099B059A099C059BBCBF9C1ADC
:104880000023099A1A4409920A9A50461A440121AF
:104890000A9200F08CFE064602E00B9D099C0C9EDD
:1048A00064B10A9B002B09DDA342099AA8BF2346E5
:1048B000D21A09920A9AE41AD31A0A930B9B002B74
:1048C00020DD0C9BC3B1002D10DD31462A46504639
:1048D00000F008FF06463146079A504600F070FE89
:1048E00007990746504600F080FD07970B9B5A1B1F
:1048F00008D05046079902E007990B9A504600F0FD
:10490000F1FE07905046012100F051FE0D9B002B57
:1049100005460ADD29461A46504600F0E3FE209B74
:10492000012B054604DD00271BE0209B012B13DC37
:10493000029B8BB9039BC3F313037BB9039B23F047
:1049400000473F0D3F0557B1099B013309930A9B6F
:1049500001330A93012702E0002700E0029F0D9B2C
:1049600043B12B6905EB8303186900F0D3FDC0F157
:10497000200000E001200A9B184410F01F0008D01E
:10498000C0F12003042B02DDC0F11C0002E008D0BE
:1049900018461C30099B034409930A9B03440444B2
:1049A0000A93099B002B05DD504607991A4600F033
:1049B000E7FE07900A9B002B05DD294650461A4664
:1049C00000F0DEFE0546129BEBB10798294600F089
:1049D0002AFF002817DA0023504607990A2200F020
:1049E0001BFD0C9B07900BF1FF3B002B00F070812F
:1049F0003146002350460A2200F00EFD069B002B94
:104A0000064633DC6DE1059B002B26DC209B022B48
:104A100023DD059B0693069B73B929460522504664
:104A200000F0FAFC05462946079800F0FCFE002835
:104A300009DC01E000252E46219B089C6FEA030B50
:104A400008E0BB462E46089B089A5C1C3123137075
:104A50000BF1010BB146002614E10C9B23B9059B19
:104A60000693089F079CCCE0059B0693002C05DD70
:104A700031465046224600F083FE0646B7B17168C3
:104A8000504600F07DFC32690232044606F10C010A
:104A900092000C30FDF70BFA50462146012200F03F
:104AA0006FFE814603E000BF00002440B146089F2E
:104AB000079C29462046FFF7CBFA3146099000F1C2
:104AC0003008204600F0AFFE4A4605902946504681
:104AD00000F0C5FEC26803463AB91946204607935E
:104AE00000F0A1FE079B024600E001225046194655
:104AF000079200F07AFC079AA2B9209B93B9029B17
:104B000003F0010373B9B8F1390F3B46079440D065
:104B1000059B002BC8BF099B07F10104C8BF03F127
:104B200031083DE0059B002B04DA002AC4460794B7
:104B300008DC21E024D1209B13BB029B03F001037E
:104B4000F3B9F2E72146012250460597CDF80880D7
:104B500000F016FE2946079000F065FE0028DDF8FB
:104B600008C0059B03DC07D118F0010F04D0B8F191
:104B7000390F0ED008F1010C7C1C87F800C081E0D1
:104B8000002A07F101020EDDB8F1390F3B46079408
:104B900003D1392201371A7057E0144608F1010891
:104BA00087F800806EE0089B02F8018CD31A174644
:104BB000069A93423AD021460A220023504600F03A
:104BC0002BFC4E450446314650464FF00A024FF04A
:104BD000000304D100F020FC0646814669E700F09E
:104BE0001BFC494606460A225046002300F014FCEE
:104BF00081465EE7214650460A22002300F00CFC65
:104C0000044620462946FFF723FA00F1300807F84A
:104C1000018B089B069AFB1A9342EBDB089B012A47
:104C2000ACBF9B180133B1461F4600262146012226
:104C3000504600F0A5FD2946079000F0F4FD00283D
:104C400003DC16D118F0010F13D03C4614F8013CD8
:104C5000392B04F1FF3209D1089B9A4204D10BF1A0
:104C6000010B3123089A02E01446EFE70133137079
:104C700008E03C4614F8013C302B04F1FF3201D12E
:104C80001446F7E75046294600F0AFFBB9F1000F94
:104C90000CD02EB14E4503D05046314600F0A5FB56
:104CA0005046494600F0A1FB00E0BB46504607993C
:104CB00000F09BFB0023229A23700BF10103136089
:104CC000249B1BB11C6001E00A480FE008980DE02E
:104CD000069B002B3FF7C5AE209B022B3FF79BAEF8
:104CE000BFE6209B022B3FF796AEBFE617B0BDE8AC
:104CF000F08F00BFE96A000838B5074C002305466D
:104D0000084611462360FCF7E9FD431C02D12368E5
:104D100003B12B6038BD00BFA0040020F0B50669C8
:104D20004B11B34200F1140527DA11F01F0105EB16
:104D3000860605EB830201D1294616E0141D55F8BD
:104D40002320C1F1200ECA402B46B44209D2276865
:104D500007FA0EF73A4343F8042B54F8042BCA40E1
:104D6000F3E71A6052B1043308E0B2420B4605D2B1
:104D700052F8043B41F8043BF7E72B465B1B9B10C2
:104D8000036103B94361F0BDA0F13003092B01D8E1
:104D900020380AE0A0F16103052B01D8473804E070
:104DA000A0F14103052B02D82738C0B2704700207C
:104DB00070472DE9F04F89B08A46914604930190DF
:104DC00000F0C8FA036802931846FEF76EF9029BDA
:104DD00000900344002613F8013C0593DAF80030F4
:104DE0000233984613F8010B302801D10136F8E759
:104DF000FFF7CAFF0446E8B940460299009AFEF759
:104E00005CF9002837D1009B18F8030008EB030772
:104E1000FFF7BAFF88B33B4618783028984603F16D
:104E20000103F9D0FFF7B0FF3C46B0FA80F5012648
:104E30006D0901E000252C46C3465F460BF1010BCE
:104E40003878FFF7A1FF0028F7D138460299009A79
:104E5000FEF733F958B95CB9009BFC18A3465F46CE
:104E60000BF1010B3878FFF78FFF0028F7D134B131
:104E7000E41BA40003E0474600E0044601253B781C
:104E8000502B01D0702B30D17B782B2B06D02D2BC3
:104E900002D07A1C002303E0012300E00023BA1CA7
:104EA000107806930392FFF76FFF411EC9B21829CD
:104EB000039A069B19D8A0F1100B12F8010F069364
:104EC00003920792FFF760FF411EC9B21829039AA7
:104ED000069B05D80A2101FB0B0BABF1100BECE78D
:104EE0000BB1CBF1000B5C4400E03A46CAF800205D
:104EF00025B1002E14BF002006207CE1C8EB07037B
:104F0000013B2946072B02DD01315B10FAE70198CE
:104F100000F036FA4FF0000A00F1140B05465E4629
:104F2000D446474537D97B1E0393059A17F8013CB1
:104F3000934209D0BCF1200F1AD1C6F800A04FF05F
:104F4000000A0436D44613E0009B039AC3F1010320
:104F500013444345EED318460299009ACDF81CC07D
:104F60000693FEF7AAF8069BDDF81CC088B1E1E7BE
:104F700017F8010CCDF818C0FFF706FFDDF818C0D0
:104F8000039B00F00F0000FA0CF04AEA000A0CF153
:104F9000040C1F46C5E746F804ABCBEB0606B01081
:104FA00028614701504600F0B5FAD9F80060381A78
:104FB000B04226DD871B3946284600F0B7FDC8B150
:104FC0007B1E5A1103F01F014FF001085BF82220ED
:104FD00008FA01F111420ED0434502DC4FF00208FD
:104FE00009E02846B91E00F0A1FD0028F6D04FF0D8
:104FF000030800E0804628463946FFF78FFE3C4410
:105000000CE009DA371A294601983A4600F0B8FB55
:10501000E41B054600F1140B4FF00008D9F80830E6
:105020009C4208DD0198294600F0DFF9129A00231E
:105030001360A320DFE0D9F80400844253DA041B94
:10504000B4422EDBD9F80C30022B1AD0032B1CD023
:10505000012B1DD1B4421BD1012E0BDC049AD9F8CF
:105060000430136001232B61CBF80030129B6220C7
:105070001D60C0E02846711E00F058FD0028EDD1EB
:1050800006E0139B002BE9D002E0139B002BE5D137
:105090000198294600F0A9F9129A002313605020C4
:1050A000A9E0671EB8F1000F07D1002F07DD2846E1
:1050B000394600F03BFD804601E04FF001087A11CF
:1050C000012307F01F075BF82220BB401342214653
:1050D000284618BF48F00208361BFFF71FFE0227BC
:1050E000D9F8044000E00127B8F1000F7ED0D9F8CC
:1050F0000C30022B0ED0032B10D0012B74D118F0E2
:10510000020F71D0DBF8000048EA000818F0010F28
:1051100007D169E0139BC3F101031393139B002B89
:1051200062D0D5F810A005F114034FEA8A0803EB0A
:1051300008011A68501C02D001321A6021E00022D6
:1051400043F8042B8B42F4D3AB689A4512DB6968B1
:105150000198013100F014F92A69023205F10C01BD
:10516000834692000C30FCF7A2FE2946019800F01D
:105170003CF95D462B695A1C05EB83032A61012229
:105180005A61022F05F1140210D1D9F80030013B09
:105190009E4226D17111012306F01F0652F82120EC
:1051A000B34013420CBF022701271AE02B69534575
:1051B0000ADD28460121FFF7B1FDD9F80830013496
:1051C0009C423FF72FAF0BE016F01F0608D090442B
:1051D000C6F1200658F8040C00F09CF9B042E8DB58
:1051E000012747F0200701E047F01007129B1D60E0
:1051F000049B38461C6009B0BDE8F08FC2F108027C
:10520000920070B5C2F120064368056803FA06F4FF
:105210002C43D340046040F8043F8842F4D370BD6F
:105220002DE9F04F0E68D0F800A0751102EB85054E
:1052300016F01F0385B018BF0435A5F10409174601
:1052400000228346019345F8042CC8464C46009240
:1052500016461AF8011F00293AD008460392029117
:10526000FFF792FD0299039AE8B9202914D8009B10
:10527000B342EEDA444505D2072A03DC2046414614
:10528000FFF7BCFFBC4221D9A4F10408002244F876
:10529000042C00964446DCE7292945D10AF1010394
:1052A000CBF8003014E00132082A06F1010606DDD1
:1052B000BC42CED9002244F8042C043C01222168CF
:1052C00000F00F0040EA01102060C2E70822C0E7AA
:1052D00056B3444505D2072A03DC20464146FFF772
:1052E0008DFFBC420CD93B4654F8042B43F8042BE9
:1052F0004C45F9D9002243F8042B4B45FAD90BE071
:10530000019B4BB1C3F1200655F8042C4FF0FF333D
:10531000F340134045F8043C55F8043D33B9BD4211
:10532000FAD101232B6001E0042000E0052005B044
:10533000BDE8F08F38B5064C0023054608462360CB
:10534000FCF7A8FA431C02D1236803B12B6038BDD7
:10535000A0040020004870470802002038B5074C20
:10536000054600202060084611461A46FCF7A4FABC
:10537000431C02D1236803B12B6038BDA004002078
:1053800070B5456A04460E463DB91020FCF770FD25
:105390006062456085600560C560656AEB6843B121
:1053A000636ADB6853F8260078B1026843F8262068
:1053B00017E020460421212200F0DAFB636AE8604E
:1053C000DB68002BECD1002070BD012101FA06F54D
:1053D0006A1D2046920000F0CBFB0028F3D0466007
:1053E000856000230361C36070BD70B5446A0646E2
:1053F0000D463CB91020FCF73BFD706244608460B0
:105400000460C4603DB1736A6A68DB6853F82210B7
:10541000296043F8225070BD2DE9F0410F6998468C
:1054200006460C4601F1140E0023DEF8000085B29A
:10543000010C02FB0585514301EB15410133ADB26F
:105440004FEA1148BB4205EB01414EF8041BECDB6F
:10545000B8F1000F1BD0A3689F4212DB6168304691
:105460000131FFF78DFF2269023204F10C0105467C
:1054700092000C30FCF71BFD21463046FFF7B5FFCC
:105480002C4604EB87030137C3F8148027612046BC
:10549000BDE8F0812DE9F8430C46154698460922EF
:1054A0000833074693FBF2F2002101239A4202DD02
:1054B0005B000131FAE73846FFF762FF089B436162
:1054C000092D4FF001030146036110DD04F10906C7
:1054D000B1462C4419F8013B38460A22303BFFF70D
:1054E0009BFFA1450146F5D17419083C01E00A343F
:1054F000092526462B1B3344434508DA16F8013BA1
:1055000038460A22303BFFF787FF0146F2E708469C
:10551000BDE8F883030C1B0413B90004102300E05A
:10552000002310F07F4F04BF0002083310F0704FCB
:1055300004BF0001043310F0404F04BF8000023369
:10554000002803DB420003D5581C704718467047FB
:1055500020207047036813F007020BD0D90722D42C
:105560009A074BBF5B089B08036003604CBF012098
:105570000220704799B209B91B0C102213F0FF0FDB
:1055800004BF1B0A0832190704BF1B09043299071C
:1055900004BF9B080232D90702D45B0805D0013250
:1055A000036010467047002070472020704710B5F8
:1055B0000C460121FFF7E4FE01224461026110BDA7
:1055C0002DE9F74F14460A6923699A42B8BF0B4682
:1055D0008846BCBFA0461C46D8F81070D4F810907E
:1055E000D8F80830D8F8041007EB09069E42C8BF67
:1055F0000131FFF7C5FE00F1140505EB860C2B46C3
:10560000634503D2002243F8042BF9E704F11402A6
:1056100008F1140102EB890301EB87070093009B5B
:1056200001929A4257D2B2F800B0BBF1000F23D0DA
:105630008946AE464FF0000859F8044BBEF800A06A
:10564000A3B20BFB03A34FEA144ADEF80040434425
:105650004FEA14480BFB0A8404EB1344F2469BB256
:1056600043EA04434F454FEA14484AF8043B01D942
:10567000D646E1E7CEF80480019BB3F802A00432DD
:10568000BAF1000F21D02B682C4689464FF0000854
:10569000B9F800E0B4F802B00AFB0EBEF044A3462D
:1056A0009BB243EA08434BF8043B59F8043BB4F877
:1056B00004E01B0C0AFB03E303EB1843B9454FEA74
:1056C000134801D25C46E3E763600435A7E75CF862
:1056D000043D13B9013E002EF9DC066103B0BDE8BC
:1056E000F08F000012F003032DE9F04106460F464B
:1056F000154607D0013B214A52F823200023FFF72B
:105700008BFE0746AD1035D0746A3CB91020FCF70B
:10571000AFFB7062446084600460C460D6F824808B
:10572000D8F808407CB9304640F27121FFF73FFFBE
:105730000023C8F808000446036004E06D1019D087
:10574000206870B10446EB07F8D53946224630464A
:10575000FFF736FF394680463046FFF746FE47469C
:10576000ECE7304621462246FFF72AFF002320605F
:105770000360E7E73846BDE8F08100BF686D0008C8
:105780002DE9F0470C464FEA621A236949680AEB93
:105790000309A3680746164609F101059D4202DD8B
:1057A00001315B00FAE73846FFF7EAFD0023804647
:1057B00000F11401534504DA002241F8232001339B
:1057C000F8E72AEAEA73206901EB830316F01F0267
:1057D00004F1140101EB800E14D0C2F1200C002062
:1057E0000E68964030439A4643F8040B51F8040B78
:1057F000714520FA0CF0F3D3CAF8040048B109F15E
:10580000020506E0043B51F8042B43F8042F7145D0
:10581000F9D3013D3846C8F810502146FFF7E5FDA1
:105820004046BDE8F08703690A699B1A10B511D19B
:1058300092001430143183180A4453F8044D52F87E
:10584000041D8C4202D007D3012010BD8342F4D83E
:10585000002010BD184610BD4FF0FF3010BD2DE9DF
:10586000F84307460C46084611461546FFF7DBFF8E
:10587000061E08D138463146FFF782FD0123036139
:105880004661BDE8F883BCBF23462C4638466168B4
:10589000BABF1D4601260026FFF772FD2B69C660C0
:1058A000266905F11409143404EB860709EB830813
:1058B00000F114054FF0000C54F8043B59F8042B88
:1058C0001CFA83F11FFA82FE120CCEEB0101C2EB2F
:1058D000134303EB214389B24FEA234CC84541EA05
:1058E0000343A64645F8043BE6D8BE450ED25EF813
:1058F000042B1CFA82F4120C02EB2442A4B24FEAED
:10590000224C44EA024245F8042BEEE755F8043DE8
:105910000BB9013EFAE70661BDE8F883104B0B4076
:10592000A3F15073002B02DD0020194670475B4243
:105930001B15132B4FF000004FF0000104DC4FF457
:10594000002242FA03F17047322B4FF00102DABF16
:10595000C3F1330302FA03F313461846704700BF3E
:105960000000F07F2DE9F041056900F1140707EB15
:105970008505884655F8044C2046FFF7CBFDC0F15D
:1059800020030A28A5F10406C8F8003011DCC0F194
:105990000B0E24FA0EF1BE4241F07F538CBF55F836
:1059A000081C0021153043F4401321FA0EF1844005
:1059B0001BE0BE4286BFA5F1080655F8081C002171
:1059C000B0F10B0514D0AC40C0F12B0044F07F5473
:1059D00044F4401421FA00FEBE4244EA0E038CBF98
:1059E00056F8044C0024C440A94044EA010204E0F3
:1059F00044F07F5343F440130A4610461946BDE86D
:105A0000F0812DE9F34101211D46089F099E1446AE
:105A1000FFF7B6FCC5F31303C5F30A5580460DB175
:105A200043F480130193ECB102A840F8084DFFF74E
:105A300091FD009B50B1019AC0F1200102FA01F1E1
:105A40000B43C240C8F81430019201E0C8F814308A
:105A5000019BC8F81830002B14BF02240124C8F899
:105A6000104009E001A8FFF775FD0124019BC8F86B
:105A70001430C8F81040203035B1A5F23345054444
:105A80003D60C0F1350009E008EB8403A0F232402C
:105A900038601869FFF73EFDC0EB441030604046A7
:105AA00002B0BDE8F0812DE9F7438846694681469A
:105AB000FFF758FF0F46064601A94046FFF752FF81
:105AC000019A009B0D469B1AD8F81010D9F81020A7
:105AD000521A03EB4213002BC8BF07EB03570446CF
